:100000000C947F040C949C040C949C040C949C040D
:100010000C949C040C949C040C949C040C949C04E0
:100020000C949C040C949C040C945E130C94A012ED
:100030000C94431D0C949C040C949C040C949C0400
:100040000C949C040C949C040C949C040C949C04B0
:100050000C949C040C94021D0C949C040C949C0421
:100060000C949C040C949C040C949C040C949C0490
:100070000C949C040C949C040C949C040C949C0480
:100080000C949C040C949C040C949C040C949C0470
:100090000C949C040C949C040C949C040C949C0460
:1000A0000C949C040C949C040C949C040E068206F4
:1000B0001606E005E4051A06E7051D062806F20502
:1000C0007806F6052C06FA0530065A06FE053406B3
:1000D000640604063A064406EB052106EE052406EE
:1000E00009063F06500670067206DC0512068B06EE
:1000F000E206010706070B07100715071A071F0777
:10010000240729072E075405350738073B073E0704
:1001100041075605440747074907BE07BE07F107D1
:10012000F1076E088409840984098C080009110903
:100130001109AC10D3108812D31088121F1142116C
:10014000881243125312602065206F2063206820BC
:100150006D206B201E0F0500047F3F1F6432146466
:100160003214783C1E1E140A0505010980A1018580
:100170000319012AB700150126B7009501751081F2
:1001800000C0050C0901A101850419012AA002156E
:100190000126A002950175108100C005010906A184
:1001A000018506050719E029E71500250195087561
:1001B0000181020507190029EF1500250195F07549
:1001C000018102050819012905950575019102951E
:1001D0000175039101C00660FF0961A10109621563
:1001E0000026FF009520750881020963150026FF8F
:1001F00000952075089102C005010906A1010507B7
:1002000019E029E71500250195087501810295017E
:10021000750881010507190029FF150026FF0095C3
:1002200006750881000508190129051500250195A5
:100230000575019102950175039101C009025B00EA
:10024000030100A0FA0904000001030101000921D3
:10025000110100012244000705810308000109047F
:100260000100020300000009211101000122220007
:10027000070582032000010705030320000109048C
:1002800002000103000000092111010001226D009C
:1002900007058403200001120100020000000897F6
:1002A000327549000101020301180335005600654B
:1002B00000590058002F00790037006700450030D2
:1002C00000000016034500720067006F0064006FB5
:1002D000007800200045005A00000028035A00530F
:1002E000004100200054006500630068006E006F4C
:1002F000006C006F006700790020004C0061006214
:1003000000730000000403090435002B00E100E045
:1003100000520000001E0034000400330251004E61
:10032000001F00360012001400000F29282000379B
:100330000008420D00E2002A002100130018410EBF
:100340000023524B0022001C000C001B0000005038
:100350000126022F000000380000006452270230FE
:1003600000000031000000350A23000900070005E5
:100370000000002B0824000A000B00100023524A42
:10038000002500060017001A00E7002C00260015C3
:100390000011001900E600280027000F0016001DBC
:1003A0000050004D0029002E00E5002D004F0000F8
:1003B00000137001000100010001000000010001B4
:1003C000002D0001000100010001002402250201AE
:1003D0000001002928010035003800010001002A31
:1003E0000001000100010001000100010001000105
:1003F00000010001000000010001000100000001F7
:1004000000000001000100010000000100000001E7
:100410000022023502330034020000010031022FB5
:100420000226022F000100010020023002270230C4
:100430000001002C001F021E022D023602010028BE
:10044000002302380221023702010001002D002E94
:10045000022E003100010000000100010001000136
:100460000001000000010001000100010001000581
:100470007E01000100010001000100277801000158
:1004800000010001000100287801000100010001C5
:10049000000100047E0100010001000100000021B4
:1004A0007801000100000001000000037E0100014E
:1004B000000000010000002078010001000100019F
:1004C000000000027E01000100AC000100010000FC
:1004D0007E01000100AE000100010023780100014F
:1004E00000AB0001000100247801000100010001BF
:1004F00000010001000100A900AA00A800010000FD
:1005000000007C010001000100010000003A000130
:100510000001000100010001003B0001005000014A
:1005200000010029283C0052005100010001002A6E
:10053000003D0001004F000100010001003E0001EC
:1005400000010001000000010001000100000001A5
:100550000000000100010001000000010000000196
:10056000003F005700560024020000010040005FD9
:10057000005C00590001000100410060005D005A6C
:100580000062002C00420061005E005B00630028F6
:100590000043002502540031002E000100440045B4
:1005A0000001000100010000000100010001000144
:1005B0000001000000010029002A001D00010000C8
:1005C000570100140004001B000100280001001A5C
:1005D000001600060001002C0001000800070019A9
:1005E00000290001000100150009000500000001BC
:1005F00000010001000000010000000100010001F5
:1006000000000001000000010001000100010001E4
:1006100000000001000100010001000100010001D3
:1006200000010001000100010001000100010001C2
:1006300000010001000100010001000100010001B2
:1006400000010001000100010001000100010000A3
:100650000001000100010001000100000023002949
:10066000002A001D00010001002400140004001BEA
:10067000000100010025001A00160006000100011B
:1006800000260008000700190001000100270015DE
:100690000009000500000001000100010000000148
:1006A0000000000100010001000000010000000145
:1006B0000001000100010001000000010001000133
:1006C0000001000100010001000100010001000122
:1006D0000001000100010001000100010001000112
:1006E0000001000100010001000100010001000102
:1006F0000001000100010000002223252628292AEC
:100700002C2D2F3032333536383A3B3D3E40424374
:100710004547494A4C4E5051535557595A5C5E60B3
:1007200062646668696B6D6F71737577797B7D7FC5
:1007300081838587898A8C8E90929496989A9C9EC4
:100740009FA1A3A5A7A8AAACAEAFB1B3B4B6B8B9E0
:10075000BBBCBEBFC1C2C3C5C6C7C9CACBCCCDCE48
:10076000D0D1D2D2D3D4D5D6D7D7D8D9D9DADADB2B
:10077000DBDBDCDCDCDCDCDDDDDDDDDCDCDCDCDCB7
:10078000DBDBDBDADAD9D9D8D7D7D6D5D4D3D2D2F6
:10079000D1D0CECDCCCBCAC9C7C6C5C3C2C1BFBEDE
:1007A000BCBBB9B8B6B4B3B1AFAEACAAA8A7A5A349
:1007B000A19F9E9C9A98969492908E8C8A89878508
:1007C00083817F7D7B79777573716F6D6B696866E7
:1007D0006462605E5C5A5957555351504E4C4A49B9
:1007E00047454342403E3D3B3A3836353332302F61
:1007F0002D2C2A292826252322000101010101018F
:1008000001010102020202020202020203030303C7
:100810000303030304040404040404050505050597
:100820000606060606070707070708080808090955
:1008300009090A0A0A0B0B0B0C0C0C0D0D0D0E0E00
:100840000E0F0F0F10101111111212131314141593
:100850001516161717181819191A1A1B1B1C1D1D07
:100860001E1E1F202021222223242425262627285D
:1008700029292A2B2C2D2D2E2F303132323334358D
:10088000363738393A3B3C3D3E3F40414243444590
:10089000464748494A4C4D4E4F505153545556586F
:1008A000595A5B5D5E5F616264656668696B6C6D19
:1008B0006F7072737577787A7B7D7E80828385878F
:1008C000888A8C8E8F91939596989A9C9EA0A2A3CD
:1008D000A5A7A9ABADAFB1B3B5B7BABCBEC0C2C4D2
:1008E000C6C9CBCDCFD1D4D6D8DBDDDFE2E4E7E992
:1008F000EBEEF0F3F5F8FAFDFFFFAA7F5540112467
:100900001FBECFEFDAE0DEBFCDBF11E0A0E0B1E067
:10091000E8E8F4E502C005900D92A03DB107D9F7D3
:1009200023E0A0EDB1E001C01D92A139B207E1F7CB
:100930000E94F3090C94422A0C940000A0E0B0E05D
:10094000E4EAF4E00C946928FC012481222309F4F0
:1009500045C58C0161E00E94601FEC01F8018581B2
:10096000882309F414C28091520390915303009795
:1009700009F454C0C817D90709F450C0992764E096
:10098000880F991F6A95E1F7FC01EB5EFE4F20810D
:1009900024602083805F9E4FFC01D183C0830E942E
:1009A0004B1E1092500361E0C8010E94601FEC01D1
:1009B00081159E47B9F5F8018581882309F4ECC1BA
:1009C0009091E50181E0890F8770987F853020F450
:1009D000892B8093E50102C09093E5018091E501A8
:1009E0008770FFEF8F9FC00111249595879595958E
:1009F00087950E9474204091E5015091E601609135
:100A0000E7017091E8018FE090E00E942929809130
:100A1000E4010E9445200E949920BEC1C115FEE755
:100A2000DF0771F2F8018581C330FEE7DF0799F037
:100A300028F4C2304EE7D40751F03CC0C4305EE722
:100A4000D507B1F0C5309EE7D90709F133C0882337
:100A500009F48BC129C0882309F487C10E9473243B
:100A600081E00E946F2421E04FEF6FEF8CEA0CC011
:100A7000882309F47AC10E94732481E00E946F24C4
:100A800021E040E86FEF86E50E944C236EC1882389
:100A900009F46BC10E94732481E00E946F2421E05D
:100AA0004FEF6FEF8BE1F0CF81E001C088E10E9452
:100AB0006F245BC19E0137552F3F310511F008F0BF
:100AC0005BC06E01DD24960144E0220F331F4A957E
:100AD000E1F7F901E05FFE4F7F01A9014B5E5E4F38
:100AE0006A01FA01908180FB90F99083F801858179
:100AF000882341F10E94371D9093090280930802D8
:100B0000F70182818F5F828390915003809151031E
:100B1000892B838380916702848346815781668510
:100B20007785C7010E94281EF601808181FF03C0DE
:100B300090E080E002C09C2F8D2F90935203809311
:100B400053031AC0F7014485558566857785C7012B
:100B50000E94281EF601808181FF0EC0C7010E94FD
:100B60002E1E80915203909153038C179D0721F400
:100B70001092530310925203F8018581882309F4DF
:100B80000EC1CE019057839708F0DBC084E090E05F
:100B90000E94012990935B0380935A03FE01E15068
:100BA000F047E232F10520F4EA5AFF4F0C94DC29B9
:100BB00080915A038160ACC080915B038860B4C0AF
:100BC00080915A038260A4C080915A0320C0809112
:100BD0005A0388609DC080915B031EC080915B03B7
:100BE0008260A2C080915A03806192C080915A03B2
:100BF00080628EC080915A0380648AC00E948225E0
:100C000080915A03806884C080915A038860846010
:100C10007FC080915B038260816086C080915A03AF
:100C20008E7F76C080915B03877F7EC080915A0360
:100C30008D7F6EC080915A0320C080915A03877FB8
:100C400067C080915B031EC080915B038D7F6CC089
:100C500080915A038F7E5CC080915A038F7D58C06B
:100C600080915A038F7B54C00E94822580915A0341
:100C70008F774EC080915A03877F8B7F49C08091C8
:100C80005B038D7F8E7F50C080915A0382FB2227A9
:100C900020F991E0922790FB82F990FB83F938C00C
:100CA00080915B03982F909591708E7F892B90FB9C
:100CB00081F93AC080915A0386FB222720F991E0FE
:100CC000922790FB86F924C00E94822580915A03C6
:100CD00087FB222720F991E0922790FB87F918C023
:100CE00061E001C060E08EE090E00E9417291EC024
:100CF00080915A0384FB222720F991E0922790FBF0
:100D000084F906C080915A03982F909590FB80F942
:100D100080935A030BC080915B0383FB222720F949
:100D200091E0922790FB83F980935B0360915A03D3
:100D300070915B0384E090E00E9435290E94822537
:100D400014C0C6314CE7D40709F0A8C08091510304
:100D50008A7A91E009F490E09093D20181113CC32A
:100D600089E20E949A1D0E94DC16809166028770BB
:100D700009F434C3F8018581882309F42FC38091D5
:100D80005B0382FF2BC382E00E942E1727C3C1158D
:100D90005EE7D50709F046CEC0E0DEE7EDCEC6310E
:100DA0002CE7D20709F4D2C2809151038272FE016E
:100DB000E052F847E531F10508F08AC0E858FF4FE6
:100DC0000C94DC292091480320FF18C02E7F20932B
:100DD00048033091490340914A0350914B0360917D
:100DE0004C0370914D0380914E0390914F030E94EC
:100DF0004D2210926F030E94F521B7CF0E947324F9
:100E0000B4CF4DE754E268E874E22CC048E854E2FD
:100E10006DE774E227C04FEF53E269E074E222C04D
:100E200049E054E26FEF73E21DC045EE53E262EF1A
:100E300073E218C042EF53E265EE73E213C04BEC6D
:100E400053E268ED73E20EC048ED53E26BEC73E2DF
:100E500009C043E752E26DE872E204C04DE852E295
:100E600063E772E20E94891E80CF65E082E013C0D2
:100E700068E086E010C06EE089E00DC064E18FE0BC
:100E80000AC067E185E107C062E289E104C083E24C
:100E90000ECE6AE285E20E94751E67CFC330FCE782
:100EA000DF0709F483C208F45BC2CB358CE7D807AF
:100EB00009F490C2CC359CE7D90709F063C2809150
:100EC0005B0382FB882780F991E089270E94451700
:100ED000F8018581C081D181882349F0CE010E942B
:100EE0009424F82E682FCE010E94042504C0CE0160
:100EF0000E94D024F82EBE018F2D0E949B150E94C7
:100F0000B815F82EC92FC82EF801D581E680E294D5
:100F10009FE0E92280916602877001F1DD23F1F004
:100F20008C2F807F803469F080E28F0D8830B0F0A4
:100F30008C2F807E803229F4F1E0FF1578F4EE20CA
:100F400069F080915B0382FF09C082E00E942E1746
:100F5000809166028770DD24D3948111D12CBC2E40
:100F6000B2948FE0B8228B2D90E08C30910508F080
:100F7000CBC1FC01E357FF4F0C94DC298C2F807F01
:100F8000CF70882311F0C295C07FDD23B9F0CC2348
:100F900009F4A8C180E28F0D883010F0C11006C09E
:100FA00090915103C92BC093510305C090915003F8
:100FB000C92BC09350030E94DC1694C18F2D0E9450
:100FC000B525CC2309F4A0C180E28F0D883088F1CB
:100FD000CC2079F1C09590915003C923C093500360
:100FE0002BC08C2F807FCF70803211F0C295C07FD4
:100FF0008F2DCC2029F021E0C21609F44CC055C039
:1010000080915B0382FD1BC0DD2369F0CC2339F0A6
:1010100090915103C92BC09351030E94DC1680E0CC
:101020000E94DF2571C180E00E94B525CC2309F420
:101030006BC18C2F0E94D5160E94DC1665C1DD2382
:1010400081F0EE20B1F141E0E4125EC190916702BF
:101050008C2F8923C81709F457C1C92BC093670285
:1010600053C1E11051C18C2F0E94A42580916702C9
:101070009C2F982329F09C2F9095892380936702B9
:101080002091D3018C2F822309F43EC1C0952C23DB
:101090002093D30139C1DD2329F051E05E1508F416
:1010A00033C107C0E11030C115C0DD2331F0E110BC
:1010B00019C18C2F0E94AB2527C1EE2059F089332E
:1010C00009F01FC18FEF97EEE3E081509040E040C0
:1010D000E1F715C18C2F0E94A42516C18C2F86958F
:1010E0008695837019F0813061F00EC1DD2321F007
:1010F0008F2D9C2F937002C080E090E00E94F61D1F
:1011000009C1DD2321F08F2D9C2F937002C080E058
:1011100090E00E94D11DFEC08C2F8370A9F5D111E3
:10112000F7C04F2D429546954770440F440F8F2DC1
:101130008F7090E09C01042E01C0220F0A94EAF700
:10114000F4FE08C08FE090E001C0880F4A95EAF7EE
:10115000809501C080E0C695C695C370C23069F025
:1011600088F49091E201C13019F0822B892302C0EA
:10117000922B892B0E945C25CBC0822B9091E2019F
:101180008927F8CF822BF6CFDD2319F08C2F8170C1
:1011900001C08695882309F4BBC04F2D4295469522
:1011A0004770440F440F8F2D8F7090E09C01042EE8
:1011B00001C0220F0A94EAF7F4FE08C08FE090E025
:1011C00001C0880F4A95EAF7809501C080E0C69576
:1011D000C695C370C23059F078F49091E401C130E3
:1011E00019F0822B892309C0922B892B06C0822BF0
:1011F0009091E401892701C0822B0E94392588C083
:10120000CF70DD2339F08C2F0E9450258F2D0E9446
:10121000AB257EC08F2D0E94A4258C2F0E944325D4
:1012200077C08F2DF2EFCF1669F1FC1538F020EF63
:10123000C21659F041EFC41601F150C053EFC51664
:1012400041F194EFC916A9F049C0DD2369F0E1101E
:101250005BC0CF7181E090E001C0880FCA95EAF7CA
:101260009091E40189271FC0E1E0EE1508F44CC01D
:10127000F0CF80915B0382FD19C0DD2329F08C2F14
:101280008F711FC0DD23D9F38C2F8F710E944325EE
:101290003BC0DD2339F0CF7181E001C0880FCA95D2
:1012A000EAF701C080E00E9439252EC0DD2361F0FD
:1012B0008C2F8F71F8E08F9F900111242360209371
:1012C00066020E94502520C081E00E942E1721E076
:1012D0002E15D0F482E00E942E1716C0DD2321F0D7
:1012E000EE2069F28F2D9CCEEE2071F2893349F405
:1012F0004FEF57EE83E0415050408040E1F700C08F
:1013000000008F2D0E94B52588EF8B0D843010F4DE
:101310000E941B1EDD20A9F08091660280FD11C095
:10132000F80115828695869586950E945025C801FC
:101330000E949E04809166028695869586950E94FD
:10134000432560E0C8010E94601F48C08091D2011F
:10135000811104C089E20E946C1D05CD85E3FBCF9D
:10136000C1154CE7D407A1F0C130DC4709F0B0CD7E
:101370000E9482255FEF84E39CE0515080409040C2
:10138000E1F723C0CA35DC4709F0A2CD81E09ECD4C
:101390000E948225FFEF24E34CE0F15020404040C2
:1013A000E1F700C000000E94D01CDFCC6FEF7FEFA0
:1013B00080E090E00E9435290E948225EFEFF4E35F
:1013C0002CE0E150F0402040E1F700C000000E9416
:1013D000C51CCBCC80E07ACD85E3C3CCCDB7DEB7DE
:1013E000E9E00C948528A6E4B0E0E9EFF9E00C947C
:1013F000642885B7806885BF85B7806885BF84B756
:10140000877F84BF0FB6F894A895809160008861AB
:1014100080936000109260000FBE90E080E80FB6ED
:10142000F89480936100909361000FBE88E694E188
:101430009093D1018093D0010E94E4120E94031383
:101440008091E20084608093E200789480911B0296
:101450008823A1F01091E9001F709091EC00892F72
:10146000817090FD80E8182B1092E9008091E800CF
:1014700083FD0E94C90F1F701093E90082E084BDB4
:1014800093E095BD9AEF97BD80936E000E94B021C6
:1014900090E090930F0180930E010E9425210E94FD
:1014A0008B21E4EDF1E0ABEEB1E011921D9221E071
:1014B000E23EF207D1F780E090E00E940129853EEC
:1014C0009E4F09F46EC065EE7EEF80E090E00E94D2
:1014D000352960E082E090E00E94172981E0809346
:1014E000E20161E083E090E00E94172960E074E18E
:1014F00084E090E00E94352960E086E090E00E9460
:10150000172960E087E090E00E94172940E050E052
:10151000BA0188E090E00E94292960E083E290E02F
:101520000E94172960E08CE090E00E94172960E09B
:101530008DE090E00E94172919821A821B821C827A
:101540001D821E821F82188648E050E067E170E02D
:10155000CE0101960E94072940E050E0BA018FE1D8
:1015600090E00E9429291092E5011092E601109264
:10157000E7011092E80184E08093E5014091E501E4
:101580005091E6016091E7017091E8018FE090E0F1
:101590000E94292940E050E0BA0183E190E00E94D6
:1015A000292982E090E00E94F3288093F90184E0E9
:1015B00090E00E94012990935B0380935A030E945C
:1015C0006A19FFEF23EF81E0F15020408040E1F7FE
:1015D00000C000000E946A198091EB0180FF08C0E2
:1015E0006FEF7FEF80E090E00E9435290E94D01CD1
:1015F00083E090E00E94F3280E945C258091E40142
:101600000E9445200E9499208091E30181117FC0B2
:1016100088E090E00E94FB284B015C0183E290E0AF
:101620000E94F328282F30E040E050E060E070E0B6
:1016300080E090E000E20E94F129282939294A2916
:101640005B29209348033093490340934A03509306
:101650004B0360934C0370934D0380934E03909320
:101660004F032C7F09F041C025E2209348031092DC
:1016700049033FEF30934A0330934B0310924C03DE
:1016800030E04FEF5FEF60E00E944D2288E090E095
:101690000E94FB286B017C0183E290E00E94F3280A
:1016A000282F30E040E050E060E070E080E090E023
:1016B0000E94F129B22FA32FF42FE52F5B01970190
:1016C0008601BC29A12BF22BE32BB0934803A093F6
:1016D0004903F0934A03E0934B0360934C03B092A9
:1016E0004D0380934E0390934F030E943922109232
:1016F0006F030E94F8198091480380FF05C060E0E5
:10170000869586950E942A2481E08093E30189EAE8
:101710008093800089E08093810024982C983F98E2
:10172000479A54985C9A55985D9A6E98769A259A3D
:10173000269A279A569A8FE090E00E94FB286093A1
:10174000E5017093E6018093E7019093E8016770EB
:101750001FEF169FC0011124959587959595879544
:101760000E9474205E981092890010928800109256
:101770008B0010928A0010928D0010928C008FEFD7
:101780000E9474200E943D209FEFE0E7F2E091501C
:10179000E040F040E1F700C000000E9435202FEF4C
:1017A00080E792E0215080409040E1F700C00000C7
:1017B0000E942D20EFEFF0E722E0E150F0402040C2
:1017C000E1F700C0000010928900109288008FEFAE
:1017D00090E7E2E081509040E040E1F700C0000077
:1017E00010928B0010928A00FFEF20E782E0F15008
:1017F00020408040E1F700C0000010928D00109260
:101800008C008091E5018770189FC0011124959587
:101810008795959587950E9474205E98109289000F
:101820001092880010928B0010928A0010928D0006
:1018300010928C008091E4010E94452084E091E0A8
:10184000909357038093560348E1E42EF12C809146
:101850001B02853009F07FC000E4B02E09EF11E0D3
:10186000AA24A39480E1C82E92E1D92E80911B0274
:10187000853009F05AC080911B02843009F434C0CD
:1018800010926F038091EA0181110DC0A092EA01CC
:1018900080914803982F91709093E9018E7F8093F7
:1018A00048030E94F52110925C030FB6F894A895A6
:1018B000E09260000FBEB092600083B7817F8460C9
:1018C00083BF83B7816083BF7894889583B78E7F09
:1018D00083BF0FB6F894A8958091600088618093CB
:1018E0006000109260000FBE80911A02882309F4F4
:1018F000BDCF0E94B02190E090930F0180930E0124
:101900000E9425210E948B21EBEEF1E011920E172F
:101910001F07E1F70E946A19EBEEF1E08191811156
:101920004DC20E171F07D1F7A1CF0E9482250E943A
:101930001B1E1092EA018091E901882351F08091E9
:10194000480381608093480360E0869586950E94F5
:101950002A240E9413240E946A191AEFC12E11E052
:10196000D12EABEEB1E0F60191918D91892792E0F5
:10197000E830F90719F08823B9F305C0811103C0D5
:101980000E94461954C0BBEE8B2EB1E09B2E10E096
:10199000F40171904F01F601A080A724B1F100E09D
:1019A000BB24B394662463948A2D8B2141F1229643
:1019B0000FAF229723961FAF23970E94371D2596BE
:1019C0009FAF8EAF259726966FAE269791E0872D15
:1019D0008B2109F490E027969FAF279722964FAD71
:1019E000229723965FAD239724966FAD2497259673
:1019F0007FAD259726968FAD26970E948B1F0F5F90
:101A0000BB0C063089F6F60170821F5FFFEFCF1A1C
:101A1000DF0A1E3009F0BCCF8FB7F89440915D0308
:101A200050915E0360915F03709160038FBF80915E
:101A3000520390915303892BE9F080910802909111
:101A400009020E94281D893C9105A0F08091520353
:101A5000909153039927A4E0880F991FAA95E1F765
:101A6000FC01EB5EFE4F208122FD04C0805F9E4F93
:101A70000E944B1E80916F03882309F4A6C08091B9
:101A80006E03E0914803E695E695E81BE0936A0350
:101A9000823059F4F0E0EB59FE4FE4910E2F10E044
:101AA000FCE6CF2EFCE1DF2E6BC0863059F4F0E06F
:101AB000EE59FE4FE4910E2F10E0ECE5CE2EECE156
:101AC000DE2E5EC0893061F4E695F0E0E15AFE4F0B
:101AD000E4910E2F10E078EFC72E7BE1D72E50C097
:101AE0008F3061F4E695F0E0E45AFE4FE4910E2F5A
:101AF00010E062E9C62E6BE1D62E42C0853159F462
:101B0000F0E0E75AFE4FE4910E2F10E052E4C52EAC
:101B10005BE1D52E35C08831F9F0833249F4E7E531
:101B2000F1E00591149142E2C42E4CE1D42E28C07C
:101B30008432C9F08532F1F48E2F63E00E94AE2921
:101B4000E92FF0E0EC5AFE4FE4910E2F10E03BEF4E
:101B5000C32E39E1D32E14C008E210E027ECC22EC8
:101B60002AE1D22E0DC004EF11E09FE8C92E9AE1C0
:101B7000D92E06C000ED17E08AEFC82E89E1D82ED5
:101B800080916B03882361F010926B030E94371DD4
:101B9000909369038093680310926D0310926C0315
:101BA0000E94371DE0916803F09169038E1B9F0B23
:101BB0008F3F9F4750F40E0F1F1F10936903009330
:101BC000680388E693E0F60109950E941B1E909138
:101BD0000A02891769F080930A028FB7F89440913E
:101BE0005D0350915E0360915F03709160038FBF4E
:101BF00080911B02843009F02ACE83E08093E900B3
:101C00008091E80082FF23CE8091E80085FF22C00A
:101C10000E94351481111CC000E210E06E01F1E257
:101C2000CF0ED11C08C08091F100F60181936F01A5
:101C30000150110969F08091E80085FDF4CF809191
:101C4000E8008B778093E8000E943514882399F38D
:101C500091E001C090E08091E8008B778093E800EC
:101C6000992309F4F4CD89A1863009F47EC0A8F443
:101C7000823009F4ECCD58F4882321F1813009F049
:101C800099C080930B0284E089838EEF89C08430F1
:101C900031F1853009F469C08DC0893009F465C01F
:101CA00030F4873099F1883009F45FC083C08A30FE
:101CB00009F45DC08E3F09F07DC0898394E09A836A
:101CC0008B836FC019828CE0EFE2F1E0DE011296A7
:101CD00001900D928A95E1F78EEF8D8762C0809119
:101CE0000B02882309F4B3CD8AA1811104C08BA112
:101CF0000E944325ACCD81E090E00BA002C0880F8C
:101D0000991F0A94E2F70E943925A1CD81E08093C2
:101D10000D028AA18230E1F030F5882319F081307C
:101D200061F021C08BA1882319F00E943D208FCD46
:101D300010928900109288008ACD8BA1882319F017
:101D40000E94352084CD10928B0010928A007FCDA6
:101D50008BA1882319F00E942D2079CD10928D003F
:101D600010928C0074CD85E026C084E024C08AA146
:101D700091E0811101C090E090930D0281110CC09F
:101D8000109289001092880010928B0010928A00A5
:101D900010928D0010928C008BE0898380910D024F
:101DA0008A8340E250E0BE016F5F7F4F82E00E9475
:101DB000801C4DCD8FEF0E94C42049CDC9BCD9BC39
:101DC00009B400FEFDCF8091D8008F7D8093D800AC
:101DD0008091E00082608093E0008091E00081FDCE
:101DE000FCCF0E94822542CD80911D0287FF11C049
:101DF0008091E80082FD05C080911B028111F8CF1F
:101E000011C08091E8008B770BC080911B02882362
:101E100049F08091E80080FFF8CF8091E8008E774C
:101E20008093E8000895982F973068F59093E90023
:101E3000981739F07091EC002091ED005091F0006E
:101E400003C0242F762F50E021FD02C09F5FECCF0E
:101E50003091EB003E7F3093EB003091ED003D7F01
:101E60003093ED003091EB0031603093EB007093D4
:101E7000EC002093ED005093F0002091EE0027FD40
:101E8000E5CF80E008958F708093E90081E00895A8
:101E900020912302309124022617370748F061155C
:101EA000710539F42091E8002E772093E80001C0F5
:101EB000B901FC0120E06115710579F180911B02E7
:101EC0008823F1F18530F1F18091E80083FD3CC079
:101ED0008091E80082FD2EC08091E80080FFEBCF6A
:101EE0002091F3008091F20090E0922B6115710532
:101EF00051F08830910538F421912093F100615020
:101F000071090196F3CF21E0089709F020E0809154
:101F1000E8008E778093E800CECF2111CFCF0AC0A2
:101F200080911B02882361F0853061F08091E80088
:101F300083FD0AC08091E80082FFF2CF80E008951F
:101F400082E0089583E0089581E00895089543E0D4
:101F500050E0BC0184E00E94801C089540E250E003
:101F6000BC0184E00E94801C0895CF93DF93EC01B4
:101F700048E050E0BC0181E00E94801C88E0FE0146
:101F8000A1E1B2E001900D928A95E1F7DF91CF9146
:101F90000895AAE2B0E0EFECFFE00C946F28EDE1C9
:101FA000F2E085E292E02091F10021938E179F07E5
:101FB000D1F780911E02833009F463C030F4813080
:101FC00071F0823009F49DC0B4C08A3009F489C030
:101FD0008B3009F46EC0893009F0ABC020C080910D
:101FE0001D02813A09F0A5C08091E800877F8093A7
:101FF000E8008091210290912202892B21F468E06F
:1020000081E192E003C060E080E090E070E00E9437
:10201000480F8091E8008B778093E8008AC0809118
:102020001D02813209F085C0809121029091220227
:10203000009719F0029709F07CC08091E800877F33
:102040008093E8008091E80082FD05C080911B022A
:102050008111F8CF6EC02091F3008091F20090E0E2
:10206000922B029731F48091F100813011F086308B
:1020700021F48091F100809310028091E8008B7729
:1020800054C080911D02813A09F053C08091210211
:1020900090912202892B09F04CC08091E800877F43
:1020A0008093E8008091E80080FFFCCF80912001C0
:1020B00037C080911D028132E1F58091210290911B
:1020C0002202892BB1F58091E800877F8093E80098
:1020D0000E94F40E80911F02809320010E948225AD
:1020E00028C080911D02813221F58091E800877F10
:1020F0008093E8000E94F40E8091200280930F02EA
:1021000018C080911D02813AA1F48091E800877F78
:102110008093E8008091E80080FFFCCF80910F025F
:102120008093F1008091E8008E778093E8000E9410
:10213000F40E8091E80083FFEBC180911D02909125
:102140001E02492F50E04A30510508F0E1C1FA0162
:10215000E756FF4F0C94DC29803821F0823809F0D3
:10216000D7C108C08091190290911A02992389F071
:1021700082600FC0809121028F70873008F0C8C143
:102180008093E9008091EB0085FB882780F910920D
:10219000E9009091E800977F9093E8008093F10028
:1021A0001092F1007CC1282F2D7F09F0B1C1882346
:1021B00019F0823061F0ACC180911F02813009F0CA
:1021C000A7C1933009F080E080931A022EC080915D
:1021D0001F0281112AC0809121028F702FEF280FDA
:1021E000263008F095C18093E9002091EB0020FF94
:1021F0001CC0933021F48091EB00806214C0909158
:10220000EB0090619093EB0021E030E0A90102C067
:10221000440F551F8A95E2F74093EA001092EA00B6
:102220008091EB0088608093EB001092E900809130
:10223000E800877F8093E8000E94F40E69C1811155
:1022400067C110911F021F778091E3008078812B76
:102250008093E3008091E800877F8093E8000E94EC
:10226000F40E8091E80080FFFCCF8091E30080684D
:102270008093E300111102C082E001C083E08093EB
:102280001B0246C18058823008F042C120911F02D3
:10229000309120022C3D53E0350779F583E08A83A5
:1022A0008AE289834FB7F894DE01139620E03EE07E
:1022B00051E2E32FF0E050935700E49120FF03C078
:1022C000E295EF703F5FEF708E2F90E0EA3010F0F4
:1022D000C79601C0C0968D939D932F5F243149F717
:1022E0004FBF8091E800877F8093E8006AE270E04A
:1022F000CE0101960E94480FC0C0809121029091AA
:102300002202432F552743305105B1F068F4413084
:10231000510509F40CC14230510509F0F9C08BE5B3
:1023200090E0ECE3F2E057C04132510589F14232CE
:10233000510509F43CC0ECC0C901992781309105D1
:10234000B9F070F082309105D9F0039709F0E0C040
:10235000E9EAF2E0E4918E2F90E0E9EAF2E038C099
:10236000E5E0F3E0E4918E2F90E0E5E0F3E030C0AB
:10237000EBEDF2E0E4918E2F90E0EBEDF2E028C07F
:10238000E3ECF2E0E4918E2F90E0E3ECF2E020C089
:102390008330910508F0BCC0880F991FFC01EC5BED
:1023A000FE4F0190F081E02D89E090E014C0833071
:1023B000910508F0ADC0FC01EE0FFF1FE25CFE4F7F
:1023C0000190F081E02DDC01A55CBE4F8C9190E086
:1023D000009709F49DC02091E800277F2093E80032
:1023E00020912302309124022817390708F4C901EB
:1023F00040E0009789F120911B02222309F43DC09F
:102400002530D9F12091E80023FD37C02091E80064
:1024100022FD2FC02091E80020FFEBCF4091F30078
:102420002091F20030E0342B009759F0283031052C
:1024300040F444914093F100319601972F5F3F4F54
:10244000F3CF41E02830310509F040E02091E80069
:102450002E772093E800CDCF4111CDCF0AC08091D7
:102460001B02882351F0853041F08091E80083FD04
:1024700004C08091E80082FFF2CF8091E8008B7762
:102480008093E80045C0803809F042C08091E800A0
:10249000877F8093E80080911C028093F1008091F7
:1024A000E8008E77C7CE811133C080911F029091D2
:1024B00020029927029764F58091E800877F809336
:1024C000E80010911F0210931C020E94F40E1111DB
:1024D00006C08091E30087FD02C081E001C084E076
:1024E00080931B0242E061EC81E00E94130F42E204
:1024F00061EC84E00E94130F42E261EC82E00E94F2
:10250000130F42E260EC83E00E94130F80911B02E4
:102510008091E80083FF10C08091E800877F80935E
:10252000E8008091EB0080628093EB0005C082E1BF
:1025300090E0E7E9F2E04FCFAA96E3E00C948B2815
:102540001F920F920FB60F9211242F933F934F9328
:102550005F936F937F938F939F93AF93BF93CF932B
:10256000DF93EF93FF93C091E900CF708091EC006F
:10257000D82FD17080FDD0E81092E9008091F00052
:10258000877F8093F00078940E94C90F1092E90031
:102590008091F00088608093F000CD2BCF70C093C5
:1025A000E900FF91EF91DF91CF91BF91AF919F91A2
:1025B0008F917F916F915F914F913F912F910F90EC
:1025C0000FBE0F901F901895E8EDF0E080818E7F90
:1025D00080831092E2001092DA001092E100A0EEE7
:1025E000B0E08C9181608C9380818F77808319BC5F
:1025F000A7EDB0E08C918E7F8C9380818F7E80835D
:1026000010920E020895A0E0B0E0E9E0F3E10C942E
:102610006A28C8EDD0E088818F7E8883E7EDF0E0FE
:1026200080818160808384E082BF81E080930E029C
:1026300088818E7F888302EE10E0F801108210926C
:10264000DA0081EEC82ED12CF601108288818F77B6
:10265000888388818068888388818F7D888319BC7E
:1026600010921B0210921C0210921A021092190270
:1026700090EEE92EF12CF70180818B7F8083888199
:102680008160888342E060E080E00E94130FF601E1
:1026900080818E7F8083F80180818160808380814A
:1026A00088608083F70180818E7F8083888180614C
:1026B0008883CDB7DEB7E8E00C9486281F920F928E
:1026C0000FB60F9211242F933F934F935F936F9305
:1026D0007F938F939F93AF93BF93EF93FF938091DB
:1026E000E10082FF09C08091E20082FF05C0809175
:1026F000E1008B7F8093E1008091DA0080FF2AC0A7
:102700008091D80080FF26C08091DA008E7F809370
:10271000DA008091D90080FF18C080E189BD82E194
:1027200089BD09B400FEFDCF81E080931B0280913A
:102730000E0281110FC00E94E4120E9403138091C7
:10274000E20084608093E20005C019BC10921B0275
:1027500010920E028091E10080FF17C08091E2008C
:1027600080FF13C08091E2008E7F8093E200809111
:10277000E20080618093E2008091D80080628093C3
:10278000D80019BC85E080931B028091E10084FF92
:1027900030C08091E20084FF2CC080E189BD82E1DD
:1027A00089BD09B400FEFDCF8091D8008F7D809354
:1027B000D8008091E1008F7E8093E1008091E2005B
:1027C0008F7E8093E2008091E20081608093E2003E
:1027D00080911C02882311F084E007C08091E300FF
:1027E00087FD02C081E001C083E080931B028091DD
:1027F0001B028091E10083FF27C08091E20083FFEC
:1028000023C08091E100877F8093E10082E0809384
:102810001B0210921C028091E1008E7F8093E100E8
:102820008091E2008E7F8093E2008091E2008061DF
:102830008093E20042E060E080E00E94130F80910C
:10284000F00088608093F000FF91EF91BF91AF910D
:102850009F918F917F916F915F914F913F912F91B8
:102860000F900FBE0F901F9018952091E4003091AB
:10287000E50095E64091EC00842F817040FF23C075
:102880008091E80080FD1DC080911B02882399F093
:10289000853099F08091EB0085FD11C04091E400F6
:1028A0005091E5002417350729F3915011F09A0152
:1028B000E1CF84E0089582E0089583E0089581E007
:1028C000089580E008954091E80042FFDDCF08952B
:1028D00080E0089590915A0392FF10C041E0282FA4
:1028E0002471243009F040E031E0282F287128308D
:1028F00009F030E0431711F02CE0822793FF10C05D
:1029000041E0282F2471243109F040E031E0282FE4
:102910002871283109F030E0431711F02CE08227AC
:1029200030915B0330FF10C051E0282F217121301E
:1029300009F050E041E0282F2871283009F040E0EC
:10294000541711F029E0822731FF10C041E0282FF1
:102950002171213109F040E031E0282F2871283120
:1029600009F030E0431711F029E0822794FD877EBB
:1029700008958238910569F1B0F48133910509F425
:1029800075C048F48932910509F467C08A3291050F
:1029900009F471C008958533910509F459C089334C
:1029A0009105B9F00895833E910589F138F4803E90
:1029B0009105D1F0823E910529F10895863E910559
:1029C000C9F1873E9105D9F1843E910509F06CC0AB
:1029D00027C020915A0320FD57C021FD55C02091EA
:1029E0005B0323FD5BC0089580915A0380FD48C0BE
:1029F00080915B0380FF48C080915A0384FD46C0EC
:102A000083EE51C080915A0382FF3CC0F5CF809184
:102A10005A0382FD37C080915B0380FD35C0ECCF47
:102A200080915B0381FF36C080915A0384FD2EC0E4
:102A300087EE39C080915A0383FF2AC0F5CF809179
:102A40005A0383FD25C080915B0381FD23C0ECCF39
:102A500080915A0385FD22C01FC080915A0385FDD5
:102A60001BC080915B0383FF19C00AC080915A0389
:102A700086FD16C017C080915A0386FD13C010C092
:102A800089E311C082EE0FC080EE0DC080E00BC064
:102A900086EE09C084EE07C085E305C089E203C065
:102AA0008AE201C081E390E0089590915103809102
:102AB0005003892B909167029923E1F0892B909123
:102AC0002001992341F090915A0397FF04C09EE1A1
:102AD00020EA32E003C096E028E932E0F90120E084
:102AE000915028F031913323D9F32F5FF9CF211181
:102AF0001092670208952091650290912C0257E090
:102B00002917A9F030E0529FF001539FF00D1124D6
:102B1000E35DFD4F7181761306C07081781303C0A9
:102B20007581741306C02F5F3F4F2770E9CF80E097
:102B3000089581E008957E30B0F46630A0F48630C8
:102B4000A0F494E5899FF001112486E0789FE00DC0
:102B5000F11D1124E60FF11DEE0FFF1FE75FFC4F83
:102B600085919491089580E001C081E090E00895FE
:102B70001F93CF93DF930E94B914EC01C11580E538
:102B8000D807E8F5C11590E4D90708F0A8C0C03E01
:102B9000D10530F5CD3CD10508F094C0C83AD10537
:102BA00078F4C53AD10508F083C0C130D10509F4E5
:102BB0007CC008F4F2C0C430D10508F0F1C0EDC00B
:102BC000C33CD10508F0E9C0C85AD0E0CC0FDD1FE6
:102BD000C35BDE4F0990D881C02DCE019464E1C063
:102BE000C11580E2D80708F0CBC0C11591E0D90724
:102BF00008F06BC0C83ED10508F4D2C0CEC0C036C4
:102C000082E5D80728F5C03492E5D90708F079C0E5
:102C1000C03282E5D80708F06CC0C11592E5D9072B
:102C200008F481C04C2F4695469580E2489FA0014C
:102C30001124C37021E030E0C90102C0880F991F40
:102C4000CA95E2F7EA01C82BD92BCE019D68A9C02D
:102C5000C03A82E5D807B8F48C2F8F71C03892E55E
:102C6000D90708F07BC08695869590E2899F9001F0
:102C70001124C37081E090E002C0880F991FCA95AB
:102C8000E2F79A6868C0C03C82E5D80708F46DC0D6
:102C9000C03E92E5D90708F080C0CF71DD27DC2F58
:102CA000CC27CE01806F906A7CC081E090E079C033
:102CB000C55AD0E0C65BDE4F8881C82FD0E0CE0178
:102CC00090646FC0CE0190656CC08D2F0E946A1415
:102CD000182FCE0199270E94B9141F715CC0CE0134
:102CE00099270E94B914CC27DF70D06A8C2B9D2BBA
:102CF00058C0CF71D0E0DC2FCC27CE01816F906A15
:102D000050C08C2F8F718695869590E2899F900197
:102D10001124C37081E090E002C0880F991FCA950A
:102D2000E2F79C6818C08C2F8F710E946A1495E09E
:102D3000D695C7959A95E1F7CF70D0E0DC2FCC27D8
:102D4000282F30E084FF05C084E0220F331F8A95CE
:102D5000E1F7D069CE01822B932B23C090E0D82FCE
:102D6000CC27CE01846F906A1CC08C2F8F710E947B
:102D70006A148F7190E0D82FCC27CE01906211C0D9
:102D80008D2F8F710E946A14182FCE0199270E94EF
:102D9000B9141F719062912B04C080E090E001C0D3
:102DA000CE01DF91CF911F910895809590915103AD
:102DB000892380935103089580912001882351F144
:102DC00080915A0387FF26C00E94551580939F0269
:102DD00040E250E068E672E08EE992E00E94352A17
:102DE000892BD9F180E2EEE9F2E0A8E6B2E00190A9
:102DF0000D928A95E1F7E0915603F09157033097D1
:102E000061F186E080939E020480F581E02D8EE9D9
:102E100092E022C00E9455158093960248E050E04F
:102E200068E872E086E992E00E94352A892BA9F0D1
:102E300088E0E6E9F2E0A8E8B2E001900D928A9518
:102E4000E1F7E0915603F0915703309731F002809B
:102E5000F381E02D86E992E009950895909166024C
:102E60008095892380936602282F277069F498172C
:102E700059F090915B0392FF07C0869586958695E1
:102E80000E94432510926602089590915B0392FB85
:102E9000222720F9281779F080FB92F990935B03A1
:102EA00060915A0370915B0384E090E00E943529A1
:102EB00082E00E942E1708958091650290912C0265
:102EC000891719F08F5F8770FBCF0895CF93DF9339
:102ED00080912B0282958F7009F04EC080912A025A
:102EE000882309F449C08091650240912C025091D9
:102EF000260260912502C0912702D091280277E036
:102F00008417D1F190E0789FF001799FF00D1124A2
:102F1000DF01A35DBD4F14962C911497222349F134
:102F200011962C911197251324C02C91261321C0A2
:102F300015962C91159721111CC012962D913C913C
:102F400013972C1B3D0B283C310598F480912B02E4
:102F50008F70806180932B02ED5CFD4F80818F70BC
:102F60008061808385E292E00E949E040E945C174B
:102F700003C001968770C4CFDF91CF910895A4E17B
:102F8000B0E0E5ECF7E10C9466288C0186E0F801EE
:102F9000DE011F9601900D928A95E1F7F801848178
:102FA000E58095E2892E92E0992E90912902911167
:102FB00020C0882309F463C1EE2009F442C0C8018F
:102FC0000E945F25F82E8823E1F187E0F801D40103
:102FD00001900D928A95E1F780912902813031F4B8
:102FE00080912502909126020E94C3240E946617B8
:102FF00048C1F801D080C180A280B380F0902A023D
:103000002091270230912802FF2009F4E7C0A50192
:10301000421B530B483C510508F09DC0882309F41E
:1030200030C180912B02282F207F909126022223ED
:1030300061F09C1509F460C0C8010E945F258111F0
:1030400063C0C8010E949E041AC19C1113C09091D4
:1030500025029D110FC0E1100DC08F70806180931B
:103060002B0285E292E00E949E0480912B02F801DF
:10307000868303C1E1103AC040E06C2D8D2D0E9483
:103080007B1540E06C2D8D2D0E947B15E82E811163
:10309000F4C0DF86C88A8F8598890E94C324292FAF
:1030A00022952F70243020F49F70223028F009C020
:1030B0002A50223080F014C0992349F0811107C0B2
:1030C00013C0992321F0F8019681907F69F0805E0A
:1030D000883030F409C0803F38F0815F833020F0C1
:1030E000C8010E949E04EF2CFE2CCBC080912B02C5
:1030F000816080932B02C1C0909125029D119CCFCD
:10310000E1109ACFF80198C0EE2009F49ACF2091EF
:103110002B02822F82958F7090E002978CF0809125
:1031200025029091260299878887BB86AA8680917E
:1031300029028C871D862E87CE0108960E949E0448
:1031400087E0F801A5E2B2E001900D928A95E1F7DF
:103150000E94661794C090912B02292F207F51F472
:1031600085E292E00E949E0487E0F40111928A9524
:10317000E9F783C0882309F484C0809126028C116A
:103180000CC0809125028D1108C0E11006C0F80125
:103190009683C8010E949E046AC0C8010E945F25F0
:1031A000882309F44ECFEE2009F44BCF20912B0257
:1031B000822F82958F7090E0029714F28091250201
:1031C000909126029A838983BC82AB8280912902E6
:1031D0008D831E822F83CE010196B0CFA21AB30A2F
:1031E000F8ECAF16B10408F042C0882309F447C0D8
:1031F000FE2CEE2009F425CF809126028C1129C0E7
:10320000809125028D1125C090912B0290FD18C050
:10321000892F82958F70282F30E02115310581F09C
:10322000F80196832F30310541F08F5F982F9295EA
:10323000907F86818F70892B8683C8010E949E04AF
:1032400087E0F801A5E2B2E001900D928A95E1F7DE
:1032500018C0C8010E945F25811172CF80912B0296
:10326000816080932B02C8010E949E040AC087E0FF
:10327000F40111928A95E9F704C0F12C02C0FF24F1
:10328000F3948F2D6496ECE00C948228A6E0B0E0D5
:10329000ECE4F9E10C946E280E94371D8C018091BA
:1032A0009002909191020817190781F019821A82F1
:1032B0000E94371D682F49815A81792F80E090E064
:1032C0000E948B1F10939102009390022696E4E0D7
:1032D0000C948A28EF92FF920F931F93CF93DF9362
:1032E00080910E0190910F01892BD9F0809192026B
:1032F0008F5F80939202811114C00E94B02190E0F0
:1033000090930F0180930E01892B59F42FEF83ECDA
:1033100099E0215080409040E1F700C000000E94F9
:10332000C51C04ED11E0C0E0D0E087E0E82EED0E12
:103330008D2F0E94D9208E2D0E94D9208D2F0E9482
:103340003A218F73F8019081891721F08083FF243F
:10335000F39401C0F12C8E2D0E943A218F73F80155
:103360009781891719F0878381E001C080E0F82AEE
:10337000CF290E942521DF5F0F5F1F4FD730A9F6AD
:10338000CC2359F081E0809395020E94371D9093E1
:10339000940280939302C0E022C08091950288231A
:1033A000F1F080919302909194020E94281D44971D
:1033B000B0F04EE050E064ED71E08BEE91E00E94E1
:1033C000352A892B51F08EE0E4EDF1E0ABEEB1E06F
:1033D00001900D928A95E1F7C1E0109295028C2F31
:1033E000CDB7DEB7E6E00C948828809110020895EE
:1033F000579A08950895A0E0B0E0E1E0FAE10C9456
:103400006528FC018280748081E08483E9EFF6E026
:103410009490E8E7F7E0E49100914B03069501589A
:1034200010E0000F111F012F1127CDEFD2E021EC8A
:10343000C22E22E0D22EAA24AA94B12CE919EE2E93
:10344000F12C22E0281530F0809149038883809187
:103450004A038983711003C01B821A824AC08B8180
:103460008823F9F081508B832FEF829FC0011124B4
:103470006C8170E00E944C28FB01FF27E750F94F58
:103480008491E82FE9192FEFE29FC0011124B701C1
:103490000E944C2880914B03689FB00111247A83CD
:1034A00028C00E94E328B5010E94C829801791070F
:1034B00004F582E0881588F40E94E328B5010E9493
:1034C000C82988830E94E32820914A032695622F09
:1034D00070E00E94C829280F29831A8280914B032B
:1034E000843120F0893C18F088EC01C084E18C83A1
:1034F0008B8396014A81698188810E94A722259643
:1035000024E0C20ED11C83E0C834D80709F099CF5B
:103510000E94F521CDB7DEB7EDE00C948128EF9243
:10352000FF920F931F93CF93DF938C01C1ECD2E0F6
:10353000E12CF12CF8018481F7E0EF16F1041CF482
:10354000882339F002C0811104C09E0140914B03D1
:1035500002C09E0140E060914A03809149030E94AD
:10356000A7228FEFE81AF80A24969FE0E916F104E3
:1035700009F70E94F521F801848190E0019681709D
:1035800099278483CDB7DEB7E6E00C948828A0E0C5
:10359000B0E0EDECFAE10C946628EC014C81042FCC
:1035A00010E09801D8010E949F299B01AC010E9464
:1035B0006A296B017C01E0E2F0E0E01BF10BA5E57C
:1035C000B0E09B01AC010E946A294B015C019F01A4
:1035D000DF010E94E2299B01AC010E9475299B0139
:1035E000AC012C0D3D1D4E1D5F1DC501B4010E9497
:1035F0007D29822FF22E99E2921728F093E0299FDD
:10360000900111240DC025E530E0281B3109C901C6
:10361000880F991F280F391F37FF02C02F5F3F4FB8
:1036200035952795122F109591ECC92E92E0D92E41
:1036300000E085E5E82EEF1801FD02C08E2D01C0E7
:103640008F2D9601412F60914A030E94A7220F5FA0
:1036500084E0C80ED11C0F3079F70E94F5218C81CF
:10366000811102C091E003C0803219F49FEF909362
:10367000230190912301890F8C83CDB7DEB7ECE055
:103680000C9482280F931F93CF93DF93C1ECD2E069
:10369000FE011182108212821382349682E0ED3F85
:1036A000F807B9F700E010E08091BF02082E000C87
:1036B000990B0817190794F080912201082E000C2D
:1036C000990B8017910754F09E0140914B03609134
:1036D0004A03809149030E94A72204C019821882DC
:1036E0001A821B820F5F1F4F24960F301105E1F6DF
:1036F0000E94F521809121019091BF02980F909333
:10370000BF0220912201280F20932201121614F4E7
:103710009E301CF0819580932101DF91CF911F9104
:103720000F910895A0E0B0E0E8E9FBE10C9469286E
:10373000FC01828180FF03C0DD24DA9402C0DD2415
:10374000D39401EC12E0C0E0D0E02FE0B22EF801FB
:10375000118210821282138294E0E92EF12CC12C86
:103760008091BE028C0D80312CF06B2D0E94BA2905
:10377000892F02C087FD815F082E000C990BC817A6
:10378000D90791F480914B038E9DA0018F9D500D20
:1037900011245595479555954795980160914A0391
:1037A000809149030E94A722CD0CF1E0EF1AF108A5
:1037B000B9F621960C5F1F4FCF30D10541F60E941C
:1037C000F5218091BE0291E0D91206C0811102C09C
:1037D0008EE007C0815005C090E00196BE010E94B6
:1037E000C8298093BE02CDB7DEB7E9E00C948528E6
:1037F000EF92FF921F93CF93DF93EC0181ECE82EC1
:1038000082E0F82E10E08C81970140914B0360918B
:103810004A03810F0E94A7221F5E84E0E80EF11C7C
:103820001F3F89F70E94F5219A818C8190FF02C089
:103830008F5F01C081508C83DF91CF911F91FF90EA
:10384000EF900895A4E0B0E0E8E2FCE10C946E286B
:103850008C018091C00281110AC09E012F5F3F4FF1
:103860004FEF6FEF0E94A7228A818093C002F80178
:103870008481813051F028F0823061F44091C0029F
:103880000AC08091C00240E007C06091C00240E0E1
:1038900080E003C040E080E060E00E942722F80161
:1038A000848190E0019663E070E00E94C8298483DF
:1038B0002496E4E00C948A28CF93DF93EC01E8E4AB
:1038C000F3E0438162818C810E9434238C818F5F7D
:1038D0008C83DF91CF910895CF93DF93EC01EC813E
:1038E000F0E0E750F94F4491E8E4F3E06281818130
:1038F0000E9434238C818F5F8C83DF91CF91089558
:103900000F931F93CF93DF938B01EA0190911B02DA
:103910009430A9F58F708093E9008FEF9091E800C3
:10392000815095FD06C095ED9A95F1F70000811143
:10393000F5CF8091E80085FF22C00E9435148111E7
:1039400015C0209789F08091E80085FD06C0809120
:10395000E8008E778093E800F0CFF80181918F0125
:103960008093F1002197EDCF90E001C0982F8091D6
:10397000E8008E778093E80081E0911101C080E03B
:10398000DF91CF911F910F9108959AE088E10FB6D2
:10399000F894A895809360000FBE90936000FFCFCD
:1039A000F89481E08093E00080E28093D800E9EC15
:1039B000F0E010828FE19EE40197F1F700C0000073
:1039C0001DBA109268001CBC10BE1FBA10927A007B
:1039D00010926E0010926F0010927100109272009F
:1039E0001082ECEBF0E0108214B817B81AB81DB8CA
:1039F00010BA108215B818B81BB81EB811BA0C94BA
:103A0000003F089578941F920F920FB60F921124E1
:103A10008F939F93AF93BF9380915D0390915E03CB
:103A2000A0915F03B09160030196A11DB11D809329
:103A30005D0390935E03A0935F03B0936003BF9117
:103A4000AF919F918F910F900FBE0F901F9018957F
:103A50009C014FB7F89480915D0390915E03A09113
:103A60005F03B09160034FBF821B930B08952FB784
:103A7000F89480915D0390915E03A0915F03B091F3
:103A800060032FBF08951F920F920FB60F9211245B
:103A90008F939F93AF93BF9380915C03811113C069
:103AA00080915D0390915E03A0915F03B0916003EC
:103AB0004196A11DB11D80935D0390935E03A09379
:103AC0005F03B0936003BF91AF919F918F910F906F
:103AD0000FBE0F901F90189590912001992321F00F
:103AE00090915A0397FD03C0E6E9F2E01DC0E82F6C
:103AF000E695E695E695EE31E0F4F0E0E256FD4F0E
:103B0000877021E030E0A90102C0440F551F8A955B
:103B1000E2F7CA01809592818923828308953196C4
:103B200052E0EC39F50729F092818913F8CF12821F
:103B3000F6CF0895909120019923D1F090915A03E6
:103B400097FF16C0E82FE695E695E695EE3140F52D
:103B5000F0E0E256FD4F877021E030E0A90102C09D
:103B6000440F551F8A95E2F7CA019281892B16C02E
:103B7000A8E9B2E0EFEF90E02D91821789F0EF3FD6
:103B800019F4211101C0E92F9F5F9630A9F7EF3F8B
:103B900039F00E2E000CFF0BEA56FD4F828308957C
:103BA0000895A3E0B0E0E7EDFDE10C9470282091CA
:103BB00058033091590328173907A1F090935903FE
:103BC00080935803E0915603F0915703309751F0DA
:103BD00024E029839B838A830084F185E02DCE0134
:103BE000019609952396E2E00C948C28A3E0B0E0BE
:103BF000ECEFFDE10C9470282091540330915503B3
:103C000028173907A1F09093550380935403E0914E
:103C10005603F0915703309751F023E029839B839B
:103C20008A830084F185E02DCE01019609952396C3
:103C3000E2E00C948C28E0915603F0915703309702
:103C400029F00190F081E02D0995089580E0089514
:103C50004115510511F0FA0109950895CF93DF93AD
:103C6000EC014A855B856E857F850E94281E8B81CD
:103C70008095909150038923809350038C810E94FA
:103C8000D5160E94DC1686E0FE0111928A95E9F7AE
:103C9000DF91CF910895CF93DF93EC018D8181FD6A
:103CA00017C082608D83909150038B81892B809304
:103CB0005003909151038C81892B809351030E9472
:103CC000DC16488559856E857F85CE010E94281EA9
:103CD00010925303109252038D8180FD03C0CE01D8
:103CE0000E942E1EDF91CF9108959091480390FF7E
:103CF00005C096959695981748F003C0811106C0A7
:103D000090E0961718F40E94882408950E946F246A
:103D10000895882311F0FA0101C0FB010995089567
:103D2000982F92959F7019F0892F24E001C020E010
:103D3000982F9695969511F02E5F892F982F96952E
:103D400009F02F5F822F089590E0FC01E956FE4FA5
:103D5000208121111AC0F894FC01E757FE4F8081A1
:103D6000E82FE295EF70F0E031A1282F2F7081E06D
:103D700090E001C0880F2A95EAF7982F9095932339
:103D800091A392A1892B82A3789408958FE39CE953
:103D90000197F1F700C0000080916703843019F4A7
:103DA00085E00E944325109267030895FC019281EB
:103DB000913039F4858182FD12C080FF10C092E0FD
:103DC0000EC0923039F4858182FD06C080FD06C0A8
:103DD00093E005C096E003C095E001C094E09093A5
:103DE0006703943019F485E00E9450250895A0E0FF
:103DF000B0E0EDEFFEE10C9468286C019B01ADB6DC
:103E0000BEB68B01000F111F000F111F8DB79EB79B
:103E1000801B910B0FB6F8949EBF0FBE8DBF6DB780
:103E20007EB76F5F7F4F7601FB01D60180E090E0A7
:103E30008217930791F04C91408311964C91119702
:103E4000418312964C911297428313964C9113978B
:103E50004383019614963496EBCF2AE030E0A80114
:103E600084E80E941A278BB18F779BB190682FB797
:103E7000F8940C0D1D1DE016F10699F0F701319133
:103E80007F0148E09BB9000000C037FF8BB9330FBA
:103E9000000000C000C000C08BB900C04A9591F777
:103EA000EACF2FBF8FE594E00197F1F700C0000043
:103EB0000FB6F894BEBE0FBEADBEEAE00C948428E7
:103EC000A6E0B0E0E6E6FFE10C946F2826E0FC01F6
:103ED000DE01119601900D922A95E1F7FC012581F2
:103EE00089819A81222359F0662349F00E94942403
:103EF000182F682F89819A810E94042503C00E948F
:103F0000D024182F69817A81812F0E949B152696D3
:103F1000E3E00C948B28A4E3B0E0E1E9FFE10C942A
:103F20006F284FA758AB69AB7AAB8BAB9CAB9111A9
:103F300010925003CE01889627E0DC011D922A954D
:103F4000E9F726E0FE01BF96DC0101900D922A956B
:103F5000E1F72CA52223E1F061E00E94601F80912F
:103F60000B028823A9F08DA5811102C087E001C052
:103F700086E0898388A58A8389A58B838EEF8C83CD
:103F800040E250E0BE016F5F7F4F82E00E94801CE4
:103F900087E0FE01B896DE01919601900D928A9518
:103FA000E1F7CE0181960E94BF1781112CC087E0F6
:103FB000FE01B196DE01119601900D928A95E1F70E
:103FC0006DA1662301F120912C0230E0C901019618
:103FD000877099274091650250E08417950761F139
:103FE0006D8397E0929FD001939FB00D1124A35D44
:103FF000BD4FFE01319601900D929A95E1F78093A5
:104000002C020E945C1717E08091650290912C02AF
:104010008917F9F0189FC0011124835D9D4F0E94FC
:10402000BF178823B1F08091650290E001968770F8
:10403000992780936502E8CF0E94822510922C0276
:1040400010926502E5E2F2E087E0DF011D928A95B9
:10405000E9F7E496E3E00C948B288091650390E007
:1040600090938D0080938C0008958091640390E07C
:1040700090938B0080938A0008958091630390E071
:1040800090938900809388000895CF93C82F0E9451
:10409000901E5E98109289001092880010928B00FA
:1040A00010928A0010928D0010928C0090E0FC011A
:1040B0003197E730F105A8F4ED55FF4F0C94DC295A
:1040C0000E943D200EC00E943D200E94352009C064
:1040D0000E943D2004C00E943D200E9435200E9485
:1040E0002D208C2FCF910895CF93C82F80936303F9
:1040F000811105C0109289001092880002C00E94B0
:104100003D20C0936403C11105C010928B00109232
:104110008A0002C00E943520C0936503C11105C00A
:1041200010928D0010928C0002C00E942D20CF9121
:104130000895A0E2B0E0EFE9F0E20C9470289091CD
:104140000B029923E9F00E94901E90916203891757
:10415000B9F0809362038FE39CE90197F1F700C007
:10416000000085E08983809162038A838EEF8B83D0
:1041700040E250E0BE016F5F7F4F82E00E94801CF2
:10418000A096E2E00C948C28A0E2B0E0EAECF0E229
:104190000C9470289FEF99838A8340E250E0BE011F
:1041A0006F5F7F4F82E00E94801CA096E2E00C943B
:1041B0008C28A1E0B0E0EFEDF0E20C946E2887309F
:1041C000F8F420910E0130910F01232BD1F521E05D
:1041D00030E0A90102C0440F551F8A95E2F7CA01D9
:1041E000809589830AE010E0AE014F5F5F4F62E186
:1041F00080E40E94652790930F0180930E0121C0F7
:1042000090E0FC01E956FE4F208121111AC0F8947C
:10421000FC01E757FE4F8081E82FE295EF70F0E058
:1042200031A1282F2F7081E090E001C0880F2A95DE
:10423000EAF7932F982B91A392A18095892382A3CB
:1042400078942196E4E00C948A280F931F93CF93DF
:104250000EE911E0C7E0F80181918F01811103C0DF
:104260008C2F0E94A41ECF5FCE30A9F7CF911F9153
:104270000F910895A1E0B0E0E0E4F1E20C946E2823
:10428000082F8730C8F480910E0190910F01892B7F
:10429000E9F519820AE010E021E030E0AE014F5F5D
:1042A0005F4F63E180E40E94B32790930F018093F6
:1042B0000E01898180952BC00E94D920A3E8B1E02E
:1042C00020E030E010E051E04D91E42FE295EF70F6
:1042D000F0E080A190E04F7002C0959587954A95D7
:1042E000E2F780FD07C0852F022E01C0880F0A94D7
:1042F000EAF701C080E0182B2F5F3F4F26303105D1
:1043000019F7802F0E94A41E812F01C080E0219602
:10431000E4E00C948A28CF93DF93A3E8B1E049E866
:1043200051E061E070E0F8948D91E82FE295EF7034
:10433000F0E021A18F70EB0102C0CC0FDD1F8A9548
:10434000E2F7CE019C2F9095922391A392A1892B05
:1043500082A378944A175B0731F7DF91CF910895D4
:10436000A2E0B0E0E6EBF1E20C946E2880E290E08F
:1043700090930F0180930E018091610381110EC013
:104380000E949D2681E0809361032FEF83ED90E3EF
:10439000215080409040E1F700C0000019828FE377
:1043A0008A830AE010E022E030E0AE014F5F5F4F09
:1043B00060E080E40E94652790930F0180930E01D6
:1043C000892B69F422E030E0AE014F5F5F4F6CE073
:1043D00080E40E94652790930F0180930E018091E5
:1043E0000E012296E4E00C948A288091480380FF15
:1043F00005C0E1ECF2E04DEF52E00DC0E1ECF2E07F
:104400008DEF92E0118210821282138234968E1701
:104410009F07C1F7EECF928120813181892F291723
:1044200008F4822F381708F4832F8383381B3183D5
:10443000281B2083981B928334964E175F0759F7E9
:104440006FE070E081EC92E00E94F71E0895909179
:10445000480390FF0DC0E1ECF2E08183608342836A
:104460001382349692E0ED3FF907B9F70E94F521E7
:10447000089580914803282F2695269530E0211530
:10448000310519F48370846005C02B32310524F0A6
:104490008370886A809348030895A0E0B0E0E3E564
:1044A000F2E20C94662849015A016B017C010E94DA
:1044B00039228401A4016A2D7B2D88E090E00E94BE
:1044C000292994014A2D5B2DB601C70100E20E9403
:1044D0000C2A622F83E290E00E941729CDB7DEB745
:1044E000ECE00C94822880914C03882319F08150D1
:1044F00080934C03209148033091490340914A0333
:1045000050914B0360914C0370914D0380914E0389
:1045100090914F030E944D22089580914C03833067
:1045200018F48F5F80934C03209148033091490326
:1045300040914A0350914B0360914C0370914D039D
:1045400080914E0390914F030E944D220895A0E068
:10455000B0E0EDEAF2E20C946828E82EF62EE901CC
:10456000E42FF0E0611106C0E750F84FE4914E2FC0
:104570002E2F71C0062F10E0E750F84F4491F42F12
:10458000C42ED12C26E0829FC00111242FEF30E0F1
:10459000B9010E944C285BEA5603C001579F900D59
:1045A00011248E0D911D8E0D911D582F550F580FF2
:1045B000D901A01BB10BAC9DC001AD9D900DBC9D60
:1045C000900D1124E92FF59ED0011124AB2FBB27AC
:1045D0007901EA1AFB0AEC9CD001ED9CB00DFC9C21
:1045E000B00D11245901A51AB108A09E7001A19E19
:1045F000F00CB09EF00C1124EF2CFF242E193F0973
:104600002C9D80012D9D100D3C9D100D1124212FFE
:104610006230710591F048F461157105E1F0613087
:104620007105B9F4242F4B2F16C06430710569F061
:1046300040F06630710579F00CC0242F492FE12F2E
:104640000AC0492FEF2F2B2F06C0292FE42F412F0F
:1046500002C0292FEB2F49832883EA831B82CDB721
:10466000DEB7EAE00C948428A4E0B0E0EAE3F3E2E9
:104670000C9470289091480390FF0AC09E012F5F10
:104680003F4F0E94A7224B8169818A810E94272285
:104690002496E2E00C948C28A4E0B0E0E2E5F3E29A
:1046A0000C946328F82E762EE42E622E9091480307
:1046B00090FF6DC0E92FE695E695AE2FB0E0AB55C3
:1046C000BE4F8C9180936E039C7F943061F49E0169
:1046D0002F5F3F4F8F2D0E94A7224B8169818A81D6
:1046E0000E9427223DC0823019F4E0904B0338C06D
:1046F000863019F4F090490333C08930D9F38931F9
:1047000079F5E9518E2F8170582EE695F0E0E7504B
:10471000F74FE4910E2F10E081ECC82E82E0D82EE6
:10472000A12CB12C9FE0892E912CC501B4010E94CF
:104730004C288F2D511002C0860F01C0861B960198
:104740004E2D672D0E94A722A00EB11E84E0C80E38
:10475000D11C8DEFC81682E0D80639F70E94F521EA
:10476000F092490370924A03E0924B03662079F07D
:104770002091480360914C0370914D033F2D472DCC
:104780005E2D80914E0390914F030E944D222496FE
:10479000EFE00C947F28E8E4F3E043812CE0421B37
:1047A00008F440E021E0628181810E944C23089559
:1047B000E8E4F3E043812CE0420F08F44FEF21E0FE
:1047C000628181810E944C230895E8E4F3E06281D4
:1047D0002FEF621B08F460E021E0438181810E9499
:1047E0004C230895E8E4F3E062812FEF620F08F4B0
:1047F0006FEF21E0438181810E944C230895E8E41A
:10480000F3E0818121E0438162818C500E944C233E
:104810000895E8E4F3E0818121E043816281845FCF
:104820000E944C230895609148036695669570E058
:104830004BE050E084E291E00E94282A892B19F491
:1048400081E080936F030E94371D909369038093EA
:10485000680308959091480390FF40C093708111C0
:1048600002C0946007C08B3210F0986A03C0880FB2
:10487000880F982B90934803662391F0209148036A
:104880003091490340914A0350914B0360914C038E
:1048900070914D0380914E0390914F030E944D22E1
:1048A000609148036695669570E04BE050E084E2C5
:1048B00091E00E94282A892B19F010926F0302C000
:1048C0000E94132481E080936B0320E040914B030E
:1048D00060914A03809149030E944C23089561E04E
:1048E0000E942A240895E8E4F3E0808181608083B7
:1048F000869586950E946F24089580914803869539
:104900008695815009F48AE261E00E942A24089584
:1049100080914803869586958F5F8B3208F081E001
:1049200061E00E942A240895CF92DF92FF920F93B4
:104930001F93CF93DF936C010091E4018091E2011A
:10494000082BC7E0D0E010E0C8010C2E02C09595FE
:1049500087950A94E2F780FD04C02197A8F7F12C0F
:1049600009C0FC2EB6018C2F0E949B150E94B81521
:10497000019799F38F2DDF91CF911F910F91FF90A8
:10498000DF90CF900895CF93DF93EC010E949424A1
:10499000BE010E949B150E94B815DF91CF9108952A
:1049A000292F9E3078F5863068F590E036E0239F19
:1049B000800D911D1124682F677023E096958795CF
:1049C0002A95E1F7FC01EE0FFF1FE80FF91FE059F0
:1049D000FC4F40E050E080E0219130E0062E02C024
:1049E000369527950A94E2F721703327042E01C0EB
:1049F000220F0A94EAF7822B4F5F5F4F4330510535
:104A000059F7089580E00895292F9E3088F5863063
:104A100078F590E036E0239F800D911D1124282F1A
:104A2000277051E001C0550F2A95EAF723E09695CB
:104A300087952A95E1F7FC01EE0FFF1FE80FF91F9C
:104A4000E059FC4F20E030E070E04081CB01022EC5
:104A500002C0969587950A94E2F781708195842724
:104A60008523842781932F5F3F4F2330310569F7DA
:104A70000895CF930E944520C82F0E949920C0938B
:104A8000E401CF91089521E030E001C0220F8A9522
:104A9000EAF720958091E40182230E943925089548
:104AA00021E030E001C0220F8A95EAF78091E4010D
:104AB000822B0E94392508958093E2010895FC011C
:104AC00024812223D9F0808191810E94C324929570
:104AD0009F70963079F010F4925001C09A50923045
:104AE00068F4803F69F018F4883E40F409C0843FC0
:104AF00029F406C0883E20F0813F11F080E008953F
:104B000081E008951092510380912001882341F0A3
:104B100080915A0387FF04C08EE1E0EAF2E003C00F
:104B200086E0E8E9F2E0DF011D928A95E9F780E08E
:104B300090E00E94F61D80E090E00E94D11D10924E
:104B400050030E94DC160895882321F00E94D51698
:104B50000E94DC160895882339F090915103892B27
:104B6000809351030E94DC160895882339F19CEF4D
:104B7000980F913A18F40E946C1D0DC090E2980FA6
:104B8000983060F4877091E001C0990F8A95EAF738
:104B9000892F0E94D5160E94DC1608959BE5980F78
:104BA000933028F480E090E00E94F61D0895885A22
:104BB0008B3120F480E090E00E94D11D0895CF93C6
:104BC000882309F465C0C82F8CEF8C0F813AA0F5BB
:104BD000809120018823E1F080915A0387FF18C05B
:104BE000EC2FE695E695E695F0E0E256FD4F8281E2
:104BF000282F30E04C2F477081E090E002C0880FF2
:104C0000991F4A95E2F782239323892B61F410C000
:104C1000E8E9F2E08EE992E02191C21721F08E17C7
:104C20009F07D1F705C08C2F0E946C1D0E94DC16D7
:104C30008C2F0E949A1D10C080E28C0F883078F46F
:104C4000C77081E090E001C0880FCA95EAF79091A3
:104C50005103892B809351030E94DC1619C0EBE5A8
:104C6000EC0FE33040F4F0E0E65BFE4F808190E033
:104C70000E94F61D0DC0C85ACB3150F4EC2FF0E065
:104C8000EE0FFF1FE35BFE4F808191810E94D11DDB
:104C9000CF910895EF92FF920F931F93CF93DF93DD
:104CA000182FEB011092BC0084EA8093BC000E9494
:104CB000371D7C018091BC0087FD0DC0CF3F8FEF79
:104CC000D807C1F3C7010E94281DC817D90790F75C
:104CD0008EEF9FEF2DC08091B900887F883041F022
:104CE0008091B900887F803119F08FEF9FEF20C04D
:104CF0001093BB0084E88093BC000E94371D8C0198
:104D00008091BC0087FD0BC0CF3F8FEFD807C1F368
:104D1000C8010E94281DC817D90790F7D9CF8091E4
:104D2000B900887F883111F08034F9F680E090E096
:104D3000CDB7DEB7E6E00C9488281092B9008CE07D
:104D40008093B80008950F931F93CF93DF93EB01E7
:104D50008093BB0084E88093BC000E94371D8C01C7
:104D60008091BC0087FD0DC0CF3F8FEFD807C1F306
:104D7000C8010E94281DC817D90790F78EEF9FEF32
:104D80000CC02091B900287F81E090E0283211F416
:104D900080E090E0919581959109DF91CF911F91ED
:104DA0000F9108950F931F93CF93DF93EC0184EC41
:104DB0008093BC000E94371D8C018091BC0087FD50
:104DC0000DC0CF3F8FEFD807C1F3C8010E94281D47
:104DD000C817D90790F78EEF9FEF03C08091BB00F3
:104DE00090E0DF91CF911F910F9108950F931F9342
:104DF000CF93DF93EC0184E88093BC000E94371DC1
:104E00008C018091BC0087FD0DC0CF3F8FEFD8078C
:104E1000C1F3C8010E94281DC817D90790F78EEF6B
:104E20009FEF03C08091BB0090E0DF91CF911F9175
:104E30000F910895A0E0B0E0E0E2F7E20C9465285D
:104E4000782EB62EA72E6A0189010E94371D4C01CB
:104E50000431110558F00F3F8FEF180751F0C801CA
:104E600064E170E00E944C28EB0105C0C1E0D0E095
:104E700002C0C5E0D0E0BE01872D0E944A267C0119
:104E800097FD05C0CB2DDA2DCC0EDD1E12C00F3FD5
:104E90008FEF180781F3C4010E94281D0817190716
:104EA00050F7F0CFF7FC08C0B80189910E94A32603
:104EB0007C01CC15DD05B1F784E98093BC00C70106
:104EC000CDB7DEB7EDE00C948128A0E0B0E0EBE6D2
:104ED000F7E20C946428682E762E5A0169010E942C
:104EE000371D4C010431110558F00F3F8FEF1807A3
:104EF00051F0C80164E170E00E944C28EB0105C04C
:104F0000C1E0D0E002C0C5E0D0E0BE01862D0E9425
:104F10004A267C0197FF0BC00F3F8FEF1807A9F3BC
:104F2000C4010E94281D0817190778F713C0B8019B
:104F3000872D0E94A3267C01E501CA0CDB1CCC1541
:104F4000DD0541F0F7FC06C0B80189910E94A32657
:104F50007C01F5CF84E98093BC00C701CDB7DEB7F3
:104F6000EEE00C948028A0E0B0E0E9EBF7E20C94CE
:104F70006428782E662E7A01E9010E94371D5C01B3
:104F80000431110558F00F3F8FEF180759F0C80191
:104F900064E170E00E944C286B0107C0CC24C394EC
:104FA000D12C03C025E0C22ED12CB601872D0E9442
:104FB0004A264C0197FF0BC00F3FEFEF1E07A9F3E6
:104FC000C5010E94281D0817190778F72BC0B801E2
:104FD000862D0E94A3264C0197FD24C0F72DF16079
:104FE0007F2E0E94371D5C010431110528F10F3F0F
:104FF0008FEF180729F1C80164E170E00E944C2886
:105000006B01B601872D0E944A264C0197FD1CC0FA
:1050100067012197C6018E199F098C179D0758F5C6
:1050200097FE1DC084E98093BC00C40118161906C0
:1050300074F580E090E02BC0CC24C394D12CE1CF58
:1050400085E0C82ED12CDDCF0F3FEFEF1E07C9F250
:10505000C5010E94281D0817190798F6D9CFC80165
:105060000E94D2264C0197FD02C0F6018083FFEF1B
:10507000CF1ADF0ACFCF97FCD5CFC8010E94F62602
:105080004C0197FDCFCFCE0DDF1D8883CBCFCDB7A1
:10509000DEB7EEE00C948028AA1BBB1B51E107C0D1
:1050A000AA1FBB1FA617B70710F0A61BB70B881FB8
:1050B000991F5A95A9F780959095BC01CD01089547
:1050C0002F923F924F925F926F927F928F929F9218
:1050D000AF92BF92CF92DF92EF92FF920F931F9306
:1050E000CF93DF93CDB7DEB7CA1BDB0B0FB6F894B7
:1050F000DEBF0FBECDBF09942A88398848885F84F7
:105100006E847D848C849B84AA84B984C884DF8067
:10511000EE80FD800C811B81AA81B981CE0FD11D4B
:105120000FB6F894DEBF0FBECDBFED0108958F928C
:105130009F92AF92BF92CF92DF92EF92FF92CF9366
:10514000DF93EC01688179818A819B81611571050A
:105150008105910521F464E279ED8BE597E02DE17D
:1051600033EF41E050E00E944B2949015A019B0175
:10517000AC01A7EAB1E40E946A296B017C01ACEEA4
:10518000B4EFA50194010E947829DC01CB018C0DBC
:105190009D1DAE1DBF1DB7FF03C00197A109B048FB
:1051A00088839983AA83BB839F77DF91CF91FF90F8
:1051B000EF90DF90CF90BF90AF909F908F90089529
:1051C0000E949728089580E091E00E949728089512
:1051D000A0E0B0E08093000190930101A093020150
:1051E000B09303010895F999FECF92BD81BDF89A5D
:1051F000992780B50895A6E1B0E044E050E00C9412
:105200003D29A8E1B0E042E050E00C943D29DC01EA
:10521000A40FB51F4150504048F0CB01840F951F9B
:105220002E910E94182941505040D0F70895262F02
:10523000F999FECF92BD81BDF89A019700B402168C
:1052400039F01FBA20BD0FB6F894FA9AF99A0FBE3A
:1052500008950396272F0E9418290E941729252FA9
:105260000E941829242F0C9418290196272F0E9498
:1052700018290C941729DC01CB01FC01F999FECF08
:1052800006C0F2BDE1BDF89A319600B40D924150CE
:105290005040B8F70895052E97FB1EF400940E9425
:1052A000622957FD07D00E947D2907FC03D04EF4E8
:1052B0000C94622950954095309521953F4F4F4F62
:1052C0005F4F089590958095709561957F4F8F4FB2
:1052D0009F4F08950E949F29A59F900DB49F900D08
:1052E000A49F800D911D11240895B7FF0C946A2985
:1052F0000E946A29821B930B0895A1E21A2EAA1B11
:10530000BB1BFD010DC0AA1FBB1FEE1FFF1FA21775
:10531000B307E407F50720F0A21BB30BE40BF50B72
:10532000661F771F881F991F1A9469F760957095FB
:10533000809590959B01AC01BD01CF010895A29F7E
:10534000B001B39FC001A39F700D811D1124911D59
:10535000B29F700D811D1124911D0895991B79E054
:1053600004C0991F961708F0961B881F7A95C9F7F5
:105370008095089587FB082E062687FD819567FD99
:1053800061950E94AE290EF4919507FC81950895D0
:1053900097FB072E16F4009407D077FD09D00E94E2
:1053A0004C2807FC05D03EF4909581959F4F0895B9
:1053B000709561957F4F0895EE0FFF1F0590F49152
:1053C000E02D09940E949F29332312F48A1B9B0B22
:1053D0000C94EC290E949F29B7FF0895821B930B20
:1053E00008950F93083090F0982F872F762F652F10
:1053F000542F432F322F22270850F4CF220F331F70
:10540000441F551F661F771F881F991F0A95B2F703
:105410000F91089597FB10F8169400080F93083029
:1054200098F00850232F342F452F562F672F782FB1
:10543000892F902DF4CF059497958795779567954B
:1054400057954795379527950A95AAF70F9108958F
:10545000FC014150504030F001900616D1F73197D1
:10546000CF010895882799270895FB01DC0104C026
:105470008D910190801921F441505040C8F7881B4C
:08548000990B0895F894FFCF89
:1054880001000000F519B50FAE0FA60FA70F2000F9
:105498000000000000000000D61EC61E000000002C
:1054A8000101020101191A1B1C1D1E1F2021223592
:1054B800566559582F79376745300044226DF801F1
:1054C800D60169014E0267028702818283E200E900
:1054D80000EA00B500B600B700CD008301CC008A11
:1054E80001920194012102230224022502260227A7
:1054F800022A02B300B4006F0070009F01CB019F25
:1055080002A002F0F1F4F5F6F70000000000000038
:10551800303132339293660101010101010100002B
:105528000000000000000102020202060606090946
:10553800090909090F0F0F0F0F0F1515151819195C
:105548001919191919191919232425252525252566
:00000001FF
