:100000000C942B040C9448040C9448040C9448045D
:100010000C9448040C9448040C9448040C94480430
:100020000C9448040C9448040C946B120C94AD117D
:100030000C94501C0C9448040C9448040C944804F0
:100040000C9448040C9448040C9448040C94480400
:100050000C9448040C940F1C0C9448040C94480411
:100060000C9448040C9448040C9448040C944804E0
:100070000C9448040C9448040C9448040C944804D0
:100080000C9448040C9448040C9448040C944804C0
:100090000C9448040C9448040C9448040C944804B0
:1000A0000C9448040C9448040C9448044605BA0582
:1000B0004E0518051C0552051F05550560052A0546
:1000C000B0052E05640532056805920536056C05F8
:1000D0009C053C0572057C052305590526055C0534
:1000E000410577058805A805AA0514054A05C30535
:1000F000B606B606E906E90666077C087C087C08B1
:100100008407F80709080908AA08C908CE08D3080F
:10011000D808DD08E208E708EC08F108F608EE0464
:10012000FD080009030906090909F0040C090F0973
:100130001109B90FE00F9511E00F95112C104F1018
:10014000951150116011EA1EEF1EF91EED1EF21EF0
:10015000F71EF51E1E0F0500047F3F1F6432146456
:100160003214783C1E1E140A0505010980A1018580
:100170000319012AB700150126B7009501751081F2
:1001800000C0050C0901A101850419012AA002156E
:100190000126A002950175108100C005010906A184
:1001A000018506050719E029E71500250195087561
:1001B0000181020507190029EF1500250195F07549
:1001C000018102050819012905950575019102951E
:1001D0000175039101C00660FF0961A10109621563
:1001E0000026FF009520750881020963150026FF8F
:1001F00000952075089102C005010906A1010507B7
:1002000019E029E71500250195087501810295017E
:10021000750881010507190029FF150026FF0095C3
:1002200006750881000508190129051500250195A5
:100230000575019102950175039101C009025B00EA
:10024000030100A0FA0904000001030101000921D3
:10025000110100012244000705810308000109047F
:100260000100020300000009211101000122220007
:10027000070582032000010705030320000109048C
:1002800002000103000000092111010001226D009C
:1002900007058403200001120100020000000897F6
:1002A000327549000101020301180333003400359F
:1002B00000780057002F004C005A004C0076004C8C
:1002C00000000016034500720067006F0064006FB5
:1002D000007800200045005A00000028035A00530F
:1002E000004100200054006500630068006E006F4C
:1002F000006C006F006700790020004C0061006214
:10030000007300000004030904067E2B00E100E0F6
:1003100000010000001E0034000400330201004D03
:10032000001F0036001200140001002928200037A9
:100330000008420D00E2002A272100130018410E98
:100340000023524A0022001C000C001B0000000188
:1003500000010001000000010000006452010001E2
:10036000000000010000006452230009000700059E
:10037000000000010024000A000B00100023524B73
:10038000002500060017001A00E6002C00260015C4
:1003900000110019000100283827000F0016001D69
:1003A0000001004E002E002E02E5002D000100008D
:1003B0000001000100010001000100000001000136
:1003C000002D0001000100010001002402250201AE
:1003D0000001002928010035003800010001002A31
:1003E0000001000100010001000100010001000105
:1003F00000010001000000010001000100000001F7
:1004000000000001000100010000000100000001E7
:100410000022023502330034020000010031022FB5
:100420000226022F000100010020023002270230C4
:100430000001002C001F021E022D023602010028BE
:1004400000230238022102370201000100010001ED
:100450000001003100010000000100010001000165
:100460000001000000010001000100010001000581
:100470007E01000100010001000100277801000158
:1004800000010001000100287801000100010001C5
:10049000000100047E0100010001000100000021B4
:1004A0007801000100000001000000037E0100014E
:1004B000000000010000002078010001000100019F
:1004C000000000027E0100AA00AC002B0301000026
:1004D0007E0100A800AE002B01010023780100A9D5
:1004E00000AB0001000100247801000100010001BF
:1004F0000001000100007C0100010001000100007A
:10050000003A00010001000100010000003B000171
:100510000001000100010001003C00010050000149
:1005200000010029283D0052005100010001002A6D
:10053000003E0001004F000100010001003F0001EA
:1005400000010001000000010001000100000001A5
:100550000000000100010001000000010000000196
:100560000040002700010001000000010041001EC2
:1005700000210024000100010042001F002200258C
:100580000001002C00430020002300260001002869
:1005900000440001000100010001000100450001CC
:1005A0000001000100010000000100010001000144
:1005B000000100000001002900010001000100E32A
:1005C000000100140004001D000100280001001AB1
:1005D0000016001B0001002C0001000800070006A7
:1005E000000C0001000100150009001900000001C5
:1005F00000010001000000010000000100010001F5
:1006000000000001000000010001000100010001E4
:100610000000000100010001005000010001000184
:100620000001005200510001000100010001000121
:10063000004F000100010001000100010001000164
:1006400000010001000100010001000100010000A3
:10065000002223252628292A2C2D2F303233353607
:10066000383A3B3D3E4042434547494A4C4E505143
:10067000535557595A5C5E6062646668696B6D6F6A
:1006800071737577797B7D7F81838587898A8C8E6D
:1006900090929496989A9C9E9FA1A3A5A7A8AAAC75
:1006A000AEAFB1B3B4B6B8B9BBBCBEBFC1C2C3C5AF
:1006B000C6C7C9CACBCCCDCED0D1D2D2D3D4D5D651
:1006C000D7D7D8D9D9DADADBDBDBDCDCDCDCDCDD84
:1006D000DDDDDDDCDCDCDCDCDBDBDBDADAD9D9D868
:1006E000D7D7D6D5D4D3D2D2D1D0CECDCCCBCAC900
:1006F000C7C6C5C3C2C1BFBEBCBBB9B8B6B4B3B12F
:10070000AFAEACAAA8A7A5A3A19F9E9C9A989694C9
:1007100092908E8C8A89878583817F7D7B7977759E
:1007200073716F6D6B6968666462605E5C5A59577D
:10073000555351504E4C4A4947454342403E3D3B3C
:100740003A3836353332302F2D2C2A2928262523C6
:100750002200010101010101010101020202020264
:100760000202020203030303030303030404040459
:100770000404040505050505060606060607070721
:10078000070708080808090909090A0A0A0B0B0BD8
:100790000C0C0C0D0D0D0E0E0E0F0F0F1010111175
:1007A00011121213131414151516161717181819F9
:1007B000191A1A1B1B1C1D1D1E1E1F202021222260
:1007C000232424252626272829292A2B2C2D2D2EA3
:1007D0002F30313232333435363738393A3B3C3DBD
:1007E0003E3F404142434445464748494A4C4D4EAE
:1007F0004F50515354555658595A5B5D5E5F616274
:1008000064656668696B6C6D6F7072737577787A02
:100810007B7D7E8082838587888A8C8E8F9193955D
:1008200096989A9C9EA0A2A3A5A7A9ABADAFB1B381
:10083000B5B7BABCBEC0C2C4C6C9CBCDCFD1D4D661
:10084000D8DBDDDFE2E4E7E9EBEEF0F3F5F8FAFD03
:10085000FFFFAA7F554011241FBECFEFDAE0DEBFB5
:10086000CDBF11E0A0E0B1E0E4E5F1E502C0059004
:100870000D92A03CB107D9F723E0A0ECB1E001C094
:100880001D92A837B207E1F70E9425090C94A82809
:100890000C940000A0E0B0E0E0E5F4E00C94CF267A
:1008A000FC018481882309F4CBC48F0121E04081BD
:1008B00051816281738195810E94EF1DEC01F801E5
:1008C0008581C115FEE7DF07E1F5882309F48CC0B7
:1008D0009091D50181E0890F8770987F853020F451
:1008E000892B8093D50102C09093D5018091D501C9
:1008F00087702FEF829FC00111249595879595955C
:1009000087959927909389008093880090938B0016
:1009100080938A0090938D0080938C004091D50144
:100920005091D6016091D7017091D8018FE090E08D
:100930000E948F278091D4010E94D21E0E94FF1E28
:1009400053C0C4309EE7D90769F148F4C230FEE7CE
:10095000DF07B9F0C3302EE7D207B9F045C0C53084
:100960009EE7D90771F1C630EEE7DE07E9F5882387
:1009700019F081E292E002C080E090E00E94DE1C6B
:100980002BC1882309F428C129C0882309F424C174
:100990000E94D92281E00E94D52221E04FEF6FEF23
:1009A0008CEA0CC0882309F417C10E94D92281E087
:1009B0000E94D52221E040E86FEF86E50E94B22137
:1009C0000BC1882309F408C10E94D92281E00E944A
:1009D000D52221E04FEF6FEF8BE1F0CF81E001C036
:1009E00088E10E94D522F8C0F8018581882309F4A6
:1009F00058C1CE019057839708F0DBC084E090E0A7
:100A00000E9467279093470380934603FE01E150BD
:100A1000F047E232F10520F4EA5AFF4F0C944228E5
:100A2000809146038160ACC0809147038860B4C068
:100A3000809146038260A4C08091460320C08091CB
:100A4000460388609DC0809147031EC08091470384
:100A50008260A2C080914603806192C0809146036B
:100A600080628EC08091460380648AC00E94E82321
:100A700080914603806884C08091460388608460CA
:100A80007FC0809147038260816086C08091460369
:100A90008E7F76C080914703877F7EC0809146031A
:100AA0008D7F6EC08091460320C080914603877F72
:100AB00067C0809147031EC0809147038D7F6CC043
:100AC000809146038F7E5CC0809146038F7D58C025
:100AD000809146038F7B54C00E94E8238091460397
:100AE0008F774EC080914603877F8B7F49C080916E
:100AF00047038D7F8E7F50C08091460382FB222763
:100B000020F991E0922790FB82F990FB83F938C09D
:100B100080914703982F909591708E7F892B90FB41
:100B200081F93AC08091460386FB222720F991E0A3
:100B3000922790FB86F924C00E94E8238091460307
:100B400087FB222720F991E0922790FB87F918C0B4
:100B500061E001C060E08EE090E00E947D271EC051
:100B60008091460384FB222720F991E0922790FB95
:100B700084F906C080914603982F909590FB80F9E8
:100B8000809346030BC08091470383FB222720F903
:100B900091E0922790FB83F980934703609146038D
:100BA0007091470384E090E00E949B270E94E82315
:100BB00013C0C631FCE7DF0709F580917F028A7A0E
:100BC00091E009F490E09093C2018111BDC289E2E5
:100BD0000E94A71C0E94E91580915402877009F4B5
:100BE0002FC3F8018581882309F42AC38091470324
:100BF00082FF26C382E00E943B1622C3C330FCE77B
:100C0000DF0779F190F4C1158CE7D807E1F0C13026
:100C1000DC4709F055C00E94E823FFEF24E38CE095
:100C2000F15020408040E1F72BC0CB35ECE7DE07E8
:100C3000A1F1CC35FCE7DF0741F1CA35DC4709F00B
:100C40003FC081E02BC00E94E8238FEF94E3ECE0EB
:100C500081509040E040E1F700C000000E94DD1BA1
:100C6000BBCF6FEF7FEF80E090E00E949B270E9458
:100C7000E8239FEFE4E3FCE09150E040F040E1F72F
:100C800000C000000E94D21BA7CF8091470382FBC7
:100C9000882780F991E0892701C080E00E945216E0
:100CA0000FC0C6312CE7D20709F4C0C280917F0281
:100CB0008272FE01E052F847E531F10508F446C2C0
:100CC000F8018581C081D181882349F0CE010E943D
:100CD000FA22F82E682FCE010E946A2304C0CE01AA
:100CE0000E943623F82EBE018F2D0E94A8140E9468
:100CF000C514F82EC92FC82EF801D581E680E294DC
:100D00009FE0E92280915402877001F1DD23F1F028
:100D10008C2F807F803469F080E28F0D8830B0F0B6
:100D20008C2F807E803229F4F1E0FF1578F4EE20DC
:100D300069F08091470382FF09C082E00E943B1660
:100D4000809154028770DD24D3948111D12CBC2E64
:100D5000B2948FE0B8228B2D90E08C30910508F092
:100D6000CBC1FC01E858FF4F0C9442288C2F807FA8
:100D7000CF70882311F0C295C07FDD23B9F0CC235A
:100D800009F4A8C180E28F0D883010F0C11006C0B0
:100D900090917F02C92BC0937F0205C090915602AB
:100DA000C92BC09356020E94E91594C18F2D0E9451
:100DB0001B24CC2309F4A0C180E28F0D883088F178
:100DC000CC2079F1C09590915602C923C093560268
:100DD0002BC08C2F807FCF70803211F0C295C07FE6
:100DE0008F2DCC2029F021E0C21609F44CC055C04B
:100DF0008091470382FD1BC0DD2369F0CC2339F0CD
:100E000090917F02C92BC0937F020E94E91580E078
:100E10000E94452471C180E00E941B24CC2309F468
:100E20006BC18C2F0E94E2150E94E91565C1DD237C
:100E300081F0EE20B1F181E0E8125EC1909155029F
:100E40008C2F8923C81709F457C1C92BC0935502A9
:100E500053C1E11051C18C2F0E940A248091550288
:100E60009C2F982329F09C2F9095892380935502DD
:100E70002091C3018C2F822309F43EC1C0952C23FD
:100E80002093C30139C1DD2329F091E09E1508F4B8
:100E900033C107C0E11030C115C0DD2331F0E110CE
:100EA00019C18C2F0E94112427C1EE2059F08933DB
:100EB00009F01FC1EFEFF7EE23E0E150F0402040D2
:100EC000E1F715C18C2F0E940A2416C18C2F86953C
:100ED0008695837019F0813061F00EC1DD2321F019
:100EE0008F2D9C2F937002C080E090E00E94031D24
:100EF00009C1DD2321F08F2D9C2F937002C080E06B
:100F000090E00E94DE1CFEC08C2F8370A9F5D111E9
:100F1000F7C04F2D429546954770440F440F8F2DD3
:100F20008F7090E09C01042E01C0220F0A94EAF712
:100F3000F4FE08C08FE090E001C0880F4A95EAF700
:100F4000809501C080E0C695C695C370C23069F037
:100F500088F49091D201C13019F0822B892302C00C
:100F6000922B892B0E94C223CBC0822B9091D2015D
:100F70008927F8CF822BF6CFDD2319F08C2F8170D3
:100F800001C08695882309F4BBC04F2D4295469534
:100F90004770440F440F8F2D8F7090E09C01042EFA
:100FA00001C0220F0A94EAF7F4FE08C08FE090E037
:100FB00001C0880F4A95EAF7809501C080E0C69588
:100FC000C695C370C23059F078F49091D401C13005
:100FD00019F0822B892309C0922B892B06C0822B02
:100FE0009091D401892701C0822B0E949F2388C041
:100FF000CF70DD2339F08C2F0E94B6238F2D0E94F5
:1010000011247EC08F2D0E940A248C2F0E94A923B8
:1010100077C08F2D92EFC91669F19C1538F0E0EF7B
:10102000CE1659F0F1EFCF1601F150C023EFC216E2
:1010300041F194EFC916A9F049C0DD2369F0E11030
:101040005BC0CF7181E090E001C0880FCA95EAF7DC
:101050009091D40189271FC0E1E0EE1508F44CC03F
:10106000F0CF8091470382FD19C0DD2329F08C2F3A
:101070008F711FC0DD23D9F38C2F8F710E94A9239C
:101080003BC0DD2339F0CF7181E001C0880FCA95E4
:10109000EAF701C080E00E949F232EC0DD2361F0AB
:1010A0008C2F8F71F8E08F9F900111242360209383
:1010B00054020E94B62320C081E00E943B1621E02A
:1010C0002E15D0F482E00E943B1616C0DD2321F0DD
:1010D000EE2069F28F2D9CCEEE2071F2893349F417
:1010E0008FEF97EEE3E081509040E040E1F700C0E1
:1010F00000008F2D0E941B2488EF8B0D843010F48C
:101100000E94281DDD20A9F08091540280FD11C0AD
:10111000F80115828695869586950E94B623C801AA
:101120000E944A04809154028695869586950E9475
:10113000A92320E0F801408151816281738184817B
:1011400095810E94EF1D7CC085E342CDEC57FF4F97
:101150000C9442282091380320FF18C02E7F209342
:1011600038033091390340913A0350913B03609129
:101170003C0370913D0380913E0390913F030E9498
:10118000B320109256030E945B2026CD0E94D922E4
:1011900023CD43EE52E26EEE72E22CC04EEE52E2EE
:1011A00063EE72E227C045E652E26FE672E222C0C9
:1011B0004FE652E265E672E21DC04BE452E268E59A
:1011C00072E218C048E552E26BE472E213C041E3F8
:1011D00052E26EE372E20EC04EE352E261E372E26B
:1011E00009C049ED50E263EF70E204C043EF50E202
:1011F00069ED70E20E94491DEFCC65E082E013C00A
:1012000068E086E010C06EE089E00DC064E18FE028
:101210000AC067E185E107C062E289E104C083E2B8
:10122000E0CB6AE285E20E94351DD6CC8091C201F6
:10123000811104C089E20E94791CCCCC85E3FBCFEC
:10124000CDB7DEB7E9E00C94EB26A6E4B0E0EBE224
:10125000F9E00C94CA2685B7806885BF85B7806899
:1012600085BF84B7877F84BF0FB6F894A895809117
:101270006000886180936000109260000FBE90E073
:1012800080E80FB6F89480936100909361000FBEE0
:1012900085E793E19093C1018093C0010E94F11111
:1012A0000E9410128091E20084608093E2007894A2
:1012B000809109028823A1F01091E9001F7090919C
:1012C000EC00892F817090FD80E8182B1092E900C6
:1012D0008091E80083FD0E94D60E1F701093E900F4
:1012E00082E084BD93E095BD9AEF97BD80936E0038
:1012F0000E94162090E090930F0180930E010E94AF
:101300008B1F0E94F11FE4ECF1E0ABEDB1E0119214
:101310001D9221E0E23DF207D1F780E090E00E94CB
:101320006727853E9E4F09F46EC065EE7EEF80E034
:1013300090E00E949B2760E082E090E00E947D2781
:1013400081E08093D20161E083E090E00E947D27FC
:1013500060E074E184E090E00E949B2760E086E01A
:1013600090E00E947D2760E087E090E00E947D276A
:1013700040E050E0BA0188E090E00E948F2760E0F2
:1013800083E290E00E947D2760E08CE090E00E9484
:101390007D2760E08DE090E00E947D2719821A820F
:1013A0001B821C821D821E821F82188648E050E02C
:1013B00067E170E0CE0101960E946D2740E050E0A9
:1013C000BA018FE190E00E948F271092D501109210
:1013D000D6011092D7011092D80184E08093D501F4
:1013E0004091D5015091D6016091D7017091D801FB
:1013F0008FE090E00E948F2740E050E0BA0183E147
:1014000090E00E948F2782E090E00E94592780930D
:10141000E90184E090E00E9467279093470380935E
:1014200046030E947718FFEF23EF81E0F150204040
:101430008040E1F700C000000E9477188091DB0136
:1014400080FF08C06FEF7FEF80E090E00E949B2755
:101450000E94DD1B83E090E00E9459270E94C22376
:101460008091D4010E94D21E0E94FF1E8091D30160
:1014700081117FC088E090E00E9461274B015C01F0
:1014800083E290E00E945927282F30E040E050E0AE
:1014900060E070E080E090E000E20E945728282998
:1014A00039294A295B292093380330933903409323
:1014B0003A0350933B0360933C0370933D03809346
:1014C0003E0390933F032C7F09F041C025E2209317
:1014D0003803109239033FEF30933A0330933B03C4
:1014E00010923C0330E04FEF5FEF60E00E94B320CA
:1014F00088E090E00E9461276B017C0183E290E02C
:101500000E945927282F30E040E050E060E070E072
:1015100080E090E00E945728B22FA32FF42FE52FF0
:101520005B0197018601BC29A12BF22BE32BB09321
:101530003803A0933903F0933A03E0933B0360939D
:101540003C03B0923D0380933E0390933F030E947F
:101550009F20109256030E9405198091380380FF46
:1015600005C060E0869586950E94902281E0809378
:10157000D30189EA8093800089E0809381002498D8
:101580002C983F98479A54985C9A55985D9A6E9813
:10159000769A569A8FE090E00E9461276093D50179
:1015A0007093D6018093D7019093D80167701FEF95
:1015B000169FB001112475956795759567957727E6
:1015C000709389006093880070938B0060938A0009
:1015D00070938D0060938C005E980E94C51E0E94DF
:1015E000C11E0E94BD1E8FEF90E0909389008093F2
:1015F000880090938B0080938A0090938D00809355
:101600008C000E94CF1E9FEFE0E7F2E09150E04097
:10161000F040E1F700C000000E94CC1E2FEF80E7F1
:1016200092E0215080409040E1F700C000000E940D
:10163000C91EEFEFF0E722E0E150F0402040E1F773
:1016400000C000000E94C51E8FEF90E7E2E08150CD
:101650009040E040E1F700C000000E94C11EFFEF93
:1016600020E782E0F15020408040E1F700C0000018
:101670000E94BD1E8091D5018770189FC001112462
:10168000959587959595879599279093890080934F
:10169000880090938B0080938A0090938D008093B4
:1016A0008C005E980E94C51E0E94C11E0E94BD1E35
:1016B0008091D4010E94D21E84E091E09093430374
:1016C0008093420338E1E32EF12C809109028530AA
:1016D00009F07DC010E4D12ECC24C39400E112E1C6
:1016E00080910902853009F05CC080910902843044
:1016F00009F434C0109256038091DA0181110DC0B3
:10170000C092DA0180913803982F91709093D9019B
:101710008E7F809338030E945B20109248030FB69F
:10172000F894A895E09260000FBED092600083B755
:10173000817F846083BF83B7816083BF78948895FD
:1017400083B78E7F83BF0FB6F894A8958091600011
:10175000886180936000109260000FBE8091080243
:10176000882309F4BDCF0E94162090E090930F01CA
:1017700080930E010E948B1F0E94F11FEBEDF1E0A0
:10178000119291E0E93EF907D9F70E947718EBED45
:10179000F1E0819181111FC221E0E93EF207C9F712
:1017A0009FCF0E94E8230E94281D1092DA018091A9
:1017B000D901882351F080913803816080933803E8
:1017C00060E0869586950E9490220E9479220E9470
:1017D0007718BAEECB2EB1E0DB2E28EF31E0ABED7F
:1017E000B1E0F60191918D9189272E173F0719F0ED
:1017F0008823C1F305C0811103C00E94531854C04F
:10180000ABED8A2EA1E09A2E10E0F40171904F0109
:10181000F601A080A724B1F100E0BB24B3946624B4
:1018200063948A2D8B2141F122960FAF2297239644
:101830001FAF23970E94441C25969FAF8EAF25971C
:1018400026966FAE269791E0872D8B2109F490E0C4
:1018500027969FAF279722964FAD229723965FAD8D
:10186000239724966FAD249725967FAD25972696CE
:101870008FAD26970E94141E0F5FBB0C063089F6B1
:10188000F60170821F5FFFEFCF1ADF0A1E3009F0EA
:10189000BCCF8FB7F8944091490350914A036091AF
:1018A0004B0370914C038FBF80915603882309F43A
:1018B000A6C080915503E0913803E695E695E81BB4
:1018C000E0935103823059F4F0E0EB59FE4FE4917C
:1018D0000E2F10E0F9E7CF2EFBE1DF2E6BC0863034
:1018E00059F4F0E0EE59FE4FE4910E2F10E0E9E6D6
:1018F000CE2EEBE1DE2E5EC0893061F4E695F0E09D
:10190000E15AFE4FE4910E2F10E075E0C72E7BE107
:10191000D72E50C08F3061F4E695F0E0E45AFE4FC8
:10192000E4910E2F10E06FE9C62E6AE1D62E42C078
:10193000853159F4F0E0E75AFE4FE4910E2F10E0A4
:101940005FE4C52E5AE1D52E35C08831F9F08332D7
:1019500049F4E7E5F1E0059114914FE2C42E4BE123
:10196000D42E28C08432C9F08532F1F48E2F63E082
:101970000E941428E92FF0E0EC5AFE4FE4910E2F5C
:1019800010E038E0C32E39E1D32E14C008E210E095
:1019900024EDC22E29E1D22E0DC004EF11E09CE906
:1019A000C92E99E1D92E06C000ED17E087E0C82EB8
:1019B00089E1D82E80915203882361F0109252035E
:1019C0000E94441C9093500380934F031092540341
:1019D000109253030E94441CE0914F03F091500376
:1019E0008E1B9F0B8F3F9F4750F40E0F1F1F1093AE
:1019F000500300934F038FE493E0F60109950E9492
:101A0000281D9091F801891769F08093F8018FB72C
:101A1000F8944091490350914A0360914B037091AF
:101A20004C038FBF80910902843009F04ECE83E0D1
:101A30008093E9008091E80082FF47CE8091E80022
:101A400085FF22C00E94421381111CC000E210E0F9
:101A50006E01F1E2CF0ED11C08C08091F100F601B9
:101A600081936F010150110969F08091E80085FDB3
:101A7000F4CF8091E8008B778093E8000E944213B6
:101A8000882399F391E001C090E08091E8008B7782
:101A90008093E800992309F418CE89A1863009F4CF
:101AA00079C0B0F4823009F410CE60F4882329F1B3
:101AB000813009F08CC08093F90184E089838EEF36
:101AC0008A837CC0843031F1853009F463C07FC0E3
:101AD000893009F45FC030F4873099F1883009F417
:101AE00059C075C08A3009F457C08E3F09F06FC0E5
:101AF000898394E09A838B8361C019828CE0EFE143
:101B0000F1E0DE01129601900D928A95E1F78EEFD9
:101B10008D8754C08091F901882309F4D6CD8AA11C
:101B2000811104C08BA10E94A923CFCD81E090E058
:101B30000BA002C0880F991F0A94E2F70E949F230E
:101B4000C4CD81E08093FB018AA18230C1F000F511
:101B5000882319F0813051F01BC08BA1882319F024
:101B60000E94CF1EB2CD0E94C51EAFCD8BA188238F
:101B700019F00E94CC1EA9CD0E94C11EA6CD8BA13A
:101B8000882319F00E94C91EA0CD0E94BD1E9DCDC4
:101B900085E01EC084E01CC08AA111E0811101C053
:101BA00010E01093FB01811106C00E94C51E0E9427
:101BB000C11E0E94BD1E8BE089831A8340E250E063
:101BC000BE016F5F7F4F82E00E948D1B7ECD8FEF45
:101BD0000E942A1F7ACD09BD19BD09B400FEFDCFB0
:101BE0008091D8008F7D8093D8008091E000826042
:101BF0008093E0008091E00081FDFCCF0E94E8230B
:101C00006FCD80910B0287FF11C08091E80082FDAB
:101C100005C0809109028111F8CF11C08091E800C0
:101C20008B770BC080910902882349F08091E800EE
:101C300080FFF8CF8091E8008E778093E8000895C8
:101C4000982F973068F59093E900981739F07091C4
:101C5000EC002091ED005091F00003C0242F762F6E
:101C600050E021FD02C09F5FECCF3091EB003E7F42
:101C70003093EB003091ED003D7F3093ED003091DB
:101C8000EB0031603093EB007093EC002093ED009B
:101C90005093F0002091EE0027FDE5CF80E00895FD
:101CA0008F708093E90081E00895209111023091B6
:101CB00012022617370748F06115710539F4209193
:101CC000E8002E772093E80001C0B901FC0120E074
:101CD0006115710579F1809109028823F1F1853050
:101CE000F1F18091E80083FD3CC08091E80082FD25
:101CF0002EC08091E80080FFEBCF2091F30080910F
:101D0000F20090E0922B6115710551F08830910539
:101D100038F421912093F100615071090196F3CFBD
:101D200021E0089709F020E08091E8008E77809309
:101D3000E800CECF2111CFCF0AC0809109028823BD
:101D400061F0853061F08091E80083FD0AC08091E8
:101D5000E80082FFF2CF80E0089582E0089583E0FA
:101D6000089581E00895089543E050E0BC0184E0C7
:101D70000E948D1B089540E250E0BC0184E00E9467
:101D80008D1B0895CF93DF93EC0148E050E0BC0138
:101D900081E00E948D1B88E0FE01AFEFB1E0019071
:101DA0000D928A95E1F7DF91CF910895AAE2B0E014
:101DB000ECEDFEE00C94D526EBE0F2E083E192E05E
:101DC0002091F10021938E179F07D1F780910C028B
:101DD000833009F463C030F4813071F0823009F44B
:101DE0009DC0B4C08A3009F489C08B3009F46EC03C
:101DF000893009F0ABC020C080910B02813A09F014
:101E0000A5C08091E800877F8093E80080910F0251
:101E100090911002892B21F468E08FEF91E003C0CC
:101E200060E080E090E070E00E94550E8091E80054
:101E30008B778093E8008AC080910B02813209F091
:101E400085C080910F0290911002009719F00297BF
:101E500009F07CC08091E800877F8093E800809142
:101E6000E80082FD05C0809109028111F8CF6EC0A3
:101E70002091F3008091F20090E0922B029731F4D0
:101E80008091F100813011F0863021F48091F100D1
:101E90008093FE018091E8008B7754C080910B0203
:101EA000813A09F053C080910F0290911002892B62
:101EB00009F04CC08091E800877F8093E800809112
:101EC000E80080FFFCCF8091100137C080910B02A9
:101ED0008132E1F580910F0290911002892BB1F5CA
:101EE0008091E800877F8093E8000E94010E809136
:101EF0000D02809310010E94E82328C080910B02FC
:101F0000813221F58091E800877F8093E8000E946C
:101F1000010E80910E028093FD0118C080910B028A
:101F2000813AA1F48091E800877F8093E800809156
:101F3000E80080FFFCCF8091FD018093F10080914B
:101F4000E8008E778093E8000E94010E8091E800FF
:101F500083FFEBC180910B0290910C02492F50E05E
:101F60004A30510508F0E1C1FA01E756FF4F0C94E1
:101F70004228803821F0823809F0D7C108C080910A
:101F8000070290910802992389F082600FC0809126
:101F90000F028F70873008F0C8C18093E9008091EC
:101FA000EB0085FB882780F91092E9009091E8000A
:101FB000977F9093E8008093F1001092F1007CC12C
:101FC000282F2D7F09F0B1C1882319F0823061F0EC
:101FD000ACC180910D02813009F0A7C1933009F0A6
:101FE00080E0809308022EC080910D0281112AC0EA
:101FF00080910F028F702FEF280F263008F095C1C7
:102000008093E9002091EB0020FF1CC0933021F465
:102010008091EB00806214C09091EB0090619093EE
:10202000EB0021E030E0A90102C0440F551F8A9562
:10203000E2F74093EA001092EA008091EB0088609A
:102040008093EB001092E9008091E800877F8093F5
:10205000E8000E94010E69C1811167C110910D0253
:102060001F778091E3008078812B8093E30080913B
:10207000E800877F8093E8000E94010E8091E800CD
:1020800080FFFCCF8091E30080688093E300111112
:1020900002C082E001C083E08093090246C18058FB
:1020A000823008F042C120910D0230910E022C3D89
:1020B00053E0350779F583E08A838AE289834FB755
:1020C000F894DE01139620E03EE051E2E32FF0E0C9
:1020D00050935700E49120FF03C0E295EF703F5FFB
:1020E000EF708E2F90E0EA3010F0C79601C0C096D6
:1020F0008D939D932F5F243149F74FBF8091E80066
:10210000877F8093E8006AE270E0CE0101960E942A
:10211000550EC0C080910F0290911002432F552799
:1021200043305105B1F068F44130510509F40CC158
:102130004230510509F0F9C08BE590E0ECE3F2E0A4
:1021400057C04132510589F14232510509F43CC072
:10215000ECC0C901992781309105B9F070F0823047
:102160009105D9F0039709F0E0C0E9EAF2E0E491C3
:102170008E2F90E0E9EAF2E038C0E5E0F3E0E49188
:102180008E2F90E0E5E0F3E030C0EBEDF2E0E4917B
:102190008E2F90E0EBEDF2E028C0E3ECF2E0E4916A
:1021A0008E2F90E0E3ECF2E020C08330910508F040
:1021B000BCC0880F991FFC01EC5CFE4F0190F081C0
:1021C000E02D89E090E014C08330910508F0ADC0A7
:1021D000FC01EE0FFF1FE25DFE4F0190F081E02D4C
:1021E000DC01A55DBE4F8C9190E0009709F49DC085
:1021F0002091E800277F2093E80020911102309180
:1022000012022817390708F4C90140E0009789F144
:1022100020910902222309F43DC02530D9F12091F3
:10222000E80023FD37C02091E80022FD2FC0209157
:10223000E80020FFEBCF4091F3002091F20030E066
:10224000342B009759F02830310540F444914093E5
:10225000F100319601972F5F3F4FF3CF41E02830D7
:10226000310509F040E02091E8002E772093E80046
:10227000CDCF4111CDCF0AC080910902882351F002
:10228000853041F08091E80083FD04C08091E80032
:1022900082FFF2CF8091E8008B778093E80045C001
:1022A000803809F042C08091E800877F8093E80081
:1022B00080910A028093F1008091E8008E77C7CE6A
:1022C000811133C080910D0290910E0299270297DF
:1022D00064F58091E800877F8093E80010910D02FB
:1022E00010930A020E94010E111106C08091E300B2
:1022F00087FD02C081E001C084E08093090242E0D2
:1023000061EC81E00E94200E42E261EC84E00E94D8
:10231000200E42E261EC82E00E94200E42E260EC7C
:1023200083E00E94200E809109028091E80083FFE3
:1023300010C08091E800877F8093E8008091EB00D7
:1023400080628093EB0005C082E190E0E7E9F2E073
:102350004FCFAA96E3E00C94F1261F920F920FB68E
:102360000F9211242F933F934F935F936F937F931B
:102370008F939F93AF93BF93CF93DF93EF93FF938D
:10238000C091E900CF708091EC00D82FD17080FD12
:10239000D0E81092E9008091F000877F8093F000F0
:1023A00078940E94D60E1092E9008091F000886027
:1023B0008093F000CD2BCF70C093E900FF91EF9197
:1023C000DF91CF91BF91AF919F918F917F916F914D
:1023D0005F914F913F912F910F900FBE0F901F90E3
:1023E0001895E8EDF0E080818E7F80831092E20006
:1023F0001092DA001092E100A0EEB0E08C918160C2
:102400008C9380818F77808319BCA7EDB0E08C918D
:102410008E7F8C9380818F7E80831092FC01089543
:10242000A0E0B0E0E6E1F2E10C94D026C8EDD0E007
:1024300088818F7E8883E7EDF0E0808181608083F2
:1024400084E082BF81E08093FC0188818E7F888355
:1024500002EE10E0F80110821092DA0081EEC82E30
:10246000D12CF601108288818F77888388818068DB
:10247000888388818F7D888319BC1092090210920D
:102480000A02109208021092070290EEE92EF12C37
:10249000F70180818B7F808388818160888342E01F
:1024A00060E080E00E94200EF60180818E7F8083B4
:1024B000F801808181608083808188608083F7015A
:1024C00080818E7F8083888180618883CDB7DEB7ED
:1024D000E8E00C94EC261F920F920FB60F92112495
:1024E0002F933F934F935F936F937F938F939F931C
:1024F000AF93BF93EF93FF938091E10082FF09C0F8
:102500008091E20082FF05C08091E1008B7F809383
:10251000E1008091DA0080FF2AC08091D80080FF1E
:1025200026C08091DA008E7F8093DA008091D900F6
:1025300080FF18C080E189BD82E189BD09B400FE39
:10254000FDCF81E0809309028091FC0181110FC0D1
:102550000E94F1110E9410128091E2008460809329
:10256000E20005C019BC109209021092FC01809192
:10257000E10080FF17C08091E20080FF13C08091CE
:10258000E2008E7F8093E2008091E2008061809380
:10259000E2008091D80080628093D80019BC85E069
:1025A000809309028091E10084FF30C08091E200B5
:1025B00084FF2CC080E189BD82E189BD09B400FEA1
:1025C000FDCF8091D8008F7D8093D8008091E1006D
:1025D0008F7E8093E1008091E2008F7E8093E20005
:1025E0008091E20081608093E20080910A0288235A
:1025F00011F084E007C08091E30087FD02C081E014
:1026000001C083E080930902809109028091E1007A
:1026100083FF27C08091E20083FF23C08091E10007
:10262000877F8093E10082E08093090210920A0282
:102630008091E1008E7F8093E1008091E2008E7FA7
:102640008093E2008091E20080618093E20042E0AA
:1026500060E080E00E94200E8091F000886080930E
:10266000F000FF91EF91BF91AF919F918F917F917A
:102670006F915F914F913F912F910F900FBE0F90EF
:102680001F9018952091E4003091E50095E6409167
:10269000EC00842F817040FF23C08091E80080FD12
:1026A0001DC080910902882399F0853099F08091AE
:1026B000EB0085FD11C04091E4005091E500241726
:1026C000350729F3915011F09A01E1CF84E0089584
:1026D00082E0089583E0089581E0089580E0089500
:1026E0004091E80042FFDDCF089580E00895909189
:1026F000460392FF10C041E0282F2471243009F0D6
:1027000040E031E0282F2871283009F030E04317ED
:1027100011F02CE0822793FF10C041E0282F247194
:10272000243109F040E031E0282F2871283109F0E8
:1027300030E0431711F02CE082273091470330FF3F
:1027400010C051E0282F2171213009F050E041E004
:10275000282F2871283009F040E0541711F029E0A3
:10276000822731FF10C041E0282F2171213109F06B
:1027700040E031E0282F2871283109F030E043177C
:1027800011F029E0822794FD877E08958238910513
:1027900069F1B0F48133910509F475C048F48932C8
:1027A000910509F467C08A32910509F471C0089552
:1027B0008533910509F459C089339105B9F008951D
:1027C000833E910589F138F4803E9105D1F0823E37
:1027D000910529F10895863E9105C9F1873E91053D
:1027E000D9F1843E910509F06CC027C020914603C1
:1027F00020FD57C021FD55C02091470323FD5BC03C
:1028000008958091460380FD48C08091470380FF72
:1028100048C08091460384FD46C083EE51C080913C
:10282000460382FF3CC0F5CF8091460382FD37C04E
:102830008091470380FD35C0ECCF8091470381FF35
:1028400036C08091460384FD2EC087EE39C080914A
:10285000460383FF2AC0F5CF8091460383FD25C040
:102860008091470381FD23C0ECCF8091460385FD15
:1028700022C01FC08091460385FD1BC08091470385
:1028800083FF19C00AC08091460386FD16C017C099
:102890008091460386FD13C010C089E311C082EE0B
:1028A0000FC080EE0DC080E00BC086EE09C084EE44
:1028B00007C085E305C089E203C08AE201C081E365
:1028C00090E0089590917F0280915602892B90911B
:1028D00055029923E1F0892B90911001992341F041
:1028E0009091460397FF04C09EE120E932E003C0C7
:1028F00096E028E832E0F90120E0915028F031918B
:102900003323D9F32F5FF9CF211110925502089587
:102910002091530290911A0257E02917A9F030E054
:10292000529FF001539FF00D1124E55EFD4F718120
:10293000761306C07081781303C07581741306C0C6
:102940002F5F3F4F2770E9CF80E0089581E0089521
:102950007E30B0F46630A0F48530A0F494E5899F11
:10296000F001112486E0789FE00DF11D1124E60F9F
:10297000F11DEE0FFF1FE75FFC4F859194910895C5
:1029800080E001C081E090E008951F93CF93DF9332
:102990000E94C613EC01C11580E5D807E8F5C11502
:1029A00090E4D90708F0A8C0C03ED10530F5CD3C71
:1029B000D10508F094C0C83AD10578F4C53AD105DC
:1029C00008F083C0C130D10509F47CC008F4F2C01E
:1029D000C430D10508F0F1C0EDC0C33CD10508F00A
:1029E000E9C0C85AD0E0CC0FDD1FC35CDE4F0990B0
:1029F000D881C02DCE019464E1C0C11580E2D80712
:102A000008F0CBC0C11591E0D90708F06BC0C83EF3
:102A1000D10508F4D2C0CEC0C03682E5D80728F56B
:102A2000C03492E5D90708F079C0C03282E5D807F2
:102A300008F06CC0C11592E5D90708F481C04C2F8D
:102A40004695469580E2489FA0011124C37021E07D
:102A500030E0C90102C0880F991FCA95E2F7EA0168
:102A6000C82BD92BCE019D68A9C0C03A82E5D807F2
:102A7000B8F48C2F8F71C03892E5D90708F07BC06D
:102A80008695869590E2899F90011124C37081E01C
:102A900090E002C0880F991FCA95E2F79A6868C053
:102AA000C03C82E5D80708F46DC0C03E92E5D90766
:102AB00008F080C0CF71DD27DC2FCC27CE01806FDE
:102AC000906A7CC081E090E079C0C55AD0E0C65CD5
:102AD000DE4F8881C82FD0E0CE0190646FC0CE0158
:102AE00090656CC08D2F0E947713182FCE01992707
:102AF0000E94C6131F715CC0CE0199270E94C613A5
:102B0000CC27DF70D06A8C2B9D2B58C0CF71D0E0C2
:102B1000DC2FCC27CE01816F906A50C08C2F8F7133
:102B20008695869590E2899F90011124C37081E07B
:102B300090E002C0880F991FCA95E2F79C6818C000
:102B40008C2F8F710E94771395E0D695C7959A9533
:102B5000E1F7CF70D0E0DC2FCC27282F30E084FFC6
:102B600005C084E0220F331F8A95E1F7D069CE01BA
:102B7000822B932B23C090E0D82FCC27CE01846FDB
:102B8000906A1CC08C2F8F710E9477138F7190E018
:102B9000D82FCC27CE01906211C08D2F8F710E944B
:102BA0007713182FCE0199270E94C6131F719062C8
:102BB000912B04C080E090E001C0CE01DF91CF9165
:102BC0001F910895809590917F02892380937F02C1
:102BD000089580911001882351F18091460387FF69
:102BE00026C00E94621480938F0240E250E067E5A5
:102BF00072E08EE892E00E949B28892BD9F180E256
:102C0000EEE8F2E0A7E5B2E001900D928A95E1F7D7
:102C1000E0914203F0914303309761F186E08093A5
:102C20008E020480F581E02D8EE892E022C00E94A1
:102C300062148093860248E050E067E772E086E81D
:102C400092E00E949B28892BA9F088E0E6E8F2E058
:102C5000A7E7B2E001900D928A95E1F7E091420377
:102C6000F0914303309731F00280F381E02D86E844
:102C700092E009950895909154028095892380935C
:102C80005402282F277069F4981759F09091470340
:102C900092FF07C08695869586950E94A92310927B
:102CA000540208959091470392FB222720F9281798
:102CB00079F080FB92F990934703609146037091FD
:102CC000470384E090E00E949B2782E00E943B162D
:102CD00008958091530290911A02891719F08F5F1D
:102CE0008770FBCF0895CF93DF938091190282956F
:102CF0008F7009F04EC080911802882309F449C0F2
:102D00008091530240911A02509114026091130273
:102D1000C0911502D091160277E08417D1F190E0AE
:102D2000789FF001799FF00D1124DF01A55EBD4F62
:102D300014962C911497222349F111962C911197F6
:102D4000251324C02C91261321C015962C9115977C
:102D500021111CC012962D913C9113972C1B3D0BF9
:102D6000283C310598F4809119028F70806180931E
:102D70001902EF5DFD4F80818F708061808383E158
:102D800092E00E944A040E94691603C0019687706F
:102D9000C4CFDF91CF910895A4E1B0E0E2EDF6E178
:102DA0000C94CC268C0186E0F801DE011F96019080
:102DB0000D928A95E1F7F8018481E58093E1892EEF
:102DC00092E0992E90911702911120C0882309F466
:102DD00063C1EE2009F442C0C8010E94C523F82E49
:102DE0008823E1F187E0F801D40101900D928A95E2
:102DF000E1F780911702813031F4809113029091B4
:102E000014020E9429230E94731648C1F801D08041
:102E1000C180A280B380F0901802209115023091F9
:102E20001602FF2009F4E7C0A501421B530B483CE2
:102E3000510508F09DC0882309F430C18091190222
:102E4000282F207F90911402222361F09C1509F411
:102E500060C0C8010E94C523811163C0C8010E94DF
:102E60004A041AC19C1113C0909113029D110FC006
:102E7000E1100DC08F7080618093190283E192E0B0
:102E80000E944A0480911902F801868303C1E1106F
:102E90003AC040E06C2D8D2D0E94881440E06C2DCE
:102EA0008D2D0E948814E82E8111F4C0DF86C88A17
:102EB0008F8598890E942923292F22952F702430ED
:102EC00020F49F70223028F009C02A50223080F070
:102ED00014C0992349F0811107C013C0992321F030
:102EE000F8019681907F69F0805E883030F409C0E7
:102EF000803F38F0815F833020F0C8010E944A048F
:102F0000EF2CFE2CCBC080911902816080931902B6
:102F1000C1C0909113029D119CCFE1109ACFF8018E
:102F200098C0EE2009F49ACF20911902822F829541
:102F30008F7090E002978CF08091130290911402B0
:102F400099878887BB86AA86809117028C871D8601
:102F50002E87CE0108960E944A0487E0F801A3E17B
:102F6000B2E001900D928A95E1F70E94731694C029
:102F700090911902292F207F51F483E192E00E9461
:102F80004A0487E0F40111928A95E9F783C0882307
:102F900009F484C0809114028C110CC0809113023A
:102FA0008D1108C0E11006C0F8019683C8010E9487
:102FB0004A046AC0C8010E94C523882309F44ECF81
:102FC000EE2009F44BCF20911902822F82958F7049
:102FD00090E0029714F280911302909114029A8368
:102FE0008983BC82AB82809117028D831E822F83DE
:102FF000CE010196B0CFA21AB30AF8ECAF16B10415
:1030000008F042C0882309F447C0FE2CEE2009F4E2
:1030100025CF809114028C1129C0809113028D114B
:1030200025C09091190290FD18C0892F82958F704C
:10303000282F30E02115310581F0F80196832F30DB
:10304000310541F08F5F982F9295907F86818F7028
:10305000892B8683C8010E944A0487E0F801A3E116
:10306000B2E001900D928A95E1F718C0C8010E9464
:10307000C523811172CF809119028160809319025A
:10308000C8010E944A040AC087E0F40111928A959F
:10309000E9F704C0F12C02C0FF24F3948F2D64964D
:1030A000ECE00C94E826A6E0B0E0E9E5F8E10C9449
:1030B000D4260E94441C8C01809180029091810250
:1030C0000817190781F019821A820E94441C682F80
:1030D00049815A81792F80E090E00E94141E10935C
:1030E0008102009380022696E4E00C94F026EF9291
:1030F000FF920F931F93CF93DF9380910E019091D6
:103100000F01892BD9F0809182028F5F8093820218
:10311000811114C00E94162090E090930F018093BB
:103120000E01892B59F42FEF83EC99E02150804058
:103130009040E1F700C000000E94D21B04EC11E0B7
:10314000C0E0D0E087E0E82EED0E8D2F0E943F1FFB
:103150008E2D0E943F1F8D2F0E94A01F8F73F8019C
:103160009081891721F08083FF24F39401C0F12C12
:103170008E2D0E94A01F8F73F8019781891719F077
:10318000878381E001C080E0F82ACF290E948B1F4D
:10319000DF5F0F5F1F4FD730A9F6CC2359F081E0D6
:1031A000809385020E94441C909384028093830242
:1031B000C0E022C0809185028823F1F080918302D3
:1031C000909184020E94351C4497B0F04EE050E08C
:1031D00064EC71E08BED91E00E949B28892B51F00B
:1031E0008EE0E4ECF1E0ABEDB1E001900D928A9558
:1031F000E1F7C1E0109285028C2FCDB7DEB7E6E093
:103200000C94EE268091FE010895579A0895089532
:10321000A0E0B0E0EEE0F9E10C94CB26FC01828066
:10322000748081E08483E1E5F6E09490E0EDF6E0DF
:10323000E49100913B030695015810E0000F111F27
:10324000012F1127CDEED2E021EBC22E22E0D22EAB
:10325000AA24AA94B12CE919EE2EF12C22E028150B
:1032600030F080913903888380913A03898371100B
:1032700003C01B821A824AC08B818823F9F08150D7
:103280008B832FEF829FC00111246C8170E00E941C
:10329000B226FB01FF27EF5AF94F8491E82FE91975
:1032A0002FEFE29FC0011124B7010E94B226809146
:1032B0003B03689FB00111247A8328C00E944927EC
:1032C000B5010E942E288017910704F582E0881529
:1032D00088F40E944927B5010E942E2888830E9405
:1032E000492720913A032695622F70E00E942E28EC
:1032F000280F29831A8280913B03843120F0893C76
:1033000018F088EC01C084E18C838B8396014A819C
:10331000698188810E940D21259624E0C20ED11C6E
:1033200083E0C833D80709F099CF0E945B20CDB75E
:10333000DEB7EDE00C94E726EF92FF920F931F9318
:10334000CF93DF938C01C1EBD2E0E12CF12CF8019B
:103350008481F7E0EF16F1041CF4882339F002C0F1
:10336000811104C09E0140913B0302C09E0140E0D8
:1033700060913A03809139030E940D218FEFE81A82
:10338000F80A24969FE0E916F10409F70E945B20F1
:10339000F801848190E00196817099278483CDB7EC
:1033A000DEB7E6E00C94EE26A0E0B0E0EAEDF9E14D
:1033B0000C94CC26EC014C81042F10E09801D8012C
:1033C0000E9405289B01AC010E94D0276B017C0163
:1033D000E0E2F0E0E01BF10BA5E5B0E09B01AC0101
:1033E0000E94D0274B015C019F01DF010E94482809
:1033F0009B01AC010E94DB279B01AC012C0D3D1D04
:103400004E1D5F1DC501B4010E94E327822FF22EDD
:1034100099E2921728F093E0299F900111240DC0A2
:1034200025E530E0281B3109C901880F991F280FB5
:10343000391F37FF02C02F5F3F4F35952795122F59
:10344000109591EBC92E92E0D92E00E085E5E82E8B
:10345000EF1801FD02C08E2D01C08F2D9601412F66
:1034600060913A030E940D210F5F84E0C80ED11CC9
:103470000F3079F70E945B208C81811102C091E0AE
:1034800003C0803219F49FEF9093130190911301C0
:10349000890F8C83CDB7DEB7ECE00C94E8260F9350
:1034A0001F93CF93DF93C1EBD2E0FE011182108214
:1034B00012821382349682E0ED3EF807B9F700E0FD
:1034C00010E08091AF02082E000C990B0817190725
:1034D00094F080911201082E000C990B801791072F
:1034E00054F09E0140913B0360913A03809139036F
:1034F0000E940D2104C0198218821A821B820F5F5C
:103500001F4F24960F301105E1F60E945B20809139
:1035100011019091AF02980F9093AF022091120188
:10352000280F20931201121614F49E301CF081957E
:1035300080931101DF91CF911F910F910895A0E029
:10354000B0E0E5EAFAE10C94CF26FC01828180FF2D
:1035500003C0DD24DA9402C0DD24D39401EB12E031
:10356000C0E0D0E02FE0B22EF8011182108212826A
:10357000138294E0E92EF12CC12C8091AE028C0DC7
:1035800080312CF06B2D0E942028892F02C087FDEE
:10359000815F082E000C990BC817D90791F4809110
:1035A0003B038E9DA0018F9D500D1124559547958D
:1035B00055954795980160913A03809139030E948F
:1035C0000D21CD0CF1E0EF1AF108B9F621960C5F50
:1035D0001F4FCF30D10541F60E945B208091AE0293
:1035E00091E0D91206C0811102C08EE007C081505F
:1035F00005C090E00196BE010E942E288093AE0285
:10360000CDB7DEB7E9E00C94EB26EF92FF921F9363
:10361000CF93DF93EC0181EBE82E82E0F82E10E0EF
:103620008C81970140913B0360913A03810F0E9486
:103630000D211F5E84E0E80EF11C1F3F89F70E94F8
:103640005B209A818C8190FF02C08F5F01C0815006
:103650008C83DF91CF911F91FF90EF900895A4E0AC
:10366000B0E0E5E3FBE10C94D4268C018091B0023C
:1036700081110AC09E012F5F3F4F4FEF6FEF0E94F5
:103680000D218A818093B002F8018481813051F04C
:1036900028F0823061F44091B0020AC08091B002FB
:1036A00040E007C06091B00240E080E003C040E02D
:1036B00080E060E00E948D20F801848190E0019616
:1036C00063E070E00E942E2884832496E4E00C944A
:1036D000F026CF93DF93EC01E8E3F3E043816281CE
:1036E0008C810E949A218C818F5F8C83DF91CF9196
:1036F0000895CF93DF93EC01EC81F0E0EF5AF94F9E
:103700004491E8E3F3E0628181810E949A218C81F7
:103710008F5F8C83DF91CF9108950F931F93CF9389
:10372000DF938B01EA01909109029430A9F58F7023
:103730008093E9008FEF9091E800815095FD06C0DD
:1037400095ED9A95F1F700008111F5CF8091E80091
:1037500085FF22C00E944213811115C0209789F075
:103760008091E80085FD06C08091E8008E77809307
:10377000E800F0CFF80181918F018093F10021974B
:10378000EDCF90E001C0982F8091E8008E77809374
:10379000E80081E0911101C080E0DF91CF911F919D
:1037A0000F9108959AE088E10FB6F894A895809358
:1037B00060000FBE90936000FFCFF89481E080938B
:1037C000E00080E28093D800E9ECF0E010828FE125
:1037D0009EE40197F1F700C000001DBA1092680046
:1037E0001CBC10BE1FBA10927A0010926E0010928C
:1037F0006F0010927100109272001082ECEBF0E0FA
:10380000108214B817B81AB81DB810BA108215B8BB
:1038100018B81BB81EB811BA0C94003F08957894DC
:103820001F920F920FB60F9211248F939F93AF9315
:10383000BF938091490390914A03A0914B03B091AB
:103840004C030196A11DB11D8093490390934A0337
:10385000A0934B03B0934C03BF91AF919F918F9175
:103860000F900FBE0F901F9018959C014FB7F894C2
:103870008091490390914A03A0914B03B0914C036E
:103880004FBF821B930B08952FB7F8948091490383
:1038900090914A03A0914B03B0914C032FBF089520
:1038A0001F920F920FB60F9211248F939F93AF9395
:1038B000BF9380914803811113C080914903909177
:1038C0004A03A0914B03B0914C034196A11DB11D39
:1038D0008093490390934A03A0934B03B0934C0306
:1038E000BF91AF919F918F910F900FBE0F901F903E
:1038F000189590911001992321F09091460397FD1E
:1039000003C0E6E8F2E01DC0E82FE695E695E695EF
:10391000EE31E0F4F0E0E257FD4F877021E030E057
:10392000A90102C0440F551F8A95E2F7CA0180958C
:103930009281892382830895319652E0EC38F5070D
:1039400029F092818913F8CF1282F6CF08959091D1
:1039500010019923D1F09091460397FF16C0E82FEC
:10396000E695E695E695EE3140F5F0E0E257FD4F3D
:10397000877021E030E0A90102C0440F551F8A95ED
:10398000E2F7CA019281892B16C0A8E8B2E0EFEFF6
:1039900090E02D91821789F0EF3F19F4211101C0B9
:1039A000E92F9F5F9630A9F7EF3F39F00E2E000CFC
:1039B000FF0BEA57FD4F828308950895A3E0B0E01E
:1039C000E4EEFCE10C94D6262091440330914503AB
:1039D00028173907A1F09093450380934403E091A1
:1039E0004203F0914303309751F024E029839B83F5
:1039F0008A830084F185E02DCE01019609952396F6
:103A0000E2E00C94F226A3E0B0E0E9E0FDE10C94E2
:103A1000D626209140033091410328173907A1F0A1
:103A20009093410380934003E0914203F09143035C
:103A3000309751F023E029839B838A830084F185AA
:103A4000E02DCE01019609952396E2E00C94F22632
:103A5000E0914203F0914303309729F00190F08107
:103A6000E02D0995089580E008959091380390FF26
:103A700005C096959695981748F003C0811106C029
:103A800090E0961718F40E94EE2208950E94D52225
:103A90000895882311F0FA0101C0FB0109950895EA
:103AA000982F92959F7019F0892F24E001C020E093
:103AB000982F9695969511F02E5F892F982F9695B1
:103AC00009F02F5F822F089590E0FC01E957FE4F27
:103AD000208121111AC0F894FC01E758FE4F808123
:103AE000E82FE295EF70F0E031A1282F2F7081E0F0
:103AF00090E001C0880F2A95EAF7982F90959323BC
:103B000091A392A1892B82A378940895A0E0B0E0BC
:103B1000ECE8FDE10C94CE266C019B01ADB6BEB67F
:103B20008B01000F111F000F111F8DB79EB7801B57
:103B3000910B0FB6F8949EBF0FBE8DBF6DB77EB7C9
:103B40006F5F7F4F7601FB01D60180E090E0821726
:103B5000930791F04C91408311964C9111974183BA
:103B600012964C911297428313964C91139743836C
:103B7000019614963496EBCF2AE030E0A80184E851
:103B80000E9480258BB18F779BB190682FB7F894F6
:103B90000C0D1D1DE016F10699F0F70131917F0122
:103BA00048E09BB9000000C037FF8BB9330F00001D
:103BB00000C000C000C08BB900C04A9591F7EACFA1
:103BC0002FBF8FE594E00197F1F700C000000FB61A
:103BD000F894BEBE0FBEADBEEAE00C94EA26A6E0A5
:103BE000B0E0E5EFFDE10C94D52649835A83498185
:103BF0005A81992361F0222351F0CA010E94FA22CE
:103C0000182F682F89819A810E946A2304C0CA01F3
:103C10000E943623182F69817A81812F0E94A8146F
:103C20002696E3E00C94F126A4E3B0E0EAE1FEE19D
:103C30000C94D2264FA758AB69AB7AAB8BAB9CAB3D
:103C4000192F911110925602DE01989687E0FD011E
:103C500011928A95E9F786E0FE01BF9601900D92D8
:103C60008A95E1F7EFA4F8A80BA90023E9F021E079
:103C7000A7016AA57BA5C8010E94EF1D8091F901EB
:103C8000882391F0111102C087E001C086E089838A
:103C9000EA82FB828EEF8C8340E250E0BE016F5FD0
:103CA0007F4F82E00E948D1BE8A6F9A60CA71DA7F6
:103CB00087E0FE01B896DE01919601900D928A95FB
:103CC000E1F7CE0181960E94CC1681112CC087E0CD
:103CD000FE01B196DE01119601900D928A95E1F7F1
:103CE0006DA1662301F120911A0230E0C90101960D
:103CF000877099274091530250E08417950761F12E
:103D00006D8397E0929FD001939FB00D1124A55E23
:103D1000BD4FFE01319601900D929A95E1F7809387
:103D20001A020E94691617E08091530290911A02BC
:103D30008917F9F0189FC0011124855E9D4F0E94DC
:103D4000CC168823B1F08091530290E001968770E1
:103D5000992780935302E8CF0E94E82310921A0219
:103D600010925302E3E1F2E087E0DF011D928A95B1
:103D7000E9F7E496E6E00C94EE2627982F982F9822
:103D8000089526982E982E98089525982D982D9868
:103D90000895279A2F9A0895269A2E9A0895259A7B
:103DA0002D9A0895CF93DF93D82F0E94501DC82FCE
:103DB0005E980E94C51E0E94C11E0E94BD1E8C2FCF
:103DC00090E0FC013197E730F105A8F4ED55FF4F85
:103DD0000C9442280E94CF1E0EC00E94CF1E0E944B
:103DE000CC1E09C00E94CF1E04C00E94CF1E0E949C
:103DF000CC1E0E94C91E8D2FDF91CF910895A0E2A5
:103E0000B0E0E5E0FFE10C94D6269091F90199230A
:103E1000E9F00E94501D90914E038917B9F08093EC
:103E20004E038FE39CE90197F1F700C0000085E0A5
:103E3000898380914E038A838EEF8B8340E250E02A
:103E4000BE016F5F7F4F82E00E948D1BA096E2E073
:103E50000C94F226A0E2B0E0E0E3FFE10C94D62659
:103E60009FEF99838A8340E250E0BE016F5F7F4FEE
:103E700082E00E948D1BA096E2E00C94F226A1E065
:103E8000B0E0E5E4FFE10C94D4268730F8F420910B
:103E90000E0130910F01232BD1F521E030E0A90173
:103EA00002C0440F551F8A95E2F7CA0180958983A5
:103EB0000AE010E0AE014F5F5F4F62E180E40E94D4
:103EC000CB2590930F0180930E0121C090E0FC015F
:103ED000E957FE4F208121111AC0F894FC01E758E0
:103EE000FE4F8081E82FE295EF70F0E031A1282F9E
:103EF0002F7081E090E001C0880F2A95EAF7932F98
:103F0000982B91A392A18095892382A378942196DE
:103F1000E4E00C94F0260F931F93CF930EE811E08A
:103F2000C7E0F80181918F01811103C08C2F0E949D
:103F3000641DCF5FCE30A9F7CF911F910F910895E7
:103F4000A1E0B0E0E6EAFFE10C94D426082F873028
:103F5000C8F480910E0190910F01892BE9F5198227
:103F60000AE010E021E030E0AE014F5F5F4F63E117
:103F700080E40E94192690930F0180930E0189819D
:103F800080952BC00E943F1FA3E7B1E020E030E006
:103F900010E051E04D91E42FE295EF70F0E080A148
:103FA00090E04F7002C0959587954A95E2F780FDA5
:103FB00007C0852F022E01C0880F0A94EAF701C0BE
:103FC00080E0182B2F5F3F4F2630310519F7802FE7
:103FD0000E94641D812F01C080E02196E4E00C94D2
:103FE000F026CF93DF93A3E7B1E049E751E061E02A
:103FF00070E0F8948D91E82FE295EF70F0E021A148
:104000008F70EB0102C0CC0FDD1F8A95E2F7CE0165
:104010009C2F9095922391A392A1892B82A37894AF
:104020004A175B0731F7DF91CF910895A2E0B0E026
:10403000ECE1F0E20C94D42680E290E090930F0142
:1040400080930E0180914D0381110EC00E940325C3
:1040500081E080934D032FEF83ED90E3215080406A
:104060009040E1F700C0000019828FE38A830AE0E4
:1040700010E022E030E0AE014F5F5F4F60E080E48F
:104080000E94CB2590930F0180930E01892B69F438
:1040900022E030E0AE014F5F5F4F6CE080E40E94B1
:1040A000CB2590930F0180930E0180910E012296F3
:1040B000E4E00C94F0268091380380FF05C0E1EB2A
:1040C000F2E04DEE52E00DC0E1EBF2E08DEE92E059
:1040D000118210821282138234968E179F07C1F7C5
:1040E000EECF928120813181892F291708F4822F08
:1040F000381708F4832F8383381B3183281B2083D0
:10410000981B928334964E175F0759F76FE070E063
:1041100081EB92E00E94861D08959091380390FFF4
:104120000DC0E1EBF2E08183608342831382349619
:1041300092E0ED3EF907B9F70E945B200895809167
:104140003803282F2695269530E02115310519F4DE
:104150008370846005C02B32310524F08370886A37
:10416000809338030895A0E0B0E0E9EBF0E20C940E
:10417000CC2649015A016B017C010E949F208401D9
:10418000A4016A2D7B2D88E090E00E948F27940186
:104190004A2D5B2DB601C70100E20E947228622FF2
:1041A00083E290E00E947D27CDB7DEB7ECE00C946F
:1041B000E82680913C03882319F0815080933C03CA
:1041C000209138033091390340913A0350913B03D9
:1041D00060913C0370913D0380913E0390913F03B9
:1041E0000E94B320089580913C03833018F48F5FC0
:1041F00080933C03209138033091390340913A0376
:1042000050913B0360913C0370913D0380913E03CC
:1042100090913F030E94B3200895A0E0B0E0E3E155
:10422000F1E20C94CE26E82EF62EE901E42FF0E020
:10423000611106C0EF5AF84FE4914E2F2E2F71C036
:10424000062F10E0EF5AF84F4491F42FC42ED12CD2
:1042500026E0829FC00111242FEF30E0B9010E94B7
:10426000B2265BEA5603C001579F900D11248E0DB4
:10427000911D8E0D911D582F550F580FD901A01B60
:10428000B10BAC9DC001AD9D900DBC9D900D112456
:10429000E92FF59ED0011124AB2FBB277901EA1A33
:1042A000FB0AEC9CD001ED9CB00DFC9CB00D1124E0
:1042B0005901A51AB108A09E7001A19EF00CB09EF4
:1042C000F00C1124EF2CFF242E193F092C9D8001A6
:1042D0002D9D100D3C9D100D1124212F6230710574
:1042E00091F048F461157105E1F061307105B9F4A0
:1042F000242F4B2F16C06430710569F040F06630F2
:10430000710579F00CC0242F492FE12F0AC0492FE5
:10431000EF2F2B2F06C0292FE42F412F02C0292F6A
:10432000EB2F49832883EA831B82CDB7DEB7EAE00F
:104330000C94EA26A4E0B0E0E0EAF1E20C94D62680
:104340009091380390FF0AC09E012F5F3F4F0E945B
:104350000D214B8169818A810E948D202496E2E0A3
:104360000C94F226A4E0B0E0E8EBF1E20C94C9264C
:10437000F82E762EE42E622E9091380390FF6DC0B9
:10438000E92FE695E695AE2FB0E0AB56BE4F8C9187
:10439000809355039C7F943061F49E012F5F3F4FC3
:1043A0008F2D0E940D214B8169818A810E948D2071
:1043B0003DC0823019F4E0903B0338C0863019F4D8
:1043C000F090390333C08930D9F3893179F5E95157
:1043D0008E2F8170582EE695F0E0EF5AF74FE4915A
:1043E0000E2F10E081EBC82E82E0D82EA12CB12C2C
:1043F0009FE0892E912CC501B4010E94B2268F2D19
:10440000511002C0860F01C0861B96014E2D672DEC
:104410000E940D21A00EB11E84E0C80ED11C8DEEAD
:10442000C81682E0D80639F70E945B20F092390363
:1044300070923A03E0923B03662079F020913803B2
:1044400060913C0370913D033F2D472D5E2D80917F
:104450003E0390913F030E94B3202496EFE00C941A
:10446000E526E8E3F3E043812CE0421B08F440E05A
:1044700021E0628181810E94B2210895E8E3F3E0A6
:1044800043812CE0420F08F44FEF21E062818181EB
:104490000E94B2210895E8E3F3E062812FEF621BEE
:1044A00008F460E021E0438181810E94B2210895F7
:1044B000E8E3F3E062812FEF620F08F46FEF21E091
:1044C000438181810E94B2210895E8E3F3E0818174
:1044D00021E0438162818C500E94B2210895E8E37B
:1044E000F3E0818121E043816281845F0E94B221F7
:1044F0000895609138036695669570E04BE050E052
:1045000084E191E00E948E28892B19F481E0809348
:1045100056030E94441C9093500380934F030895C8
:104520009091380390FF40C09370811102C0946055
:1045300007C08B3210F0986A03C0880F880F982B41
:1045400090933803662391F020913803309139031A
:1045500040913A0350913B0360913C0370913D03BD
:1045600080913E0390913F030E94B32060913803F5
:104570006695669570E04BE050E084E191E00E9422
:104580008E28892B19F01092560302C00E947922BE
:1045900081E08093520320E040913B0360913A0315
:1045A000809139030E94B221089561E00E94902217
:1045B0000895E8E3F3E080818160808386958695A5
:1045C0000E94D52208958091380386958695815062
:1045D00009F48AE261E00E949022089580913803F4
:1045E000869586958F5F8B3208F081E061E00E94AE
:1045F00090220895CF92DF92FF920F931F93CF9353
:10460000DF936C010091D4018091D201082BC7E0A7
:10461000D0E010E0C8010C2E02C0959587950A9451
:10462000E2F780FD04C02197A8F7F12C09C0FC2E09
:10463000B6018C2F0E94A8140E94C514019799F30B
:104640008F2DDF91CF911F910F91FF90DF90CF9031
:104650000895CF93DF93EC010E94FA22BE010E94DD
:10466000A8140E94C514DF91CF910895292F9E3080
:1046700078F5863068F590E036E0239F800D911D37
:104680001124682F677023E0969587952A95E1F7A6
:10469000FC01EE0FFF1FE80FF91FE95AFC4F40E045
:1046A00050E080E0219130E0062E02C0369527953B
:1046B0000A94E2F721703327042E01C0220F0A94D6
:1046C000EAF7822B4F5F5F4F4330510559F708954A
:1046D00080E00895292F9E3088F5863078F590E0A7
:1046E00036E0239F800D911D1124282F277051E063
:1046F00001C0550F2A95EAF723E0969587952A95EC
:10470000E1F7FC01EE0FFF1FE80FF91FE95AFC4F1C
:1047100020E030E070E04081CB01022E02C096958F
:1047200087950A94E2F781708195842785238427F1
:1047300081932F5F3F4F2330310569F70895CF9361
:104740000E94D21EC82F0E94FF1EC093D401CF9199
:10475000089521E030E001C0220F8A95EAF7209504
:104760008091D40182230E949F23089521E030E0AC
:1047700001C0220F8A95EAF78091D401822B0E9412
:104780009F2308958093D2010895FC012481222360
:10479000D9F0808191810E94292392959F70963053
:1047A00079F010F4925001C09A50923068F4803F32
:1047B00069F018F4883E40F409C0843F29F406C02B
:1047C000883E20F0813F11F080E0089581E0089557
:1047D00010927F0280911001882341F0809146035E
:1047E00087FF04C08EE1E0E9F2E003C086E0E8E87C
:1047F000F2E0DF011D928A95E9F780E090E00E94E7
:10480000031D80E090E00E94DE1C109256020E9480
:10481000E9150895882321F00E94E2150E94E91508
:104820000895882339F090917F02892B80937F022D
:104830000E94E9150895882339F19CEF980F913A69
:1048400018F40E94791C0DC090E2980F983060F423
:10485000877091E001C0990F8A95EAF7892F0E942D
:10486000E2150E94E91508959BE5980F933028F40E
:1048700080E090E00E94031D0895885A8B3120F457
:1048800080E090E00E94DE1C0895CF93882309F415
:1048900065C0C82F8CEF8C0F813AA0F58091100174
:1048A0008823E1F08091460387FF18C0EC2FE6953E
:1048B000E695E695F0E0E257FD4F8281282F30E043
:1048C0004C2F477081E090E002C0880F991F4A95F5
:1048D000E2F782239323892B61F410C0E8E8F2E029
:1048E0008EE892E02191C21721F08E179F07D1F731
:1048F00005C08C2F0E94791C0E94E9158C2F0E9404
:10490000A71C10C080E28C0F883078F4C77081E05B
:1049100090E001C0880FCA95EAF790917F02892B39
:1049200080937F020E94E91519C0EBE5EC0FE3309C
:1049300040F4F0E0E65CFE4F808190E00E94031DB1
:104940000DC0C85ACB3150F4EC2FF0E0EE0FFF1F32
:10495000E35CFE4F808191810E94DE1CCF9108951F
:10496000EF92FF920F931F93CF93DF93182FEB01DA
:104970001092BC0084EA8093BC000E94441C7C011D
:104980008091BC0087FD0DC0CF3F8FEFD807C1F3EA
:10499000C7010E94351CC817D90790F78EEF9FEF0B
:1049A0002DC08091B900887F883041F08091B90096
:1049B000887F803119F08FEF9FEF20C01093BB00EC
:1049C00084E88093BC000E94441C8C018091BC0050
:1049D00087FD0BC0CF3F8FEFD807C1F3C8010E94FE
:1049E000351CC817D90790F7D9CF8091B900887FB7
:1049F000883111F08034F9F680E090E0CDB7DEB771
:104A0000E6E00C94EE261092B9008CE08093B8009A
:104A100008950F931F93CF93DF93EB018093BB0017
:104A200084E88093BC000E94441C8C018091BC00EF
:104A300087FD0DC0CF3F8FEFD807C1F3C8010E949B
:104A4000351CC817D90790F78EEF9FEF0CC0209147
:104A5000B900287F81E090E0283211F480E090E0F6
:104A6000919581959109DF91CF911F910F910895B3
:104A70000F931F93CF93DF93EC0184EC8093BC00E2
:104A80000E94441C8C018091BC0087FD0DC0CF3F6B
:104A90008FEFD807C1F3C8010E94351CC817D9078A
:104AA00090F78EEF9FEF03C08091BB0090E0DF9105
:104AB000CF911F910F9108950F931F93CF93DF9381
:104AC000EC0184E88093BC000E94441C8C0180911E
:104AD000BC0087FD0DC0CF3F8FEFD807C1F3C801E1
:104AE0000E94351CC817D90790F78EEF9FEF03C0BF
:104AF0008091BB0090E0DF91CF911F910F910895BD
:104B0000A0E0B0E0E6E8F5E20C94CB26782EB62ED5
:104B1000A72E6A0189010E94441C4C010431110531
:104B200058F00F3F8FEF180751F0C80164E170E0B3
:104B30000E94B226EB0105C0C1E0D0E002C0C5E092
:104B4000D0E0BE01872D0E94B0247C0197FD05C0F6
:104B5000CB2DDA2DCC0EDD1E12C00F3F8FEF1807C4
:104B600081F3C4010E94351C0817190750F7F0CFD4
:104B7000F7FC08C0B80189910E9409257C01CC1579
:104B8000DD05B1F784E98093BC00C701CDB7DEB77E
:104B9000EDE00C94E726A0E0B0E0E1EDF5E20C9446
:104BA000CA26682E762E5A0169010E94441C4C01C7
:104BB0000431110558F00F3F8FEF180751F0C8016D
:104BC00064E170E00E94B226EB0105C0C1E0D0E0D4
:104BD00002C0C5E0D0E0BE01862D0E94B0247C0159
:104BE00097FF0BC00F3F8FEF1807A9F3C4010E9476
:104BF000351C0817190778F713C0B801872D0E94D4
:104C000009257C01E501CA0CDB1CCC15DD0541F052
:104C1000F7FC06C0B80189910E9409257C01F5CFF7
:104C200084E98093BC00C701CDB7DEB7EEE00C94F9
:104C3000E626A0E0B0E0EFE1F6E20C94CA26782E7A
:104C4000662E7A01E9010E94441C5C0104311105C1
:104C500058F00F3F8FEF180759F0C80164E170E07A
:104C60000E94B2266B0107C0CC24C394D12C03C090
:104C700025E0C22ED12CB601872D0E94B0244C0114
:104C800097FF0BC00F3FEFEF1E07A9F3C5010E946E
:104C9000351C0817190778F72BC0B801862D0E941C
:104CA00009254C0197FD24C0F72DF1607F2E0E944D
:104CB000441C5C010431110528F10F3F8FEF1807E8
:104CC00029F1C80164E170E00E94B2266B01B601CF
:104CD000872D0E94B0244C0197FD1CC067012197CD
:104CE000C6018E199F098C179D0758F597FE1DC0A8
:104CF00084E98093BC00C4011816190674F580E09D
:104D000090E02BC0CC24C394D12CE1CF85E0C82EF9
:104D1000D12CDDCF0F3FEFEF1E07C9F2C5010E9476
:104D2000351C0817190798F6D9CFC8010E943825F5
:104D30004C0197FD02C0F6018083FFEFCF1ADF0A16
:104D4000CFCF97FCD5CFC8010E945C254C0197FDC1
:104D5000CFCFCE0DDF1D8883CBCFCDB7DEB7EEE052
:104D60000C94E626AA1BBB1B51E107C0AA1FBB1F60
:104D7000A617B70710F0A61BB70B881F991F5A95E7
:104D8000A9F780959095BC01CD0108952F923F928F
:104D90004F925F926F927F928F929F92AF92BF924B
:104DA000CF92DF92EF92FF920F931F93CF93DF93F7
:104DB000CDB7DEB7CA1BDB0B0FB6F894DEBF0FBE54
:104DC000CDBF09942A88398848885F846E847D84A1
:104DD0008C849B84AA84B984C884DF80EE80FD80A3
:104DE0000C811B81AA81B981CE0FD11D0FB6F89419
:104DF000DEBF0FBECDBFED0108958F929F92AF929F
:104E0000BF92CF92DF92EF92FF92CF93DF93EC01AC
:104E1000688179818A819B81611571058105910580
:104E200021F464E279ED8BE597E02DE133EF41E089
:104E300050E00E94B12749015A019B01AC01A7EA49
:104E4000B1E40E94D0276B017C01ACEEB4EFA50168
:104E500094010E94DE27DC01CB018C0D9D1DAE1D4F
:104E6000BF1DB7FF03C00197A109B048888399838C
:104E7000AA83BB839F77DF91CF91FF90EF90DF9064
:104E8000CF90BF90AF909F908F9008950E94FD2685
:104E9000089580E091E00E94FD260895A0E0B0E032
:104EA0008093000190930101A0930201B09303014C
:104EB0000895F999FECF92BD81BDF89A992780B5E2
:104EC0000895A6E1B0E044E050E00C94A327A8E1E7
:104ED000B0E042E050E00C94A327DC01A40FB51F22
:104EE0004150504048F0CB01840F951F2E910E94F5
:104EF0007E2741505040D0F70895262FF999FECFD4
:104F000092BD81BDF89A019700B4021639F01FBA1C
:104F100020BD0FB6F894FA9AF99A0FBE0895039639
:104F2000272F0E947E270E947D27252F0E947E2703
:104F3000242F0C947E270196272F0E947E270C9405
:104F40007D27DC01CB01FC01F999FECF06C0F2BD43
:104F5000E1BDF89A319600B40D9241505040B8F737
:104F60000895052E97FB1EF400940E94C82757FD54
:104F700007D00E94E32707FC03D04EF40C94C82707
:104F800050954095309521953F4F4F4F5F4F089575
:104F900090958095709561957F4F8F4F9F4F0895A5
:104FA0000E940528A59F900DB49F900DA49F800D91
:104FB000911D11240895B7FF0C94D0270E94D0278B
:104FC000821B930B0895A1E21A2EAA1BBB1BFD01A5
:104FD0000DC0AA1FBB1FEE1FFF1FA217B307E407D8
:104FE000F50720F0A21BB30BE40BF50B661F771F30
:104FF000881F991F1A9469F7609570958095909510
:105000009B01AC01BD01CF010895A29FB001B39FE8
:10501000C001A39F700D811D1124911DB29F700DC1
:10502000811D1124911D0895991B79E004C0991FD9
:10503000961708F0961B881F7A95C9F780950895F2
:1050400087FB082E062687FD819567FD61950E94E6
:1050500014280EF4919507FC8195089597FB072E6F
:1050600016F4009407D077FD09D00E94B22607FC01
:1050700005D03EF4909581959F4F08957095619568
:105080007F4F0895EE0FFF1F0590F491E02D0994D6
:105090000E940528332312F48A1B9B0B0C94522880
:1050A0000E940528B7FF0895821B930B08950F9364
:1050B000083090F0982F872F762F652F542F432F8D
:1050C000322F22270850F4CF220F331F441F551FC1
:1050D000661F771F881F991F0A95B2F70F910895D1
:1050E00097FB10F8169400080F93083098F00850BA
:1050F000232F342F452F562F672F782F892F902D50
:10510000F4CF05949795879577956795579547952B
:10511000379527950A95AAF70F910895FC014150FC
:10512000504030F001900616D1F73197CF01089525
:10513000882799270895FB01DC0104C08D91019017
:10514000801921F441505040C8F7881B990B0895ED
:04515000F894FFCF01
:10515400010000000219C20EBB0EB30EB40E2000F3
:105164000101020101191A1B1C1D1E1F20212233DB
:10517400343578572F4C5A4C764C0044226DF80144
:10518400D60169014E0267028702818283E200E947
:1051940000EA00B500B600B700CD008301CC008A58
:1051A40001920194012102230224022502260227EE
:1051B400022A02B300B4006F0070009F01CB019F6C
:1051C40002A002F0F1F4F5F6F70000000000000080
:1051D4003031323392936601010101010101000073
:1051E400000000000000010202020206060609098E
:1051F400090909090F0F0F0F0F0F151515181919A4
:1052040019191919191919192324252525252525AD
:00000001FF
