:100000000C94D7030C94F4030C94F4030C94F403B1
:100010000C94F4030C94F4030C94F4030C94F40384
:100020000C94F4030C94F4030C94260D0C94680CBB
:100030000C94621B0C94F4030C94F4030C94F403DE
:100040000C94F4030C94F4030C94F4030C94F40354
:100050000C94F4030C94211B0C94F4030C94F403FF
:100060000C94F4030C94F4030C94F4030C94F40334
:100070000C94F4030C94F4030C94F4030C94F40324
:100080000C94F4030C94F4030C94F4030C94F40314
:100090000C94F4030C94F4030C94F4030C94F40304
:1000A0000C94F4030C94F4030C94F403E304570548
:1000B000EB04B504B904EF04BC04F204FD04C70466
:1000C0004D05CB040105CF0405052F05D304090513
:1000D0003905D9040F051905C004F604C304F90451
:1000E000DE041405250545054705B104E704600550
:1000F0008405A305A805AD05B205B705BC05C10576
:10010000C605CB05D0058B04D705DA05DD05E0056E
:10011000E3058D04E605E905EB05B606B606E90636
:10012000E90666078308830883088407F807090837
:100130000908800AA70A500CA70A500CF30A160BEC
:10014000500C0B0C1B0C741D791D831D771D7C1D21
:10015000811D7F1DAD1EB01EB31EB61EB91EBC1E76
:10016000BF1E05010980A101850319012AB70015E9
:100170000126B700950175108100C0050C0901A189
:1001800001850419012AA002150126A00295017516
:10019000108100C005010906A1018506050719E0C7
:1001A00029E7150025019508750181020507190049
:1001B00029EF1500250195F0750181020508190147
:1001C0002905950575019102950175039101C006F8
:1001D00060FF0961A1010962150026FF00952075E5
:1001E0000881020963150026FF0095207508910219
:1001F000C005010906A101050719E029E715002539
:10020000019508750181029501750881010507199D
:100210000029FF150026FF009506750881000508D6
:100220001901290515002501950575019102950112
:1002300075039101C009025B00030100A0FA0904E3
:100240000000010301010009211101000122440005
:1002500007058103080001090401000203000000F2
:10026000092111010001222200070582032000015B
:100270000705030320000109040200010300000038
:10028000092111010001226D0007058403200001EE
:1002900012010002000000089732754901000102B6
:1002A000000122034500720067006F0044006F00E8
:1002B0007800200045005A002000530068006900C3
:1002C0006E006500000028035A0053004100200022
:1002D00054006500630068006E006F006C006F00E2
:1002E0006700790020004C0061006200730000008C
:1002F0000403090435002B00E100E0005200000077
:100300001E0034000400330251004E001F0036006E
:1003100012001400000F29282000370008420D00A9
:10032000E2002A002100130018410E0023524B0066
:1003300022001C000C001B000000500126022F00B0
:100340000000380000004F0127023000000031009B
:100350000000350A230009000700050000002B08F3
:1003600024000A000B00100023524A00250006005A
:1003700017001A00E7002C002600150011001900D4
:10038000E600280027000F0016001D0050004D0059
:1003900029002E00E5002D004F0000001370010021
:1003A0000100010001000000010001002D0001001A
:1003B000010001000100240225020100010029289A
:1003C000010035003800010001002A000100010091
:1003D0000100010001000100010001000100010015
:1003E0000000010001000100000001000000010008
:1003F000010001000000010000000100220235029E
:10040000330034020000010031022F0226022F00C7
:1004100001000100200230022702300001002C0000
:100420001F021E022D02360201002800230238029C
:1004300021023702010001002D002E022E003100A2
:1004400001000000010001000100010001000000A6
:1004500001000100010001000100057E0100010012
:1004600001000100010027780100010001000100E6
:100470000100287801000100010001000100047E54
:1004800001000100010001000000217801000100CD
:10049000000001000000037E0100010000000100D7
:1004A0000000207801000100010001000000027E30
:1004B00001000100AC000100010001000100010089
:1004C000AE0001000100237801000100AB00010033
:1004D0000100247801000100010001000100010079
:1004E0000100A900AA00A80001000000007C010092
:1004F00001000100010000003A00010001000100BC
:10050000010001003B00010050000100010029280A
:100510003C0052005100010001002A003D00010092
:100520004F000100010001003E0001000100010038
:1005300000000100010001000000010000000100B6
:100540000100010000000100000001003F00570011
:10055000560024020000010040005F005C005900CA
:1005600001000100410060005D005A0062002C00A3
:10057000420061005E005B0063002800430025022A
:10058000540031002E00010044004500010001002C
:10059000010000001E0F0500047F3F1F6432146439
:1005A0003214783C1E1E140A052223252628292AE7
:1005B0002C2D2F3032333536383A3B3D3E404243C6
:1005C0004547494A4C4E5051535557595A5C5E6005
:1005D00062646668696B6D6F71737577797B7D7F17
:1005E00081838587898A8C8E90929496989A9C9E16
:1005F0009FA1A3A5A7A8AAACAEAFB1B3B4B6B8B932
:10060000BBBCBEBFC1C2C3C5C6C7C9CACBCCCDCE99
:10061000D0D1D2D2D3D4D5D6D7D7D8D9D9DADADB7C
:10062000DBDBDCDCDCDCDCDDDDDDDDDCDCDCDCDC08
:10063000DBDBDBDADAD9D9D8D7D7D6D5D4D3D2D247
:10064000D1D0CECDCCCBCAC9C7C6C5C3C2C1BFBE2F
:10065000BCBBB9B8B6B4B3B1AFAEACAAA8A7A5A39A
:10066000A19F9E9C9A98969492908E8C8A89878559
:1006700083817F7D7B79777573716F6D6B69686638
:100680006462605E5C5A5957555351504E4C4A490A
:1006900047454342403E3D3B3A3836353332302FB2
:1006A0002D2C2A29282625232200010101010101E0
:1006B0000101010202020202020202020303030319
:1006C00003030303040404040404040505050505E9
:1006D00006060606060707070707080808080909A7
:1006E00009090A0A0A0B0B0B0C0C0C0D0D0D0E0E52
:1006F0000E0F0F0F101011111112121313141415E5
:100700001516161717181819191A1A1B1B1C1D1D58
:100710001E1E1F20202122222324242526262728AE
:1007200029292A2B2C2D2D2E2F30313232333435DE
:10073000363738393A3B3C3D3E3F404142434445E1
:10074000464748494A4C4D4E4F50515354555658C0
:10075000595A5B5D5E5F616264656668696B6C6D6A
:100760006F7072737577787A7B7D7E8082838587E0
:10077000888A8C8E8F91939596989A9C9EA0A2A31E
:10078000A5A7A9ABADAFB1B3B5B7BABCBEC0C2C423
:10079000C6C9CBCDCFD1D4D6D8DBDDDFE2E4E7E9E3
:1007A000EBEEF0F3F5F8FAFDFFFFAA7F55401124B8
:1007B0001FBECFEFDAE0DEBFCDBF11E0A0E0B1E0B9
:1007C000ECEAF0E502C005900D92A43AB107D9F722
:1007D00023E0A4EAB1E001C01D92AA36B207E1F716
:1007E0000E94BA140C9454280C940000A0E0B0E0CD
:1007F000ECEFF3E00C945A25FC018481882309F482
:10080000B9C48F0121E0408151816281738195815A
:100810000E947E1CEC01F8018581C115FEE7DF070F
:10082000D1F5882309F47DC090916B0281E0890F96
:100830008770987F853020F4892B80936B0202C0EB
:1008400090936B0280916B0287702FEF829FC001A3
:10085000112495958795959587959927909389006B
:100860008093880090938B0080938A0090938D00F2
:1008700080938C0040916B0250916C0260916D02EC
:1008800070916E028FE090E00E941A2680917E02A5
:100890000E945E1D46C0C3309EE7D90799F028F438
:1008A000C230FEE7DF0751F03CC0C4302EE7D2076C
:1008B000B1F0C5309EE7D90709F133C0882309F4A8
:1008C0004AC429C0882309F446C40E94022281E058
:1008D0000E94FE2121E04FEF6FEF8CEA0CC08823CD
:1008E00009F439C40E94022281E00E94FE2121E025
:1008F00040E86FEF86E50E94DF202DC4882309F4CD
:100900002AC40E94022281E00E94FE2121E04FEFD2
:100910006FEF8BE1F0CF81E001C088E10E94FE2102
:100920001AC4F8018581882309F4E0C0CE019057EC
:10093000839708F055C184E090E00E94F2259093DF
:10094000A8018093A701FE01E150F047E232F105D2
:1009500020F4EA5AFF4F0C94CD268091A7018160C4
:10096000ACC08091A8018860B4C08091A70182606A
:10097000A4C08091A70120C08091A70188609DC07C
:100980008091A8011EC08091A8018260A2C08091C0
:10099000A701806192C08091A70180628EC0809182
:1009A000A70180648AC00E9429238091A7018068E2
:1009B00084C08091A701886084607FC08091A80175
:1009C0008260816086C08091A7018E7F76C0809111
:1009D000A801877F7EC08091A7018D7F6EC0809126
:1009E000A70120C08091A701877F67C08091A801DF
:1009F0001EC08091A8018D7F6CC08091A7018F7E61
:100A00005CC08091A7018F7D58C08091A7018F7B2A
:100A100054C00E9429238091A7018F774EC08091F6
:100A2000A701877F8B7F49C08091A8018D7F8E7F32
:100A300050C08091A70182FB222720F991E09227E4
:100A400090FB82F990FB83F938C08091A801982F20
:100A5000909591708E7F892B90FB81F93AC080919F
:100A6000A70186FB222720F991E0922790FB86F9C7
:100A700024C00E9429238091A70187FB222720F907
:100A800091E0922790FB87F918C061E001C060E017
:100A90008EE090E00E9408261EC08091A70184FB92
:100AA000222720F991E0922790FB84F906C08091DB
:100AB000A701982F909590FB80F98093A7010BC018
:100AC0008091A80183FB222720F991E0922790FBD7
:100AD00083F98093A8016091A7017091A80184E037
:100AE00090E00E9426260E94292335C380915F0250
:100AF0008272FE01E052F847E531F10508F0E0C0EE
:100B0000E858FF4F0C94CD262091290320FF18C0F0
:100B10002E7F2093290330912A0340912B0350917B
:100B20002C0360912D0370912E0380912F039091DF
:100B300030030E94CD1F109244030E94161F0BC366
:100B40000E94022208C34BE052E265E172E22CC02F
:100B500045E152E26BE072E227C041E951E26BE904
:100B600071E222C04BE951E261E971E21DC047E741
:100B700051E264E871E218C044E851E267E771E2CB
:100B800013C04DE551E26AE671E20EC04AE651E259
:100B90006DE571E209C043EF5FE16DE070E204C012
:100BA0004DE050E263EF7FE10E94631CD4C265E038
:100BB00082E013C068E086E010C06EE089E00DC0FE
:100BC00064E18FE00AC067E185E107C062E289E184
:100BD00004C083E2A3CE6AE285E20E94501CBBC23D
:100BE000C330ECE7DE0709F457C048F4C1152CE721
:100BF000D207A9F0C130DC4709F454C061C0CB353D
:100C00009CE7D90709F459C0CC35ECE7DE0709F4B5
:100C10004CC0CA35DC4709F053C081E04FC00E9488
:100C200029232FEF84E39CE0215080409040E1F79E
:100C300000C00000F89481E08093E00080E280939F
:100C4000D8001092C900EFE1FEE43197F1F700C03F
:100C500000001DBA109268001CBC10BE1FBA109292
:100C60007A0010926E0010926F0010927100109234
:100C700072001092C9001092BC0014B817B81AB8CC
:100C80001DB810BA1092BC0015B818B81BB81EB821
:100C900011BA0C94003F5FC26FEF7FEF80E090E0ED
:100CA0000E9426260E94481D56C28091A80182FB00
:100CB000882780F991E0892701C080E00E94B9115E
:100CC000F8018581C081D181882349F0CE010E943D
:100CD0002022F82E682FCE010E94902204C0CE015F
:100CE0000E945C22F82EBE018F2D0E94900F0E9460
:100CF000AD0FF82EC92FC82EF801D581E680E294F9
:100D00009FE0E92280913C02877001F1DD23F1F040
:100D10008C2F807F803469F080E28F0D8830B0F0B6
:100D20008C2F807E803229F4F1E0FF1578F4EE20DC
:100D300069F08091A80182FF09C082E00E94A2119F
:100D400080913C028770DD24D3948111D12CBC2E7C
:100D5000B2948FE0B8228B2D90E08C30910508F092
:100D6000D2C1FC01E357FF4F0C94CD268C2F807F1E
:100D7000CF70882311F0C295C07FDD23B9F0CC235A
:100D800009F4AFC180E28F0D883010F0C11006C0A9
:100D900090915F02C92BC0935F0205C090915E02E3
:100DA000C92BC0935E020E944D119BC18F2D0E94E2
:100DB0005A23CC2309F4A7C180E28F0D883088F133
:100DC000CC2079F1C09590915E02C923C0935E0258
:100DD0002BC08C2F807FCF70803211F0C295C07FE6
:100DE0008F2DCC2029F021E0C21609F44CC055C04B
:100DF0008091A80182FD1BC0DD2369F0CC2339F06E
:100E000090915F02C92BC0935F020E944D1180E058
:100E10000E94B32378C180E00E945A23CC2309F4B6
:100E200072C18C2F0E9446110E944D116CC1DD23AE
:100E300081F0EE20B1F181E0E81265C190915D0290
:100E40008C2F8923C81709F45EC1C92BC0935D029A
:100E50005AC1E11058C18C2F0E94492380915D0234
:100E60009C2F982329F09C2F9095892380935D02D5
:100E70008091A6019C2F982309F445C1C0958C232D
:100E80008093A60140C1DD2329F091E09E1508F46E
:100E90003AC107C0E11037C115C0DD2331F0E110C0
:100EA00020C18C2F0E9450232EC1EE2059F089338F
:100EB00009F026C1EFEFF7EE23E0E150F0402040CB
:100EC000E1F71CC18C2F0E9449231DC18C2F8695F0
:100ED0008695837019F0813061F015C1DD2321F012
:100EE0008F2D9C2F937002C080E090E00E940D1C1B
:100EF00010C1DD2321F08F2D9C2F937002C080E064
:100F000090E00E94E81B05C18C2F8370A9F5D111D8
:100F1000FEC04F2D429546954770440F440F8F2DCC
:100F20008F7090E09C01042E01C0220F0A94EAF712
:100F3000F4FE08C08FE090E001C0880F4A95EAF700
:100F4000809501C080E0C695C695C370C23069F037
:100F500088F490916002C13019F0822B892302C07D
:100F6000922B892B0E940323D2C0822B9091600286
:100F70008927F8CF822BF6CFDD2319F08C2F8170D3
:100F800001C08695882309F4C2C04F2D429546952D
:100F90004770440F440F8F2D8F7090E09C01042EFA
:100FA00001C0220F0A94EAF7F4FE08C08FE090E037
:100FB00001C0880F4A95EAF7809501C080E0C69588
:100FC000C695C370C23059F078F490917E02C1305A
:100FD00019F0822B892309C0922B892B06C0822B02
:100FE00090917E02892701C0822B0E94C5228FC06A
:100FF000CF70DD2339F08C2F0E94F7228F2D0E94B5
:10100000502385C08F2D0E9449238C2F0E94EA22F5
:101010007EC08F2D92EFC91669F19C1538F0E0EF74
:10102000CE1659F0F1EFCF1601F157C023EFC216DB
:1010300041F194EFC916A9F050C0DD2369F0E11029
:1010400062C0CF7181E090E001C0880FCA95EAF7D5
:1010500090917E0289271FC0E1E0EE1508F453C08D
:10106000F0CF8091A80182FD19C0DD2329F08C2FDB
:101070008F7126C0DD23D9F38C2F8F710E94EA2255
:1010800042C0DD2339F0CF7181E001C0880FCA95DD
:10109000EAF701C080E00E94C52235C0DD2399F047
:1010A000CF718C2F0E94F7228091A80182FF07C088
:1010B000F8E0CF9FC0011124836080933C028C2F05
:1010C0000E94F72220C081E00E94A21121E02E158B
:1010D000D0F482E00E94A21116C0DD2321F0EE20A0
:1010E00031F28F2D95CEEE2039F2893349F48FEF0E
:1010F00097EEE3E081509040E040E1F700C000004F
:101100008F2D0E945A2388EF8B0D843010F40E949B
:10111000321CDD20A9F080913C0280FD11C0F80155
:1011200015828695869586950E94F722C8010E94B1
:10113000F60380913C028695869586950E94EA2268
:1011400020E0F80140815181628173818481958121
:101150000E947E1C0FC080913C02877059F0F801FC
:101160008581882339F08091A80182FF03C082E045
:101170000E94A211CDB7DEB7E9E00C9476258091EC
:10118000CF0187FF11C08091E80082FD05C08091EA
:10119000DA018111F8CF11C08091E8008B770BC084
:1011A0008091DA01882349F08091E80080FFF8CF30
:1011B0008091E8008E778093E8000895982F97300B
:1011C00068F59093E900981739F07091EC00209140
:1011D000ED005091F00003C0242F762F50E021FD48
:1011E00002C09F5FECCF3091EB003E7F3093EB006D
:1011F0003091ED003D7F3093ED003091EB00316098
:101200003093EB007093EC002093ED005093F000CE
:101210002091EE0027FDE5CF80E008958F70809348
:10122000E90081E008952091D5013091D60126177B
:10123000370748F06115710539F42091E8002E77E1
:101240002093E80001C0B901FC0120E0611571059F
:1012500079F18091DA018823F1F18530F1F1809103
:10126000E80083FD3CC08091E80082FD2EC08091A3
:10127000E80080FFEBCF2091F3008091F20090E036
:10128000922B6115710551F08830910538F4219148
:101290002093F100615071090196F3CF21E0089786
:1012A00009F020E08091E8008E778093E800CECFAF
:1012B0002111CFCF0AC08091DA01882361F08530F7
:1012C00061F08091E80083FD0AC08091E80082FF10
:1012D000F2CF80E0089582E0089583E0089581E0F0
:1012E0000895089543E050E0BC0184E00E94FD1A97
:1012F0000895CF93DF93EC0180910A01811105C01D
:1013000048E050E0BE0181E00BC08091A70187FF5B
:1013100003C040E284E002C048E081E050E0BE014A
:101320000E94FD1A80E2FE01ACEAB1E001900D924C
:101330008A95E1F7DF91CF910895AAE2B0E0E3EA60
:10134000F9E00C946025EFECF1E087ED91E020915D
:10135000F10021938E179F07D1F78091D001833040
:1013600009F463C030F4813071F0823009F49DC01B
:10137000B4C08A3009F489C08B3009F46EC089305A
:1013800009F0ABC020C08091CF01813A09F0A5C01F
:101390008091E800877F8093E8008091D30190914D
:1013A000D401892B21F460E28CEA91E003C060E073
:1013B00080E090E070E00E9413098091E8008B7754
:1013C0008093E8008AC08091CF01813209F085C006
:1013D0008091D3019091D401009719F0029709F000
:1013E0007CC08091E800877F8093E8008091E800CE
:1013F00082FD05C08091DA018111F8CF6EC0209185
:10140000F3008091F20090E0922B029731F48091EA
:10141000F100813011F0863021F48091F100809349
:10142000AB018091E8008B7754C08091CF01813A65
:1014300009F053C08091D3019091D401892B09F018
:101440004CC08091E800877F8093E8008091E8009D
:1014500080FFFCCF80910A0137C08091CF0181329B
:10146000E1F58091D3019091D401892BB1F5809160
:10147000E800877F8093E8000E94BF088091D10137
:1014800080930A010E94292328C08091CF018132D4
:1014900021F58091E800877F8093E8000E94BF08D3
:1014A0008091D2018093AA0118C08091CF01813A26
:1014B000A1F48091E800877F8093E8008091E800A4
:1014C00080FFFCCF8091AA018093F1008091E80019
:1014D0008E778093E8000E94BF088091E80083FF28
:1014E000DFC18091CF019091D001492F50E04A3067
:1014F000510508F0D5C1FA01E756FF4F0C94CD26EF
:10150000803821F0823809F0CBC108C08091CC012D
:101510009091CD01992389F082600FC08091D30111
:101520008F70873008F0BCC18093E9008091EB0098
:1015300085FB882780F91092E9009091E800977F59
:101540009093E8008093F1001092F10070C1282F71
:101550002D7F09F0A5C1882319F0823061F0A0C168
:101560008091D101813009F09BC1933009F080E076
:101570008093CD012EC08091D10181112AC080912C
:10158000D3018F702FEF280F263008F089C1809388
:10159000E9002091EB0020FF1CC0933021F48091E2
:1015A000EB00806214C09091EB0090619093EB008F
:1015B00021E030E0A90102C0440F551F8A95E2F7EF
:1015C0004093EA001092EA008091EB0088608093DB
:1015D000EB001092E9008091E800877F8093E8009B
:1015E0000E94BF085DC181115BC11091D1011F77BD
:1015F0008091E3008078812B8093E3008091E80064
:10160000877F8093E8000E94BF088091E80080FFF8
:10161000FCCF8091E30080688093E300111102C049
:1016200082E001C083E08093DA013AC180588230C1
:1016300008F036C12091D1013091D2012C3D53E008
:10164000350779F583E08A838AE289834FB7F89476
:10165000DE01139620E03EE051E2E32FF0E05093EC
:101660005700E49120FF03C0E295EF703F5FEF70F9
:101670008E2F90E0EA3010F0C79601C0C0968D938F
:101680009D932F5F243149F74FBF8091E800877FFA
:101690008093E8006AE270E0CE0101960E9413098F
:1016A000B4C08091D3019091D401432F552743308A
:1016B0005105A9F068F44130510509F400C14230E8
:1016C000510509F0EDC08BE590E0E5E3F2E04BC099
:1016D0004132510529F14232510589F1E1C0C90178
:1016E000992781309105A1F058F0029709F0D8C0F0
:1016F000E2EAF2E0E4918E2F90E0E2EAF2E030C01C
:10170000E0EFF2E0E4918E2F90E0E0EFF2E028C00D
:10171000E6ECF2E0E4918E2F90E0E6ECF2E020C0FF
:101720008330910508F0BCC0880F991FFC01E35D70
:10173000FE4F0190F081E02D89E090E014C08330ED
:10174000910508F0ADC0FC01EE0FFF1FE95DFE4FF3
:101750000190F081E02DDC01AC5DBE4F8C9190E0FA
:10176000009709F49DC02091E800277F2093E800AE
:101770002091D5013091D6012817390708F4C90105
:1017800040E0009789F12091DA01222309F43DC05D
:101790002530D9F12091E80023FD37C02091E800E1
:1017A00022FD2FC02091E80020FFEBCF4091F300F5
:1017B0002091F20030E0342B009759F028303105A9
:1017C00040F444914093F100319601972F5F3F4FD1
:1017D000F3CF41E02830310509F040E02091E800E6
:1017E0002E772093E800CDCF4111CDCF0AC0809154
:1017F000DA01882351F0853041F08091E80083FDC3
:1018000004C08091E80082FFF2CF8091E8008B77DE
:101810008093E80045C0803809F042C08091E8001C
:10182000877F8093E8008091CE018093F1008091C2
:10183000E8008E77D3CE811133C08091D101909191
:10184000D2019927029764F58091E800877F809301
:10185000E8001091D1011093CE010E94BF08111130
:1018600006C08091E30087FD02C081E001C084E0F2
:101870008093DA0142E061EC81E00E94DE0842E2FE
:1018800061EC84E00E94DE0842E261EC82E00E94AA
:10189000DE0842E260EC83E00E94DE088091DA011B
:1018A0008091E80083FF10C08091E800877F8093DB
:1018B000E8008091EB0080628093EB0005C082E13C
:1018C00090E0E0E9F2E04FCFAA96E3E00C947C25AB
:1018D0001F920F920FB60F9211242F933F934F93A5
:1018E0005F936F937F938F939F93AF93BF93CF93A8
:1018F000DF93EF93FF93C091E900CF708091EC00EC
:10190000D82FD17080FDD0E81092E9008091F000CE
:10191000877F8093F00078940E949D091092E900DF
:101920008091F00088608093F000CD2BCF70C09341
:10193000E900FF91EF91DF91CF91BF91AF919F911E
:101940008F917F916F915F914F913F912F910F9068
:101950000FBE0F901F901895E8EDF0E080818E7F0C
:1019600080831092E2001092DA001092E100A0EE63
:10197000B0E08C9181608C9380818F77808319BCDB
:10198000A7EDB0E08C918E7F8C9380818F7E8083D9
:101990001092A9010895A0E0B0E0E1EDFCE00C9404
:1019A0005B25C8EDD0E088818F7E8883E7EDF0E08D
:1019B00080818160808384E082BF81E08093A9017F
:1019C00088818E7F888302EE10E0F80110821092E9
:1019D000DA0081EEC82ED12CF601108288818F7733
:1019E000888388818068888388818F7D888319BCFB
:1019F0001092DA011092CE011092CD011092CC011A
:101A000090EEE92EF12CF70180818B7F8083888115
:101A10008160888342E060E080E00E94DE08F60199
:101A200080818E7F8083F8018081816080838081C6
:101A300088608083F70180818E7F808388818061C8
:101A40008883CDB7DEB7E8E00C9477251F920F921C
:101A50000FB60F9211242F933F934F935F936F9381
:101A60007F938F939F93AF93BF93EF93FF93809157
:101A7000E10082FF09C08091E20082FF05C08091F1
:101A8000E1008B7F8093E1008091DA0080FF2AC023
:101A90008091D80080FF26C08091DA008E7F8093ED
:101AA000DA008091D90080FF18C080E189BD82E111
:101AB00089BD09B400FEFDCF81E08093DA018091F9
:101AC000A90181110FC00E94AC0C0E94CB0C809127
:101AD000E20084608093E20005C019BC1092DA0134
:101AE0001092A9018091E10080FF17C08091E2006F
:101AF00080FF13C08091E2008E7F8093E20080918E
:101B0000E20080618093E2008091D800806280933F
:101B1000D80019BC85E08093DA018091E10084FF50
:101B200030C08091E20084FF2CC080E189BD82E159
:101B300089BD09B400FEFDCF8091D8008F7D8093D0
:101B4000D8008091E1008F7E8093E1008091E200D7
:101B50008F7E8093E2008091E20081608093E200BA
:101B60008091CE01882311F084E007C08091E300CA
:101B700087FD02C081E001C083E08093DA0180919B
:101B8000DA018091E10083FF27C08091E20083FFAA
:101B900023C08091E100877F8093E10082E0809301
:101BA000DA011092CE018091E1008E7F8093E100F6
:101BB0008091E2008E7F8093E2008091E20080615C
:101BC0008093E20042E060E080E00E94DE088091C5
:101BD000F00088608093F000FF91EF91BF91AF918A
:101BE0009F918F917F916F915F914F913F912F9135
:101BF0000F900FBE0F901F9018952091E400309128
:101C0000E50095E64091EC00842F817040FF23C0F1
:101C10008091E80080FD1DC08091DA01882399F051
:101C2000853099F08091EB0085FD11C04091E40072
:101C30005091E5002417350729F3915011F09A01CE
:101C4000E1CF84E0089582E0089583E0089581E083
:101C5000089580E008954091E80042FFDDCF0895A7
:101C6000EF92FF920F931F93CF93DF937C018B0131
:101C70000E94FD0D811119C0E70101151105A1F0A8
:101C80008091E80085FD0AC08091E8008E778093FE
:101C9000E8000E94FD0D882381F307C0899180939D
:101CA000F10001501109E9CF80E0CDB7DEB7E6E0E1
:101CB0000C947925CF932091DA01243011F5C0914D
:101CC000E900CF703091EC00232F217030FD20E827
:101CD000C22B22E02093E9002091E80020FF0EC0F3
:101CE00040E050E060E270E00E94300E81111092FE
:101CF000D7018091E8008E778093E800CF70C09381
:101D0000E900CF91089580E008959091A70192FF96
:101D100010C041E0282F2471243009F040E031E068
:101D2000282F2871283009F030E0431711F02CE0FB
:101D3000822793FF10C041E0282F2471243109F03D
:101D400040E031E0282F2871283109F030E04317B6
:101D500011F02CE082273091A80130FF10C051E033
:101D6000282F2171213009F050E041E0282F2871FF
:101D7000283009F040E0541711F029E0822731FFA4
:101D800010C041E0282F2171213109F040E031E0FD
:101D9000282F2871283109F030E0431711F029E08D
:101DA000822794FD877E08958238910569F1B0F409
:101DB0008133910509F475C048F48932910509F41D
:101DC00067C08A32910509F471C008958533910581
:101DD00009F459C089339105B9F00895833E9105FE
:101DE00089F138F4803E9105D1F0823E910529F1C8
:101DF0000895863E9105C9F1873E9105D9F1843E4B
:101E0000910509F06CC027C02091A70120FD57C0A3
:101E100021FD55C02091A80123FD5BC0089580914C
:101E2000A70180FD48C08091A80180FF48C0809133
:101E3000A70184FD46C083EE51C08091A70182FFB7
:101E40003CC0F5CF8091A70182FD37C08091A801E9
:101E500080FD35C0ECCF8091A80181FF36C0809114
:101E6000A70184FD2EC087EE39C08091A70183FFB2
:101E70002AC0F5CF8091A70183FD25C08091A801DC
:101E800081FD23C0ECCF8091A70185FD22C01FC03A
:101E90008091A70185FD1BC08091A80183FF19C017
:101EA0000AC08091A70186FD16C017C08091A701C6
:101EB00086FD13C010C089E311C082EE0FC080EE12
:101EC0000DC080E00BC086EE09C084EE07C085E33C
:101ED00005C089E203C08AE201C081E390E0089571
:101EE00020913B029091020257E02917A9F030E0BF
:101EF000529FF001539FF00D1124ED5FFD4F718152
:101F0000761306C07081781303C07581741306C000
:101F10002F5F3F4F2770E9CF80E0089581E008955B
:101F20007E30B0F46630A0F48430A0F494E5899F4C
:101F3000F001112486E0789FE00DF11D1124E60FD9
:101F4000F11DEE0FFF1FEC50FD4F85919491089508
:101F500080E001C081E090E008951F93CF93DF936C
:101F60000E94D40EEC01C11580E5D807E8F5C11533
:101F700090E4D90708F0A8C0C03ED10530F5CD3CAB
:101F8000D10508F094C0C83AD10578F4C53AD10516
:101F900008F083C0C130D10509F47CC008F4F2C058
:101FA000C430D10508F0F1C0EDC0C33CD10508F044
:101FB000E9C0C85AD0E0CC0FDD1FCA5CDE4F0990E3
:101FC000D881C02DCE019464E1C0C11580E2D8074C
:101FD00008F0CBC0C11591E0D90708F06BC0C83E2E
:101FE000D10508F4D2C0CEC0C03682E5D80728F5A6
:101FF000C03492E5D90708F079C0C03282E5D8072D
:1020000008F06CC0C11592E5D90708F481C04C2FC7
:102010004695469580E2489FA0011124C37021E0B7
:1020200030E0C90102C0880F991FCA95E2F7EA01A2
:10203000C82BD92BCE019D68A9C0C03A82E5D8072C
:10204000B8F48C2F8F71C03892E5D90708F07BC0A7
:102050008695869590E2899F90011124C37081E056
:1020600090E002C0880F991FCA95E2F79A6868C08D
:10207000C03C82E5D80708F46DC0C03E92E5D907A0
:1020800008F080C0CF71DD27DC2FCC27CE01806F18
:10209000906A7CC081E090E079C0C55AD0E0CD5C08
:1020A000DE4F8881C82FD0E0CE0190646FC0CE0192
:1020B00090656CC08D2F0E94850E182FCE01992738
:1020C0000E94D40E1F715CC0CE0199270E94D40ECD
:1020D000CC27DF70D06A8C2B9D2B58C0CF71D0E0FD
:1020E000DC2FCC27CE01816F906A50C08C2F8F716E
:1020F0008695869590E2899F90011124C37081E0B6
:1021000090E002C0880F991FCA95E2F79C6818C03A
:102110008C2F8F710E94850E95E0D695C7959A9564
:10212000E1F7CF70D0E0DC2FCC27282F30E084FF00
:1021300005C084E0220F331F8A95E1F7D069CE01F4
:10214000822B932B23C090E0D82FCC27CE01846F15
:10215000906A1CC08C2F8F710E94850E8F7190E049
:10216000D82FCC27CE01906211C08D2F8F710E9485
:10217000850E182FCE0199270E94D40E1F719062F0
:10218000912B04C080E090E001C0CE01DF91CF919F
:102190001F910895A8E0B0E0E0EDF0E10C94612516
:1021A00066EE7EEF80E090E00E94262660E082E00E
:1021B00090E00E94082660E083E090E00E940826FC
:1021C0001092600260E074E184E090E00E942626B4
:1021D00060E086E090E00E9408266FEF87E090E0E4
:1021E0000E94082640E050E0BA0188E090E00E949A
:1021F0001A2660E084E290E00E94082660E087E111
:1022000090E00E94082660E08CE090E00E940826A2
:1022100060E08DE090E00E94082619821A821B82FD
:102220001C821D821E821F82188648E050E068E1F1
:1022300070E0CE0101960E94F82540E050E0BA011E
:1022400080E290E00E941A2610926B0210926C02BB
:1022500010926D0210926E0284E080936B024091A6
:102260006B0250916C0260916D0270916E028FE072
:1022700090E00E941A2640E050E0BA0183E190E02D
:102280000E941A262896E2E00C947D258095909174
:102290005F02892380935F02089590915F0280918D
:1022A0005E02982B9093DB0180915D028823D9F028
:1022B000892B8093DB0180910A01882331F0809182
:1022C000A70187FF02C08EE101C086E0EDEDF1E0DD
:1022D00090E0815028F021912223D9F39F5FF9CF1C
:1022E000911110925D0240E250E06DE372E08BEDDF
:1022F00091E00E944728892B21F180E2EBEDF1E08B
:10230000ADE3B2E001900D928A95E1F7E0913303DD
:10231000F09134033097A9F080910A01882359F095
:102320008091A70187FF07C08091DB018093DC01CA
:1023300086E08093DB010280F381E02D8BED91E05C
:102340000995089590913C028095892380933C02E1
:10235000282F277069F4981759F09091A80192FFDF
:1023600007C08695869586950E94EA2210923C02C7
:1023700008959091A80192FB222720F9281779F05F
:1023800080FB92F99093A8016091A7017091A80138
:1023900084E090E00E94262682E00E94A211089527
:1023A00080913B0290910202891719F08F5F87702C
:1023B000FBCF0895CF93DF938091010282958F70B8
:1023C00009F04EC080910002882309F449C0809131
:1023D0003B02409102025091FC016091FB01C091CF
:1023E000FD01D091FE0177E08417D1F190E0789F54
:1023F000F001799FF00D1124DF01AD5FBD4F149600
:102400002C911497222349F111962C9111972513A1
:1024100024C02C91261321C015962C9115972111BB
:102420001CC012962D913C9113972C1B3D0B283C00
:10243000310598F4809101028F70806180930102D0
:10244000E75FFD4F80818F70806180838BEF91E02B
:102450000E94F6030E94D01103C001968770C4CF7A
:10246000DF91CF910895A4E1B0E0E9E3F2E10C94AB
:1024700057258C0186E0F801DE011F9601900D9230
:102480008A95E1F7F8018481E5809BEF892E91E040
:10249000992E9091FF01911120C0882309F463C106
:1024A000EE2009F442C0C8010E940623F82E8823BA
:1024B000E1F187E0F801D40101900D928A95E1F7EE
:1024C0008091FF01813031F48091FB019091FC01FA
:1024D0000E944F220E94DA1148C1F801D080C180C9
:1024E000A280B380F09000022091FD013091FE01A6
:1024F000FF2009F4E7C0A501421B530B483C5105DE
:1025000008F09DC0882309F430C180910102282F72
:10251000207F9091FC01222361F09C1509F460C09A
:10252000C8010E940623811163C0C8010E94F603FE
:102530001AC19C1113C09091FB019D110FC0E110B5
:102540000DC08F708061809301028BEF91E00E943B
:10255000F60380910102F801868303C1E1103AC0BD
:1025600040E06C2D8D2D0E94700F40E06C2D8D2D64
:102570000E94700FE82E8111F4C0DF86C88A8F8513
:1025800098890E944F22292F22952F70243020F401
:102590009F70223028F009C02A50223080F014C0E9
:1025A000992349F0811107C013C0992321F0F80144
:1025B0009681907F69F0805E883030F409C0803F5A
:1025C00038F0815F833020F0C8010E94F603EF2CC1
:1025D000FE2CCBC080910102816080930102C1C0BA
:1025E0009091FB019D119CCFE1109ACFF80198C00A
:1025F000EE2009F49ACF20910102822F82958F70EC
:1026000090E002978CF08091FB019091FC019987FA
:102610008887BB86AA868091FF018C871D862E87BE
:10262000CE0108960E94F60387E0F801ABEFB1E017
:1026300001900D928A95E1F70E94DA1194C0909171
:102640000102292F207F51F48BEF91E00E94F603C5
:1026500087E0F40111928A95E9F783C0882309F491
:1026600084C08091FC018C110CC08091FB018D1104
:1026700008C0E11006C0F8019683C8010E94F60365
:102680006AC0C8010E940623882309F44ECFEE20B9
:1026900009F44BCF20910102822F82958F7090E038
:1026A000029714F28091FB019091FC019A83898337
:1026B000BC82AB828091FF018D831E822F83CE016D
:1026C0000196B0CFA21AB30AF8ECAF16B10408F025
:1026D00042C0882309F447C0FE2CEE2009F425CF20
:1026E0008091FC018C1129C08091FB018D1125C0C6
:1026F0009091010290FD18C0892F82958F70282F2C
:1027000030E02115310581F0F80196832F30310535
:1027100041F08F5F982F9295907F86818F70892BE3
:102720008683C8010E94F60387E0F801ABEFB1E0B1
:1027300001900D928A95E1F718C0C8010E94062306
:10274000811172CF80910102816080930102C801E2
:102750000E94F6030AC087E0F40111928A95E9F716
:1027600004C0F12C02C0FF24F3948F2D6496ECE09A
:102770000C947325A0E0B0E0E0ECF3E10C945B2551
:102780008091170190911801892BB9F08091630213
:102790008F5F80936302811110C00E94881D90E0BA
:1027A0009093180180931701892B39F40E94FF1D23
:1027B00081E0809316010E94161F0FE612E0780157
:1027C000D0E0C0E087E0C82ECC0E8C2F0E946F1E98
:1027D0008C2D0E946F1E8C2F0E94D21E8F73F701CA
:1027E0009081891721F08083DD24D39401C0D12CFE
:1027F0008C2D0E94D21E8F73F7019781891719F0D3
:10280000878381E001C080E0D82ADD290E94C31EB1
:10281000CF5FFFEFEF1AFF0AC730A1F610926802F0
:10282000C0916702CC2309F47DC00E94561B209101
:10283000650230916602AC01421B530B9A019093E2
:102840006602809365024F3F510509F018F4452B4D
:1028500019F102C02FEF30E010926702109264026B
:10286000E0916902F0916A02AF01425F5F4F90E030
:1028700030E08081882341F0281718F010829C2FC7
:1028800003C0821B80833C2F3196E417F50789F73C
:102890003093670290936402DD23B1F110926402D9
:1028A000E0916902F0916A0280916802909167025A
:1028B000A1E8B2E0AF01425F5F4F6EE1E80128811D
:1028C0003C91321779F0308131110CC060832C9328
:1028D00098819227282F30E0292B81E0232B09F4BF
:1028E00080E091E0319611960F5F1F4FE417F507D6
:1028F00029F7809368029093670280916802CDB7B0
:10290000DEB7E8E00C94772581E09091640299238A
:10291000A1F38111C3CF0E94561B9093660280934E
:102920006502BCCFD111F7CF80E0EFCFA6E0B0E0D9
:10293000ECE9F4E10C945F250E94561B8C01809118
:102940006102909162020817190781F019821A82B8
:102950000E94561B682F49815A81792F80E090E0B0
:102960000E94A31C10936202009361022696E4E089
:102970000C947B25A6E4B0E0E0ECF4E10C94552542
:1029800085B7806885BF85B7806885BF84B7877F36
:1029900084BF0FB6F894A8958091600088618093F9
:1029A0006000109260000FBE90E080E80FB6F894CF
:1029B00080936100909361000FBE83E89EE0909346
:1029C000A5018093A4010E94AC0C0E94CB0C8091C5
:1029D000E20084608093E20078948091DA01882399
:1029E000A1F01091E9001F709091EC00892F817087
:1029F00090FD80E8182B1092E9008091E80083FD9B
:102A00000E949D091F701093E90082E084BD93E04D
:102A100095BD9AEF97BD80936E000E94881D90E04F
:102A200090931801809317010E94C31E0E94091FF2
:102A3000EFE6F2E0A1E8B2E011921D9222E0ED375C
:102A4000F207D1F78EE090E00E9419278093690287
:102A500090936A02FC010E9611928E179F07E1F780
:102A600089EA8093800089E08093810024982C98E3
:102A70003F988AB18F7C8AB96E98479A8BB18063F0
:102A80008BB9769A8FE090E00E94EC2560936B0200
:102A900070936C0280936D0290936E0267708FEF5B
:102AA000689FB0011124759567957595679577278F
:102AB000709389006093880070938B0060938A0004
:102AC00070938D0060938C000E94FF1D80E090E069
:102AD0000E94F225863E9E4F11F00E94CA1082E0AD
:102AE00090E00E94E42580938F0284E090E00E94B1
:102AF000F2259093A8018093A70183E090E00E94C3
:102B0000E4250E94032380917E020E945E1D809135
:102B10007D02811176C080E090E00E94F225863E21
:102B20009E4F21F00E94CA100E94272088E090E06A
:102B30000E94EC254B015C0184E290E00E94E425B8
:102B4000282F30E040E050E060E070E080E090E06E
:102B500000E20E94E226282939294A295B2920938C
:102B6000290330932A0340932B0350932C03609343
:102B70002D0370932E0380932F03909330032E7FA9
:102B800089F50E94272088E090E00E94EC256B01E7
:102B90007C0184E290E00E94E425282F30E040E0B0
:102BA00050E060E070E080E090E00E94E226B22F0A
:102BB000A32FF42FE52F5B0197018601BC29A12BE0
:102BC000F22BE32BB0932903A0932A03F0932B035A
:102BD000E0932C0360932D03B0922E0380932F0378
:102BE000909330030E94BA1F1092440380912903EE
:102BF00080FF04C060E086950E94BB2181E0809345
:102C00007D0280917E020E945E1D8BE091E0909398
:102C100034038093330328E1E22EF12C8091DA0112
:102C2000853009F07EC010E4B12E0FE812E0AA242E
:102C3000A39480E1C82E92E1D92E8091DA018530EB
:102C400009F05AC08091DA01843009F434C010923E
:102C500044038091800281110DC0A0928002809176
:102C60002903982F917090937F028E7F8093290380
:102C70000E94161F109237030FB6F894A895E092A1
:102C800060000FBEB092600083B7817F846083BF15
:102C900083B7816083BF7894889583B78E7F83BF25
:102CA0000FB6F894A89580916000886180936000C9
:102CB000109260000FBE8091CD01882309F4BDCF32
:102CC0000E94881D90E090931801809317010E9444
:102CD000C31E0E94091FE1E8F2E011920E171F07C0
:102CE000E1F70E94BA13E1E8F2E081918111E6C1B7
:102CF0000E171F07D1F7A1CF0E9429230E94321C73
:102D00001092800280917F02882349F080912903EC
:102D100081608093290360E086950E94BB210E9418
:102D2000A5210E94BA13B0E9CB2EB2E0DB2EA1E8B8
:102D3000B2E0F60191918D91892722E0EE39F207F8
:102D400019F08823B9F305C0811103C00E949614BD
:102D500054C0A1E88A2EA2E09A2E10E0F4017190EE
:102D60004F01F601A080A724B1F100E0BB24B39489
:102D7000662463948A2D8B2141F122960FAF22970E
:102D800023961FAF23970E94561B25969FAF8EAFA9
:102D9000259726966FAE269791E0872D8B2109F413
:102DA00090E027969FAF279722964FAD22972396C4
:102DB0005FAD239724966FAD249725967FAD259719
:102DC00026968FAD26970E94A31C0F5FBB0C063082
:102DD00089F6F60170821F5FFFEFCF1ADF0A1E30FF
:102DE00009F0BCCF8FB7F894409138035091390364
:102DF00060913A0370913B038FBF80914403882315
:102E000009F4A5C080914303E0912903E695E81BEE
:102E1000E0933F03823059F4F0E0EB55FA4FE49130
:102E20000E2F10E0F9EECF2EFAE1DF2E6BC08630C8
:102E300059F4F0E0EE55FA4FE4910E2F10E0E9ED71
:102E4000CE2EEAE1DE2E5EC0893061F4E695F0E038
:102E5000E156FA4FE4910E2F10E075E7C72E7AE1A4
:102E6000D72E50C08F3061F4E695F0E0E456FA4F6B
:102E7000E4910E2F10E06FE0C62E6AE1D62E42C01C
:102E8000853159F4F0E0E756FA4FE4910E2F10E047
:102E90005FEBC52E59E1D52E35C08831F9F083326C
:102EA00049F4E7E9F5E0059114914FE9C42E4AE1B0
:102EB000D42E28C08432C9F08532F1F48E2F63E01D
:102EC0000E949F26E92FF0E0EC56FA4FE4910E2F76
:102ED00010E038E7C32E38E1D32E14C008E210E02A
:102EE00024E4C22E29E1D22E0DC004EF11E09CE0B3
:102EF000C92E99E1D92E06C000ED17E087E7C82E4C
:102F000088E1D82E80914003882361F0109240031D
:102F10000E94561B90933E0380933D031092420300
:102F2000109241030E94561BE0913D03F0913E0335
:102F30008E1B9F0B8F3F9F4750F40E0F1F1F109348
:102F40003E0300933D038DE393E0F60109950E9453
:102F5000321C90919E02891769F080939E028FB770
:102F6000F894409138035091390360913A0370917D
:102F70003B038FBF8091DA01843009F04FCE83E0AC
:102F80008093E9008091E80082FF48CE8091E800BC
:102F900085FF22C00E94FD0D81111CC000E210E0DF
:102FA0006E01F1E2CF0ED11C08C08091F100F60154
:102FB00081936F010150110969F08091E80085FD4E
:102FC000F4CF8091E8008B778093E8000E94FD0D9C
:102FD000882399F391E001C090E08091E8008B771D
:102FE0008093E800992309F419CE89A1863009F469
:102FF00050C0A0F4823009F411CE58F4882301F1B6
:10300000813009F057C08093D70184E089838EEF27
:103010004BC0843011F18530E1F14CC08930C9F1E9
:1030200028F4873089F18830A1F144C08A3099F1C1
:103030008E3F09F03FC0898394E09A838B8335C02B
:1030400019828CE0ECE6F1E0DE01129601900D921F
:103050008A95E1F78EEF8D8728C08091D70188236C
:1030600009F4DCCD8AA1811104C08BA10E94EA225F
:10307000D5CD81E090E00BA002C0880F991F0A9483
:10308000E2F70E94C522CACD81E08093D90185E094
:1030900012C084E010C081E09AA1911101C080E0CB
:1030A0008093D9019BE099838A83CE0101960E9487
:1030B0005A0EB4CD8FEF0E943F1CB0CDC9BCD9BC15
:1030C00009B400FEFDCF8091D8008F7D8093D80099
:1030D0008091E00082608093E0008091E00081FDBB
:1030E000FCCF0E942923A9CD8091AB0108950895BA
:1030F000A0E0B0E0EEE7F8E10C945625FC018280F8
:10310000748081E08483E9EAF5E09490E8E2F6E0F7
:10311000E49100912C030695015810E0000F111F57
:10312000012F1127CEEDD2E022EAC22E22E0D22ECC
:10313000AA24AA94B12CE919EE2EF12C22E028152C
:1031400030F080912A03888380912B03898371104A
:1031500003C01B821A824AC08B818823F9F08150F8
:103160008B832FEF829FC00111246C8170E00E943D
:103170003D25FB01FF27E755FA4F8491E82FE91918
:103180002FEFE29FC0011124B7010E943D258091DD
:103190002C03689FB00111247A8328C00E94D42593
:1031A000B5010E94B9268017910704F582E08815C1
:1031B00088F40E94D425B5010E94B92688830E9414
:1031C000D42520912B032695622F70E00E94B9260A
:1031D000280F29831A8280912C03843120F0893CA6
:1031E00018F088EC01C084E18C838B8396014A81BE
:1031F000698188810E943A20259624E0C20ED11C64
:1032000083E0C932D80709F099CF0E94161FCDB7C5
:10321000DEB7EDE00C947225EF92FF920F931F93AF
:10322000CF93DF938C01C2EAD2E0E12CF12CF801BC
:103230008481F7E0EF16F1041CF4882339F002C012
:10324000811104C09E0140912C0302C09E0140E008
:1032500060912B0380912A030E943A208FEFE81A95
:10326000F80A24969FE0E916F10409F70E94161F58
:10327000F801848190E00196817099278483CDB70D
:10328000DEB7E6E00C947925A0E0B0E0EAE4F9E1ED
:103290000C945725EC014C81042F10E09801D801C3
:1032A0000E9490269B01AC010E945B266B017C0171
:1032B000E0E2F0E0E01BF10BA5E5B0E09B01AC0122
:1032C0000E945B264B015C019F01DF010E94D32617
:1032D0009B01AC010E9466269B01AC012C0D3D1D9B
:1032E0004E1D5F1DC501B4010E946E26822FF22E75
:1032F00099E2921728F093E0299F900111240DC0C4
:1033000025E530E0281B3109C901880F991F280FD6
:10331000391F37FF02C02F5F3F4F35952795122F7A
:10332000109592EAC92E92E0D92E00E085E5E82EAC
:10333000EF1801FD02C08E2D01C08F2D9601412F87
:1033400060912B030E943A200F5F84E0C80ED11CCD
:103350000F3079F70E94161F8C81811102C091E015
:1033600003C0803219F49FEF9093150190911501DD
:10337000890F8C83CDB7DEB7ECE00C9473250F93E7
:103380001F93CF93DF93C2EAD2E0FE011182108235
:1033900012821382349682E0EE3DF807B9F700E01E
:1033A00010E08091A002082E000C990B0817190755
:1033B00094F080911401082E000C990B801791074E
:1033C00054F09E0140912C0360912B0380912A03BD
:1033D0000E943A2004C0198218821A821B820F5F51
:1033E0001F4F24960F301105E1F60E94161F8091A1
:1033F00013019091A002980F9093A00220911401C4
:10340000280F20931401121614F49E301CF081959D
:1034100080931301DF91CF911F910F910895A0E048
:10342000B0E0E5E1FAE10C945A25FC01828180FFCD
:1034300003C0DD24DA9402C0DD24D39402EA12E052
:10344000C0E0D0E02FE0B22EF8011182108212828B
:10345000138294E0E92EF12CC12C80919F028C0DF7
:1034600080312CF06B2D0E94AB26892F02C087FD86
:10347000815F082E000C990BC817D90791F4809131
:103480002C038E9DA0018F9D500D112455954795BD
:1034900055954795980160912B0380912A030E94CE
:1034A0003A20CD0CF1E0EF1AF108B9F621960C5F45
:1034B0001F4FCF30D10541F60E94161F80919F0209
:1034C00091E0D91206C0811102C08EE007C0815080
:1034D00005C090E00196BE010E94B92680939F022C
:1034E000CDB7DEB7E9E00C947625EF92FF921F93FB
:1034F000CF93DF93EC0182EAE82E82E0F82E10E011
:103500008C81970140912C0360912B03810F0E94C5
:103510003A201F5E84E0E80EF11C1F3F89F70E94ED
:10352000161F9A818C8190FF02C08F5F01C081506D
:103530008C83DF91CF911F91FF90EF900895A4E0CD
:10354000B0E0E5EAFAE10C945F258C018091A102DC
:1035500081110AC09E012F5F3F4F4FEF6FEF0E9416
:103560003A208A818093A102F8018481813051F050
:1035700028F0823061F44091A1020AC08091A1023A
:1035800040E007C06091A10240E080E003C040E05D
:1035900080E060E00E94A81FF801848190E001961D
:1035A00063E070E00E94B92684832496E4E00C94E2
:1035B0007B25CF93DF93EC01E9E2F3E04381628165
:1035C0008C810E94C7208C818F5F8C83DF91CF918B
:1035D0000895CF93DF93EC01EC81F0E0E755FA4FCB
:1035E0004491E9E2F3E0628181810E94C7208C81ED
:1035F0008F5F8C83DF91CF9108959B019091DA01C9
:103600009430F1F48F708093E9008FEF9091E8008F
:10361000815095FD06C095ED9A95F1F70000811156
:10362000F5CF8091E80085FF0BC0BA01C90140E0E9
:1036300050E00E94300E8091E8008E778093E80081
:10364000089578941F920F920FB60F9211248F93C2
:103650009F93AF93BF938091380390913903A091CA
:103660003A03B0913B030196A11DB11D809338032D
:1036700090933903A0933A03B0933B03BF91AF916A
:103680009F918F910F900FBE0F901F9018959C01E6
:103690004FB7F8948091380390913903A0913A0381
:1036A000B0913B034FBF821B930B08952FB7F89443
:1036B0008091380390913903A0913A03B0913B0374
:1036C0002FBF08951F920F920FB60F9211248F9360
:1036D0009F93AF93BF9380913703811113C0809163
:1036E000380390913903A0913A03B0913B0341967E
:1036F000A11DB11D8093380390933903A0933A0321
:10370000B0933B03BF91AF919F918F910F900FBEEC
:103710000F901F90189520910A012223C9F0209143
:10372000A70127FF15C0262F2695269526952E3111
:10373000C8F4FC01E20FF11D677081E090E001C068
:10374000880F6A95EAF7809592818923828308958C
:10375000FC0106962281621301C012823196E8179D
:10376000F907C1F7089520910A012223C1F02091A1
:10377000A70127FF14C0262F2695269526952E31C2
:1037800030F5FC01E20FF11D677081E090E001C0AF
:10379000880F6A95EAF79281892B82830895FC014C
:1037A00032962FEF30E04191641789F02F3F19F4E2
:1037B000411101C0232F3F5F3630A9F72F3F39F069
:1037C000FC01E20FF11D27FDFA956283089508952B
:1037D000A3E0B0E0EEEEFBE10C946125209135030F
:1037E0003091360328173907A1F090933603809360
:1037F0003503E0913303F0913403309751F024E026
:1038000029839B838A830680F781E02DCE01019670
:1038100009952396E2E00C947D25A3E0B0E0E3E176
:10382000FCE10C946125209131033091320328177B
:103830003907A1F09093320380933103E091330371
:10384000F0913403309751F023E029839B838A83DE
:103850000680F781E02DCE01019609952396E2E0DE
:103860000C947D25E0913303F0913403309729F0D7
:103870000190F081E02D0995089580E00895A0E27F
:10388000B0E0E5E4FCE10C9461259FEF99838A8325
:10389000CE0101960E945A0EA096E2E00C947D257E
:1038A0009091290390FF04C09695981748F003C0A3
:1038B000811106C090E0961718F40E941522089511
:1038C0000E94FE210895882311F0FA0101C0FB0136
:1038D00009950895982F92959F7019F0892F24E0EB
:1038E00001C020E0982F9695969511F02E5F892FB4
:1038F000982F969509F02F5F822F0895A6E0B0E0EB
:10390000E4E8FCE10C94602549835A8349815A819B
:10391000992361F0222351F0CA010E942022182F1E
:10392000682F89819A810E94902204C0CA010E9456
:103930005C22182F69817A81812F0E94900F269630
:10394000E3E00C947C25A4E3B0E0E9EAFCE10C940C
:103950005D254FA758AB69AB7AAB8BAB9CAB192FEE
:10396000911110925E02DE01989687E0FD0111929E
:103970008A95E9F786E0FE01BF9601900D928A953F
:10398000E1F7EFA4F8A80BA90023C9F021E0A701F3
:103990006AA57BA5C8010E947E1C8091D70188235F
:1039A00071F0111102C087E001C086E08983EA82CC
:1039B000FB828EEF8C83CE0101960E945A0EE8A600
:1039C000F9A60CA71DA787E0FE01B896DE01919627
:1039D00001900D928A95E1F7CE0181960E943312F3
:1039E00081112CC087E0FE01B196DE011196019095
:1039F0000D928A95E1F76DA1662301F120910202F3
:103A000030E0C90101968770992740913B0250E050
:103A10008417950761F16D8397E0929FD001939F82
:103A2000B00D1124AD5FBD4FFE01319601900D9296
:103A30009A95E1F7809302020E94D01117E08091DD
:103A40003B02909102028917F9F0189FC0011124DE
:103A50008D5F9D4F0E9433128823B1F080913B020D
:103A600090E001968770992780933B02E8CF0E94EF
:103A700029231092020210923B02EBEFF1E087E063
:103A8000DF011D928A95E9F7E496E6E00C9479252A
:103A90000E9429232FEF84E39CE021508040904036
:103AA000E1F700C000009AE088E10FB6F894A8950D
:103AB000809360000FBE90936000FFCFCF93C82F1C
:103AC0000E946A1C56985E9825982D9826982E98E4
:103AD00027982F9890E0FC013197E730F105A8F482
:103AE000ED55FF4F0C94CD26259A2D9A0EC0259AA0
:103AF0002D9A269A2E9A09C0259A2D9A04C0259AA5
:103B00002D9A269A2E9A279A2F9A8C2FCF91089524
:103B100080E290E0909318018093170180913C031C
:103B200081110EC00E946D2481E080933C032FEF31
:103B300083ED90E3215080409040E1F700C0000009
:103B400060E570E080E40E947324909318018093F4
:103B50001701892B09F04EC060E570E080E00E94FB
:103B6000E6249093180180931701892B09F042C035
:103B700060E570E080E00E94E62490931801809355
:103B80001701892BB9F560E570E08FE30E94E62408
:103B90009093180180931701892B61F50E943925B4
:103BA00060E570E080E40E94732490931801809394
:103BB0001701892BF9F460E570E08CE00E94E6249F
:103BC0009093180180931701892BA1F460E570E0B0
:103BD00080E00E94E6249093180180931701892BBE
:103BE00049F460E570E08FE30E94E62490931801A9
:103BF000809317010E943925809117010895CF9372
:103C0000DF9356985E9825982D9826982E98279899
:103C10002F98C8E8D0E08FEF90E099838883AAE8D6
:103C2000B0E011969C938E93ECE8F0E09183808352
:103C3000259A2D9A2FEF80E792E021508040904006
:103C4000E1F700C00000269A2E9A2FEF80E792E05D
:103C5000215080409040E1F700C00000279A2F9A41
:103C60002FEF80E792E0215080409040E1F700C0C4
:103C7000000025982D982FEF80E792E0215080409A
:103C80009040E1F700C0000026982E982FEF80E7C3
:103C900092E0215080409040E1F700C0000027985A
:103CA0002F9880916B0287702FEF829FC0011124A3
:103CB00095958795959587959927998388831196EA
:103CC0009C938E939183808356985E9825982D9827
:103CD00026982E9827982F98DF91CF910895CF930B
:103CE000E82F873080F58091170190911801892B7A
:103CF00009F047C0CE2F60E570E080E40E94732495
:103D00009093180180931701892BD1F460E570E03E
:103D100082E10E94E6249093180180931701892B79
:103D200079F481E090E001C0880FCA95EAF760E578
:103D300070E080950E94E62490931801809317010B
:103D40000E9439251EC090E0FC013797E730F1054D
:103D5000C0F4E655FF4F0C94CD26209A289811C048
:103D6000219A29980EC0229A2A980BC0239A2B9840
:103D700008C0529A5A9805C0539A5B9802C03E9A5E
:103D80004698CF91089520982898219829982298AC
:103D90002A9823982B9852985A9853985B983E9853
:103DA00046980895CF93873040F580911701909100
:103DB0001801892B59F560E570E081E40E947324B5
:103DC0009093180180931701892B11F0C0E011C066
:103DD00080E590E00E94152597FF05C0909318019B
:103DE00080931701F3CFC82FC0951092180110923D
:103DF00017010E9439258C2F0AC09FB18FB1807F97
:103E0000869586959370892B809501C080E0CF912F
:103E100008958098889A8198899A84988C9A859830
:103E20008D9A86988E9A87988F9A0895EF92FF922E
:103E30000F931F93CF93DF938091290380FF08C0D6
:103E400002EA12E08EEDE82E82E0F82EF8011BC0A7
:103E5000E2EAF2E08EED92E0118210821282138289
:103E600034968E179F07C1F7EBCF381708F4832FCE
:103E70008383381B3183281B2083981B92833496BD
:103E8000EE16FF0641F0928120813181892F29179A
:103E900060F7822FEACF80913C03882381F18091E3
:103EA000170190911801892B51F5809116018823F3
:103EB00031F165E070E084E80E947324892B19F0E9
:103EC000109216011AC0C2EAD2E065E070E0888163
:103ED0000E94E62465E070E089810E94E62465E0A6
:103EE00070E08A810E94E62465E070E08B810E9488
:103EF000E6242496EC16FD0641F70E943925579AD0
:103F00008BB18F779BB190682FB7F894E016F106CC
:103F100099F0F80131918F0148E09BB9000000C091
:103F200037FF8BB9330F000000C000C000C08BB951
:103F300000C04A9591F7EACF2FBF8FE594E0019733
:103F4000F1F700C00000CDB7DEB7E6E00C947925AC
:103F50009091290390FF0DC0E2EAF2E08183608333
:103F600042831382349692E0EE3DF907B9F70E943E
:103F7000161F089580912903282F269530E02115DA
:103F8000310519F48170826005C02B32310524F0AF
:103F900081708465809329030895A0E0B0E0E3ED8B
:103FA000FFE10C94572549015A016B017C010E94E5
:103FB000BA1F8401A4016A2D7B2D88E090E00E9445
:103FC0001A2694014A2D5B2DB601C70100E20E941A
:103FD000FD26622F84E290E00E940826CDB7DEB76E
:103FE000ECE00C94732580912D03882319F0815007
:103FF00080932D032091290330912A0340912B03B4
:1040000050912C0360912D0370912E0380912F030A
:10401000909130030E94CD1F089580912D0383302D
:1040200018F48F5F80932D032091290330912A0388
:1040300040912B0350912C0360912D0370912E031E
:1040400080912F03909130030E94CD1F0895E9E2E3
:10405000F3E023E0208311828FEF82838383148235
:10406000758130E04FEF5FEF60E0868197810E94BD
:10407000CD1F0895A0E0B0E0E0E4F0E20C945925F3
:10408000E82EF62EE901E42FF0E0611106C0E755B5
:10409000F94FE4914E2F2E2F71C0062F10E0E755F7
:1040A000F94F4491F42FC42ED12C26E0829FC001F9
:1040B00011242FEF30E0B9010E943D255BEA560341
:1040C000C001579F900D11248E0D911D8E0D911DD5
:1040D000582F550F580FD901A01BB10BAC9DC00133
:1040E000AD9D900DBC9D900D1124E92FF59ED00142
:1040F0001124AB2FBB277901EA1AFB0AEC9CD001F3
:10410000ED9CB00DFC9CB00D11245901A51AB1080D
:10411000A09E7001A19EF00CB09EF00C1124EF2C1B
:10412000FF242E193F092C9D80012D9D100D3C9DD3
:10413000100D1124212F6230710591F048F46115A2
:104140007105E1F061307105B9F4242F4B2F16C0D1
:104150006430710569F040F06630710579F00CC08B
:10416000242F492FE12F0AC0492FEF2F2B2F06C0F4
:10417000292FE42F412F02C0292FEB2F49832883B9
:10418000EA831B82CDB7DEB7EAE00C947525A4E084
:10419000B0E0EDECF0E20C9461259091290390FFE2
:1041A0000AC09E012F5F3F4F0E943A204B816981D8
:1041B0008A810E94A81F2496E2E00C947D25A4E049
:1041C000B0E0E5EEF0E20C945425F82E762EE42EC5
:1041D000622E9091290390FF6CC0E92FE695AE2FD7
:1041E000B0E0A858BE4F8C91809343039E7F9230DD
:1041F00061F49E012F5F3F4F8F2D0E943A204B812B
:1042000069818A810E94A81F3DC0823019F4E09024
:104210002C0338C0863019F4F0902A0333C089305B
:10422000D9F3893179F5E9518E2F8170582EE695B1
:10423000F0E0E755F84FE4910E2F10E082EAC82E27
:1042400082E0D82EA12CB12C9FE0892E912CC501A3
:10425000B4010E943D258F2D511002C0860F01C070
:10426000861B96014E2D672D0E943A20A00EB11E8E
:1042700084E0C80ED11C8EEDC81682E0D80639F74E
:104280000E94161FF0922A0370922B03E0922C03D7
:10429000662079F02091290360912D0370912E03FF
:1042A0003F2D472D5E2D80912F03909130030E946A
:1042B000CD1F2496EFE00C947025E9E2F3E04381F2
:1042C0002CE0421B08F440E021E0628181810E94E1
:1042D000DF200895E9E2F3E043812CE0420F08F487
:1042E0004FEF21E0628181810E94DF200895E9E2A1
:1042F000F3E0628121E1621B08F460E021E0438188
:1043000081810E94DF200895E9E2F3E0628121E1EA
:10431000620F08F46FEF21E0438181810E94DF206A
:104320000895E9E2F3E0818121E0438162818C50CC
:104330000E94DF200895E9E2F3E0818121E04381DA
:104340006281845F0E94DF20089560912903669551
:1043500070E04BE050E089E191E00E943A28892B1F
:1043600019F481E0809344030E94561B90933E030E
:1043700080933D0308959091290390FF3EC0917072
:10438000811102C0926006C08B3210F0946502C0A9
:10439000880F982B90932903662391F0209129038D
:1043A00030912A0340912B0350912C0360912D03EF
:1043B00070912E0380912F03909130030E94CD1FA6
:1043C00060912903669570E04BE050E089E191E04F
:1043D0000E943A28892B19F01092440302C00E94CF
:1043E000A52181E08093400320E040912C0360915F
:1043F0002B0380912A030E94DF20089561E00E9430
:10440000BB210895E9E2F3E0808181608083869595
:104410000E94FE210895809129038695815009F418
:104420008AE261E00E94BB2108958091290386956C
:104430008F5F8B3208F081E061E00E94BB2108951C
:10444000CF92DF92FF920F931F93CF93DF936C0174
:1044500000917E0280916002082BC7E0D0E010E05E
:10446000C8010C2E02C0959587950A94E2F780FD4D
:1044700004C02197A8F7F12C09C0FC2EB6018C2F9F
:104480000E94900F0E94AD0F019799F38F2DDF913D
:10449000CF911F910F91FF90DF90CF900895CF9310
:1044A000DF93EC010E942022BE010E94900F0E9427
:1044B000AD0FDF91CF910895292F9E3078F586308A
:1044C00068F590E036E0239F800D911D1124682F40
:1044D000677023E0969587952A95E1F7FC01EE0F2A
:1044E000FF1FE80FF91FEB5BFC4F40E050E080E05E
:1044F000219130E0062E02C0369527950A94E2F706
:1045000021703327042E01C0220F0A94EAF7822B70
:104510004F5F5F4F4330510559F7089580E008958C
:10452000292F9E3088F5863078F590E036E0239F7D
:10453000800D911D1124282F277051E001C0550FC7
:104540002A95EAF723E0969587952A95E1F7FC01ED
:10455000EE0FFF1FE80FF91FEB5BFC4F20E030E090
:1045600070E04081CB01022E02C0969587950A9497
:10457000E2F78170819584278523842781932F5FBB
:104580003F4F2330310569F70895A0E2B0E0EBEC2E
:10459000F2E20C9460250E945E1D182F8091D701D5
:1045A000882391F08FE39CE90197F1F700C00000A8
:1045B00085E08983812F0E946A1C8A838EEF8B831A
:1045C000CE0101960E945A0E10937E02A096E3E05F
:1045D0000C947C2521E030E001C0220F8A95EAF797
:1045E000209580917E0282230E94C522089521E0B9
:1045F00030E001C0220F8A95EAF780917E02822B7B
:104600000E94C5220895809360020895FC012481D0
:104610002223D9F0808191810E944F2292959F7030
:10462000963079F010F4925001C09A50923068F4AC
:10463000803F69F018F4883E40F409C0843F29F4B3
:1046400006C0883E20F0813F11F080E0089581E0AF
:10465000089510925F0280910A01882331F08091C1
:10466000A70187FF02C08EE101C086E0EDEDF1E019
:10467000DF011D928A95E9F780E090E00E940D1C11
:1046800080E090E00E94E81B10925E020E944D11B3
:104690000895882321F00E9446110E944D1108952B
:1046A000882339F090915F02892B80935F020E94EA
:1046B0004D110895882309F455C0682F823869F494
:1046C0000E94321C81FF4EC069E38BED91E00E9495
:1046D000B31B0E944D1169E30EC0833899F40E9408
:1046E000321C80FF3FC063E58BED91E00E94B31B5D
:1046F0000E944D1163E58BED91E00E948B1B0E949F
:104700004D110895843869F40E94321C82FF2AC03A
:1047100067E48BED91E00E94B31B0E944D1167E4AA
:10472000EACF8CEF860F813A30F380E2860F883033
:1047300048F4677081E001C0880F6A95EAF70E942B
:104740004611DDCF8BE5860F833028F480E090E0C2
:104750000E940D1C0895685A6B3120F480E090E0AF
:104760000E94E81B0895CF93882309F4B4C0C82F92
:104770008238B1F40E94321C81FDADC069E38BED3B
:1047800091E00E94B31B0E944D112FEF87EE93E042
:10479000215080409040E1F700C0000069E317C05D
:1047A0008338E1F40E94321C80FD95C063E58BEDF7
:1047B00091E00E94B31B0E944D112FEF81EE94E017
:1047C000215080409040E1F700C0000063E58BED90
:1047D00091E00E948B1B0E944D117DC08438B1F482
:1047E0000E94321C82FD77C067E48BED91E00E944D
:1047F000B31B0E944D112FEF81EE94E021508040B9
:104800009040E1F700C0000067E4E1CF8CEF8C0F2F
:10481000813AB8F580910A018823E1F08091A701DF
:1048200087FF18C0EC2FE695E695E695F0E0E55297
:10483000FE4F8281282F30E04C2F477081E090E0BE
:1048400002C0880F991F4A95E2F782239323892B90
:1048500059F411C0EDEDF1E08191C81729F021E084
:10486000E33EF207C9F707C06C2F8BED91E00E9481
:104870008B1B0E944D116C2F8BED91E00E94B31B9E
:10488000AACF80E28C0F883068F4C77081E090E096
:1048900001C0880FCA95EAF790915F02892B809337
:1048A0005F0299CFEBE5EC0FE33040F4F0E0ED5C14
:1048B000FE4F808190E00E940D1C0DC0C85ACB3184
:1048C00050F4EC2FF0E0EE0FFF1FEA5CFE4F80810A
:1048D00091810E94E81BCF9108951092B9008CE05D
:1048E0008093B8000895A0E0B0E0E9E7F4E20C940A
:1048F0005825B82EEB010E94561B6C01C431D1051E
:1049000058F0CF3F8FEFD80759F0CE0164E170E047
:104910000E943D257B0107C0EE24E394F12C03C0E7
:1049200025E0E22EF12C84E8A82E94EA992E10922C
:10493000BC009092BC000E94561B8C018091BC0070
:1049400087FD07C0C8010E94471BE816F906B0F7AB
:1049500029C08091B900887F883041F08091B900EA
:10496000887F803119F00FEF1FEF1EC0B092BB009F
:10497000A092BC000E94561B8C018091BC0087FD58
:1049800007C0C8010E94471BE816F906B0F70AC025
:104990008091B900887F883111F0803421F700E0E0
:1049A00010E00EC00EEF1FEFCF3F8FEFD80709F4D6
:1049B000BECFC6010E94471BC817D90708F0B7CF62
:1049C000C801CDB7DEB7EBE00C9474250F931F93AD
:1049D000CF93DF93EB018093BB0084E88093BC000E
:1049E0000E94561B8C018091BC0087FD0DC0CF3FFB
:1049F0008FEFD807C1F3C8010E94471BC817D9071A
:104A000090F78EEF9FEF0CC02091B900287F81E0D6
:104A100090E0283211F480E090E091958195910921
:104A2000DF91CF911F910F9108950F931F93CF9313
:104A3000DF93EC0184E88093BC000E94561B8C013C
:104A40008091BC0087FD0DC0CF3F8FEFD807C1F329
:104A5000C8010E94471BC817D90790F78EEF9FEF38
:104A600003C08091BB0090E0DF91CF911F910F9127
:104A7000089584E98093BC000895AA1BBB1B51E1F3
:104A800007C0AA1FBB1FA617B70710F0A61BB70BBE
:104A9000881F991F5A95A9F780959095BC01CD0163
:104AA00008952F923F924F925F926F927F928F92D2
:104AB0009F92AF92BF92CF92DF92EF92FF920F93AD
:104AC0001F93CF93DF93CDB7DEB7CA1BDB0B0FB6B7
:104AD000F894DEBF0FBECDBF09942A883988488874
:104AE0005F846E847D848C849B84AA84B984C8840A
:104AF000DF80EE80FD800C811B81AA81B981CE0F01
:104B0000D11D0FB6F894DEBF0FBECDBFED010895E5
:104B10008F929F92AF92BF92CF92DF92EF92FF92CD
:104B2000CF93DF93EC01688179818A819B81611544
:104B300071058105910521F464E279ED8BE597E03B
:104B40002DE133EF41E050E00E943C2649015A013B
:104B50009B01AC01A7EAB1E40E945B266B017C01DA
:104B6000ACEEB4EFA50194010E946926DC01CB01F3
:104B70008C0D9D1DAE1DBF1DB7FF03C00197A10980
:104B8000B04888839983AA83BB839F77DF91CF91B5
:104B9000FF90EF90DF90CF90BF90AF909F908F905D
:104BA00008950E948825089580E091E00E9488255C
:104BB0000895A0E0B0E08093000190930101A093DC
:104BC0000201B09303010895F999FECF92BD81BD12
:104BD000F89A992780B50895A6E1B0E044E050E046
:104BE0000C942E26A8E1B0E042E050E00C942E2672
:104BF000DC01A40FB51F4150504048F0CB01840F99
:104C0000951F2E910E94092641505040D0F70895DB
:104C1000262FF999FECF92BD81BDF89A019700B475
:104C2000021639F01FBA20BD0FB6F894FA9AF99A15
:104C30000FBE08950396272F0E9409260E9408267A
:104C4000252F0E940926242F0C9409260196272F30
:104C50000E9409260C940826DC01CB01FC01F9997D
:104C6000FECF06C0F2BDE1BDF89A319600B40D92B8
:104C700041505040B8F70895052E97FB1EF400945C
:104C80000E94532657FD07D00E946E2607FC03D0D2
:104C90004EF40C94532650954095309521953F4FF6
:104CA0004F4F5F4F089590958095709561957F4F18
:104CB0008F4F9F4F08950E949026A59F900DB49FFF
:104CC000900DA49F800D911D11240895B7FF0C94A1
:104CD0005B260E945B26821B930B0895A1E21A2E8D
:104CE000AA1BBB1BFD010DC0AA1FBB1FEE1FFF1F90
:104CF000A217B307E407F50720F0A21BB30BE40BE0
:104D0000F50B661F771F881F991F1A9469F7609526
:104D10007095809590959B01AC01BD01CF010895E0
:104D2000A29FB001B39FC001A39F700D811D1124EC
:104D3000911DB29F700D811D1124911D0895991B25
:104D400079E004C0991F961708F0961B881F7A9582
:104D5000C9F78095089587FB082E062687FD819563
:104D600067FD61950E949F260EF4919507FC819541
:104D7000089597FB072E16F4009407D077FD09D00D
:104D80000E943D2507FC05D03EF4909581959F4FEC
:104D90000895709561957F4F0895EE0FFF1F059060
:104DA000F491E02D09940E949026332312F48A1B7B
:104DB0009B0B0C94DD260E949026B7FF0895821B62
:104DC000930B08950F93083090F0982F872F762F2C
:104DD000652F542F432F322F22270850F4CF220F54
:104DE000331F441F551F661F771F881F991F0A9581
:104DF000B2F70F91089597FB10F8169400080F93DF
:104E0000083098F00850232F342F452F562F672F46
:104E1000782F892F902DF4CF0594979587957795C6
:104E2000679557954795379527950A95AAF70F9156
:104E300008950F931F93CF93DF938230910510F461
:104E400082E090E0E0916803F091690320E030E0B7
:104E5000A0E0B0E0309719F14081518102811381C7
:104E600048175907C8F08417950769F4109731F06F
:104E700012960C93129713961C9327C00093680305
:104E80001093690322C02115310519F04217530709
:104E900018F49A01BD01EF01DF01F801DBCF211504
:104EA0003105F9F0281B390B2430310580F48A8153
:104EB0009B816115710521F0FB019383828304C0FE
:104EC0009093690380936803FE01329644C0FE010B
:104ED000E20FF31F81939193225031093983288384
:104EE0003AC02091660330916703232B41F420914F
:104EF00006013091070130936703209366032091E8
:104F00000401309105012115310541F42DB73EB75B
:104F10004091080150910901241B350BE091660373
:104F2000F0916703E217F307A0F42E1B3F0B28173D
:104F3000390778F0AC014E5F5F4F2417350748F012
:104F40004E0F5F1F509367034093660381939193C5
:104F500002C0E0E0F0E0CF01DF91CF911F910F910F
:104F60000895CF93DF93009709F481C0FC01329735
:104F700013821282A0916803B0916903109781F4A3
:104F800020813181820F931F209166033091670346
:104F90002817390751F5F0936703E093660367C05C
:104FA000ED0120E030E0CE17DF0740F44A815B815D
:104FB0009E0141155105F1F0EA01F5CFD383C2837B
:104FC00040815181840F951FC817D90759F48881F2
:104FD0009981840F951F0296918380838A819B819A
:104FE000938382832115310529F4F0936903E093BB
:104FF00068033DC0E901FB83EA8349915991C40FDD
:10500000D51FEC17FD0761F480819181840F951FF6
:105010000296E90199838883828193819B838A83A5
:10502000E0E0F0E012968D919C911397009719F0B3
:10503000FD01DC01F7CF8D919C9111979D012E5FB1
:105040003F4F820F931F209166033091670328170B
:10505000390769F4309729F41092690310926803B4
:1050600002C013821282B0936703A0936603DF919C
:10507000CF910895FC014150504030F00190061648
:10508000D1F73197CF010895882799270895FB011B
:10509000DC0104C08D910190801921F441505040F1
:0C50A000C8F7881B990B0895F894FFCF07
:1050AC000100000000006A032000017418790971E6
:1050BC0009720901020101200001191A1B1C1D1E95
:1050CC001F20212244226DF101CF016201470260B1
:1050DC00028002818283E200E900EA00B500B6009A
:1050EC00B700CD008301CC008A019201940121020A
:1050FC00230224022502260227022A02B300B4004E
:10510C006F0070009F01CB019F02A002646F617160
:10511C004E2F58613472570000010202020206063B
:10512C00060909090909090F0F0F0F0F0F1515159E
:10513C00181919191919191919191923242525259B
:04514C0025252500F0
:00000001FF
